:020000022000DC
:106000000000012019620200016202000362020026
:10601000056202000762020009620200000000003F
:106020000000000000000000000000000B62020001
:106030000D620200000000000F6202001162020007
:106040003538030013620200954503001362020015
:106050001362020013620200914403001362020003
:106060001362020013620200136202001362020054
:106070001362020013620200136202001362020044
:1060800013620200F9780300136202001362020037
:1060900013620200136202005DD503001362020066
:1060A0001362020013620200136202001362020014
:1060B00013620200136202000000000000000000F2
:1060C00013620200136202001362020013620200F4
:1060D000136202001362020013620200000000005B
:1060E00000000000000000000000000000000000B0
:1060F00000000000000000000000000000000000A0
:10610000000000000000000000000000000000008F
:10611000000000000000000000000000000000007F
:10612000000000000000000000000000000000006F
:10613000000000000000000000000000000000005F
:10614000000000000000000000000000000000004F
:10615000000000000000000000000000000000003F
:10616000000000000000000000000000000000002F
:10617000000000000000000000000000000000001F
:10618000000000000000000000000000000000000F
:1061900000000000000000000000000000000000FF
:1061A00000000000000000000000000000000000EF
:1061B00000000000000000000000000000000000DF
:1061C00000000000000000000000000000000000CF
:1061D00000000000000000000000000000000000BF
:1061E00000000000000000000000000000000000AF
:1061F000000000000000000000000000000000009F
:10620000FEE7FEE7FEE7FEE7FEE7FEE7FEE7FEE766
:10621000FEE7FEE700F002B8FFF7FCBF0F484FF0C3
:106220000701884385460E4880470E48016841F4BF
:1062300070010160BFF34F8FBFF36F8F00F01AB88A
:1062400009480A490A4A884207D0521A05D00378F9
:1062500001300B700131013AF9D170470000012083
:10626000298A020088ED00E0F0DE030050220020C1
:1062700064220020344935480A1A02D0072291438B
:106280008D46334933480A1A06D00722914381F3D9
:106290000988022282F314882F483049304A00F0DE
:1062A00041F830483049314A00F03CF83048314933
:1062B000314A00F037F831483149324A00F032F8BB
:1062C00031483249324A00F02DF832483249334AD7
:1062D00000F028F832483349334A00F023F83348B5
:1062E0003349002200F029F832483349002200F0F7
:1062F00024F832483249091A17F016FD314A9047FE
:106300001F482049884205D00268043003B49047F2
:1063100003BCF7E700208646EC46002000212A4A0D
:106320009047FEE7884207D0521A05D00378013023
:106330000B700131013AF9D17047884202D00270E6
:106340000130FAE7704700000000012000E0002063
:106350000000012000000120C01B04006422002076
:1063600024240020CC630200CC6302003CDD030047
:10637000C01B0400642200206422002004DF03000C
:1063800004DF030004DF030004DF030004DF030075
:1063900004DF030004DF030004DF0300BD1B04006F
:1063A000801D040024240020242400202424002014
:1063B0009C3800209C3800209C3800209C3800200D
:0C63C0009C58002041620200E9720200BB
:1063CC0076DF704700BF184678DF704700BF18466D
:1063DC007ADF704700BF18467CDF704700BF184655
:1063EC008FDF704700BF184633DF704700BF184679
:1063FC0000B583B003460091ADF80630BDF8063009
:10640C00009A1946034810F0F5F800BF03B05DF888
:10641C0004FB00BFEFBEADDE00B583B00190044AB3
:10642C00D421019810F0E6F800BF03B05DF804FB2E
:10643C001CDF030000B587B00190019809F09AFDAC
:10644C0001980AF039F9019809F0F8FD019B1B78C5
:10645C00032B02D00D2B18D01CE00DF10F031946A5
:10646C000E480CF091FB0590059B0493049B002BAC
:10647C0004D00B4AEC21049810F0BCF89DF80F30B6
:10648C00002B06D000F0A6F903E0002000F002FF7C
:10649C0000E000BF00BF07B05DF804FB382400200B
:1064AC001CDF030000B583B01349144815F0DDFB65
:1064BC0003468DF807309DF807304FF6FE721946EB
:1064CC000F480BF0B0FF0090009B002B10D0009BEE
:1064DC00082B0DD0009B132B0AD0009B43F20142DA
:1064EC00934205D0074A40F20F11009810F082F841
:1064FC0000BF03B05DF804FB802A0020902A002026
:10650C00242400201CDF030000B583B00190FFF7AA
:10651C00C9FF00BF03B05DF804FB000082B001901E
:10652C00019B00221A70554B1B78002B03D0534B48
:10653C001B78022B01D1012300E0002303F001039F
:10654C00DAB2019B5A704D4B1B78002B03D04B4B8E
:10655C001B78012B01D1012300E0002303F0010380
:10656C00DAB2019B9A70019B0022DA70019B002227
:10657C001A71424B1B78424A1B0113440233B3F984
:10658C000020019B1A813D4B1B783D4A1B01134493
:10659C0093F90020019B9A71384B1B78384A1B01E8
:1065AC0013440633B3F90020019B9A81334B1B78BB
:1065BC00334A1B011344043393F90020019B9A7254
:1065CC002E4B1B782E4A1B0113440A33B3F90020BF
:1065DC00019B1A82294B1B78294A1B01134408334F
:1065EC0093F90020019B9A73019B264903F1120237
:1065FC000B4603CB10605160204B1B78204A1B01CB
:10660C0013440E33B3F90020019B9A831B4B1B7868
:10661C001B4A1B0113440C3393F90020019B9A76FF
:10662C00164B1B780133DAB2144B1A70134B1B78D0
:10663C00042B02D1114B00221A70124B9B791B3385
:10664C00DAB2104B9A710F4B9B793B2B12D90D4B35
:10665C009B793C3BDAB20B4B9A710A4B5B79013359
:10666C00DAB2084B5A71074B5B793B2B02D9054BBD
:10667C0000225A7100BF02B0704700BF982A002058
:10668C003C2A0020B022002000B585B010F062FB3F
:10669C000390039B0293029B002B05D00D4A40F202
:1066AC005D1102980FF0A6FF0B4A01210B4810F068
:1066BC008FFB0390039B0193019B002B05D0054A94
:1066CC0040F2631101980FF095FF00BF05B05DF823
:1066DC0004FB00BF1CDF03001565020004DF030090
:1066EC0000B589B09DF80430012262F303038DF8E4
:1066FC0004309DF80430012262F307138DF8043046
:10670C0001AB0A2224491846FFF766FE0790079B47
:10671C000693069B002B05D0204A40F27711069871
:10672C000FF068FF4FF46070FFF74EFE0790079B69
:10673C000593059B002B05D0184A4FF4BD710598A5
:10674C000FF058FF02AB08220021184617F092FAFE
:10675C004FF4C873ADF808304FF44873ADF80A30F5
:10676C000023ADF80C304FF4C873ADF80E3002AB0B
:10677C001846FFF72DFE0790079B0493049B002BF4
:10678C0005D0064A4FF4C27104980FF033FF00BFD6
:10679C0009B05DF804FB00BF78DF03001CDF0300C9
:1067AC0000B583B00021094806F010FD0190019B53
:1067BC000093009B002B05D0054A40F28D110098E8
:1067CC000FF018FF00BF03B05DF804FB5C24002041
:1067DC001CDF030000B58DB00DF1030319461D48F5
:1067EC000CF0D2F90B900B9B0A930A9B002B05D053
:1067FC00194A4FF4CD710A980FF0FCFE9DF8033046
:10680C00002B23D0154B1B7883F00103DBB2002B3C
:10681C001CD001AB1846FFF781FE01AB19460D48A1
:10682C000CF070F90B900B9B002B03D00B9B082BDF
:10683C000BD003E0094B01221A7007E0064A4FF413
:10684C00D7710B980FF0D6FE00E000BF00BF0DB063
:10685C005DF804FB382400201CDF03007C2A002098
:10686C0000B583B001900091009B1B78002B02D0E7
:10687C00022B03D006E0FFF7ADFF03E0034B002231
:10688C001A7000BF00BF03B05DF804FB7C2A002027
:10689C0000B583B00190054A4FF4ED7101980FF0EB
:1068AC00A9FE00BF03B05DF804FB00BF1CDF0300B2
:1068BC000000000000B5A5B0002301934B4B0193E1
:1068CC0001AB19464A4807F07EF92390239B22938B
:1068DC00229B002B05D0474A40F2EF1122980FF073
:1068EC0089FE1BAB10220021184617F0C3F9424B4E
:1068FC001B93424B1C93424B1E931123ADF87630E5
:10690C0002238DF8743001238DF875301BAB1946BA
:10691C003C480CF042F82390239B2193219B002BA5
:10692C0005D0344A40F2FF1121980FF063FE17ABEB
:10693C0010220021184617F09DF901238DF86930BB
:10694C0001238DF86A3001238DF86B3000231793E7
:10695C0001238DF860300023199364238DF868307F
:10696C0017AB194628480BF015FD2390239B209359
:10697C00209B002B05D01F4A40F20F2120980FF0CE
:10698C0039FE07AB40220021184617F073F907AB0C
:10699C001E49184604F0C0FA07AB08331C491846C8
:1069AC0004F0BAFA0FA3D3E90023CDE90223194B63
:1069BC00049302AB139301238DF8583007AB1846A0
:1069CC000CF080FA2390239B1F931F9B002B05D068
:1069DC00084A40F21E211F980FF00CFE00BF25B094
:1069EC005DF804FB55443322110000009D68020041
:1069FC00702400201CDF03006D6802002564020077
:106A0C008C220020382400202424002084DF030062
:106A1C0098DF03008877660008B53D4B51221A6059
:106A2C003B4B64225A603A4B01229A60384B01224C
:106A3C001A733749374815F0FFF8374B75225A80CF
:106A4C00354B00221A70344B4C22DA80324B002228
:106A5C001A71314B67225A812F4B00221A722E4B1E
:106A6C003C22DA812C4B00221A732B4B79225A824E
:106A7C00294B00221A74284B5122DA82264B002211
:106A8C001A75254B6A225A83234B00221A76224B05
:106A9C004822DA83204B00221A771F4B8A225A8411
:106AAC001D4B002283F820201B4B5822DA841A4BF2
:106ABC00002283F82420184B78225A85164B00228A
:106ACC0083F82820144B6922DA85134B002283F8B3
:106ADC002C20114B91225A860F4B002283F8302028
:106AEC000D4B6422DA860C4B002283F834200A4BBF
:106AFC0083225A87084B002283F83820064B7D22CC
:106B0C00DA87054B002283F83C2000BF08BD00BF8C
:106B1C00802A0020902A00203C2A002000B583B057
:106B2C000B4B00224FF40041184610F08BF90190EA
:106B3C00019B0093009B002B05D0064A40F25F217D
:106B4C0000980FF057FD00BF03B05DF804FB00BFC9
:106B5C00682200201CDF030000B585B00190019B6A
:106B6C001B78002B11D10B4B1B883B211846FFF7D0
:106B7C0027FC0390039B0293029B002B05D0064A33
:106B8C004FF41D7102980FF035FD00BF05B05DF894
:106B9C0004FB00BFA02200201CDF030000B583B063
:106BAC000190054A40F27F2101980FF023FD00BFB0
:106BBC0003B05DF804FB00BF1CDF030000B58BB015
:106BCC0001AB1C220021184617F054F80023019346
:106BDC004FF4A03302934FF4F023039303238DF867
:106BEC0010300023ADF8123000238DF814300C4B0C
:106BFC0006930C4B079301AB184603F04DFC099020
:106C0C00099B0893089B002B05D0074A40F296215C
:106C1C0008980FF0EFFC00BF0BB05DF804FB00BF51
:106C2C00656B0200A96B02001CDF030000B585B088
:106C3C00002001F0D5F90390039B0293029B002BDB
:106C4C0005D0134A40F2A22102980FF0D3FC01F0B8
:106C5C0050FB0390039B0193019B002B05D00C4A26
:106C6C0040F2A62101980FF0C5FCFFF7BDFB039085
:106C7C00039B0093009B002B05D0054A40F2AA21F0
:106C8C0000980FF0B7FC00BF05B05DF804FB00BF27
:106C9C001CDF030000B585B003468DF807309DF866
:106CAC000730002B1CD0032B1DD1124A124BD31AC8
:106CBC00DB081B0443F003031049184615F016FDBE
:106CCC00022001F08DF90390039B0293029B002B91
:106CDC000BD00B4A40F2BD2102980FF08BFC04E064
:106CEC00FFF7A4FF02E000BF00E000BF00BF05B04B
:106CFC005DF804FB30DE030008DE0300A8DF0300B0
:106D0C001CDF030000B58BB00190009100230993A8
:106D1C00019B1B88562B00F08380562B00F393802D
:106D2C003B2B6AD03B2B00F38E80212B4BD0212B9D
:106D3C0000F38980102B02D0112B31D083E0484A0C
:106D4C00484BD31ADB081B0443F00303464918468F
:106D5C0015F0CCFC072001F043F90990099B059331
:106D6C00059B002B05D0414A40F2D92105980FF024
:106D7C0041FC019B9A883E4B1A803D4B1B8819465F
:106D8C003C4806F042FF0990099B0493049B002B9E
:106D9C005BD0364A4FF4377104980FF02BFC54E05B
:106DAC002F4A304BD31ADB081B0443F00303324940
:106DBC00184615F09BFC2E4B4FF6FF721A802F4B8A
:106DCC0000221A7048E000238DF80C3000238DF857
:106DDC000D30019B9B8803AA11461846FFF700FB58
:106DEC000990099B0693069B002B30D01F4A40F25A
:106DFC00EE2106980FF0FEFB29E0019B9B881321E6
:106E0C001846FFF7DDFA0990099B0893089B002BA5
:106E1C001FD0164A40F2F62108980FF0EBFB18E051
:106E2C00019B9B8813211846FFF7CAFA0990099B0E
:106E3C000793079B002B0ED00C4A40F2FE210798BB
:106E4C000FF0D8FB07E000BF06E000BF04E000BF76
:106E5C0002E000BF00E000BF00BF0BB05DF804FB18
:106E6C0030DE030008DE0300BCDF03001CDF030080
:106E7C00A022002070240020C8DF03007C2A002000
:106E8C0000B587B016F084FA0590059B0493049B1B
:106E9C00002B05D0164A40F2113104980FF0AAFBD2
:106EAC000023019301AB1946012016F087FB0590D6
:106EBC00059B0393039B002B05D00D4A40F2173121
:106ECC0003980FF097FB01AB184616F06BFC05907E
:106EDC00059B0293029B002B05D0054A40F21B3107
:106EEC0002980FF087FB00BF07B05DF804FB00BFF2
:106EFC001CDF030000B587B003468DF807309DF802
:106F0C000730043B0A2B54D801A252F823F000BFDF
:106F1C004F6F0200BF6F0200BF6F02007B6F020059
:106F2C00BF6F0200BF6F0200496F0200BF6F02000B
:106F3C00BF6F0200BF6F0200AD6F0200FFF776FE5D
:106F4C003EE0214B1B8813211846FFF739FA0590B8
:106F5C00059B082B2FD0059B0393039B002B2AD05A
:106F6C001A4A40F2353103980FF044FB23E0164BDC
:106F7C001B884FF6FF7293421FD1154803F00DF991
:106F8C000590059B082B18D0059B0493049B002BA4
:106F9C0013D00E4A40F23F3104980FF02BFB0CE05B
:106FAC00094B1B884FF6FF72934208D0FFF712FC77
:106FBC0005E000BF04E000BF02E000BF00E000BF3E
:106FCC0000BF07B05DF804FBA02200201CDF03000B
:106FDC007C24002000B587B008F0B0FB0590059B21
:106FEC000493049B002B05D0384A40F25931049885
:106FFC000FF000FB6B4605220021184616F03AFEF6
:10700C009DF8003043F001038DF800309DF80030FE
:10701C006FF341038DF800309DF800306FF382035D
:10702C008DF800309DF800306FF3C3038DF80030FD
:10703C009DF80030032262F306138DF800309DF8A2
:10704C0000306FF3C7138DF8003007238DF8013033
:10705C0010238DF802309DF8033043F001038DF8B6
:10706C0003309DF8033043F002038DF803309DF894
:10707C00043043F001038DF804309DF8043043F0E4
:10708C0002038DF804306B46184608F041FC05905D
:10709C00059B0393039B002B05D00C4A4FF45B71AB
:1070AC0003980FF0A7FA0A4808F00AFC0590059B14
:1070BC000293029B002B05D0044A40F26F310298D8
:1070CC000FF098FA00BF07B05DF804FB1CDF03005B
:1070DC004164020000B583B00E4A0F4BD31ADB0893
:1070EC001B0443F003030D49184615F0FFFA08F092
:1070FC0085FC0190019B0093009B002B05D0084A56
:10710C004FF45F7100980FF075FA00BF03B05DF893
:10711C0004FB00BF30DE030008DE0300D8DF0300F1
:10712C001CDF030000B5AFB001ABAC220021184648
:10713C0016F0A0FD02238DF8043001238DF80630E3
:10714C0006238DF807300323ADF81430124B069349
:10715C0001238DF880302823239344F25063249329
:10716C000E4B2A9301AB19460D4802F0FBFD2D90F6
:10717C002D9B2C932C9B002B05D00A4A40F2963168
:10718C002C980FF037FA0121054802F0DEFD00BF04
:10719C002FB05DF804FB00BFA4220020A16C0200FC
:1071AC007C2400201CDF030000B587B00190174938
:1071BC00032000F02FFF0590059B0493049B002BEC
:1071CC0005D0134A40F2A63104980FF013FA0DF1D2
:1071DC000B031946002001F0EFF80590059B039373
:1071EC00039B002B05D00A4A40F2A93103980FF0FB
:1071FC0001FA9DF80B30022B0CBF01230023DAB2ED
:10720C00019B1A7000BF07B05DF804FB016F020010
:10721C001CDF030000B583B04FF48041002014F054
:10722C008FFF0190019B0093009B002B05D0064A19
:10723C004FF46D7100980FF0DDF914F017FF00BFDB
:10724C0003B05DF804FB00BF1CDF030000B583B086
:10725C0014F076F90190019B0093009B002B05D054
:10726C00044A4FF4707100980FF0C4F900BF03B0DA
:10727C005DF804FB1CDF030008B515F0C1FA0346EA
:10728C0083F00103DBB2002B01D014F06FF900BFC7
:10729C0008BD000000B585B003468DF807309DF899
:1072AC000730002B02D0FFF715FF0FE00321094830
:1072BC0002F030FE0390039B0293029B002B05D03F
:1072CC00054A40F2DD3102980FF094F900BF05B089
:1072DC005DF804FB7C2400201CDF030000B583B0A8
:1072EC00FFF798FFFFF7D0F90DF107031846FFF7EA
:1072FC005BFFFFF7ABFFFFF7C3FDFFF7F1F9FFF7FC
:10730C004FFAFFF70FFFFFF7D5FAFFF785FBFFF7F3
:10731C0055FCFFF75FFE0A4A0A4BD31ADB081B0425
:10732C0043F003030849184615F0E0F9FFF7F6FBA4
:10733C009DF807301846FFF7ADFFFFF79DFFFCE700
:10734C0030DE030008DE0300E8DF030000B583B085
:10735C000190019B1B68184600F011F90346002BA5
:10736C0004D105494FF4F670FFF742F84FF0A043F3
:10737C00184603B05DF804FB08E0030000B585B0C7
:10738C000190084611461A4603468DF803300B4609
:10739C008DF8023013468DF8013001AB1846FFF71B
:1073AC00D5FF03909DF803209DF802305B001A4333
:1073BC009DF801309B001A439DF818301B0242EADD
:1073CC0003019DF81C301B04019A1943039B02F521
:1073DC00E07243F8221000BF05B05DF804FB00B565
:1073EC0085B0039000230193002300930023012216
:1073FC0001210398FFF7C2FF00BF05B05DF804FB45
:10740C0000B585B003900B468DF80B309DF80B3012
:10741C000022019200220092002200210398FFF723
:10742C00ADFF00BF05B05DF804FB00B585B0019061
:10743C0001AB1846FFF78AFF0390019B012202FA69
:10744C0003F31946039800F086F800BF05B05DF809
:10745C0004FB00B585B0019001AB1846FFF776FF31
:10746C000390019B012202FA03F31946039800F0E2
:10747C007CF800BF05B05DF804FB00B585B0019049
:10748C0001AB1846FFF762FF0390039BD3F804355A
:10749C000293029BDA43019B012101FA03F31A4088
:1074AC00039BC3F80825019B01229A40029B1A40BA
:1074BC00039BC3F80C2500BF05B05DF804FB00B5B9
:1074CC0083B001900091009B002B03D10198FFF732
:1074DC00C0FF02E00198FFF7A8FF00BF03B05DF802
:1074EC0004FB00B585B0019001AB1846FFF72EFFE9
:1074FC000390039800F01FF80246019B22FA03F355
:10750C0003F00103184605B05DF804FB00B585B027
:10751C00019001AB1846FFF719FF0390039800F098
:10752C0012F80246019B22FA03F303F001031846FA
:10753C0005B05DF804FB82B00190019BD3F81035C7
:10754C00184602B0704782B00190019BD3F8043505
:10755C00184602B0704782B001900091019B009ACE
:10756C00C3F8082500BF02B0704782B001900091AB
:10757C00019B009AC3F80C2500BF02B0704784B081
:10758C000190019B5B09029300230393029B002B48
:10759C0003D14FF0FF33039300BF019B03F01F0394
:1075AC000193039A019B22FA03F303F00103002BCE
:1075BC0014BF01230023DBB2184604B0704700004F
:1075CC0000B585B00190019B032B03D911493A20DA
:1075DC00FEF70EFF104A019B13441B781846FFF769
:1075EC0095FF0346002B14BF012300238DF80F30A9
:1075FC009DF80F30002B14BF01230023DBB283F066
:10760C000103DBB203F00103DBB2184605B05DF8F1
:10761C0004FB00BF38E0030084E0030000B583B036
:10762C000190019B032B03D907494120FEF7E0FE93
:10763C00064A019B13441B7800211846FFF73FFFB5
:10764C0000BF03B05DF804FB38E0030084E00300E6
:10765C0000B583B00190019B032B03D90749472048
:10766C00FEF7C6FE064A019B13441B7801211846FF
:10767C00FFF725FF00BF03B05DF804FB38E0030003
:10768C0084E0030000B583B00023019305E001986A
:10769C00FFF7DEFF019B01330193019B032BF6D90E
:1076AC0000BF00BF03B05DF804FB00B583B000233E
:1076BC00019305E00198FFF7B1FF019B01330193A2
:1076CC00019B032BF6D900BF00BF03B05DF804FB90
:1076DC0000B583B00190019B032B03D907495F20B0
:1076EC00FEF786FE064A019B13441B781846FFF7EB
:1076FC00C4FE00BF03B05DF804FB00BF38E003001C
:10770C0084E0030000B583B00023019309E0094A2B
:10771C00019B13441B781846FFF761FE019B013354
:10772C000193019B032BF2D9FFF7ACFF00BF03B011
:10773C005DF804FB84E0030000B585B00190019B6B
:10774C00032B03D91149AC20FEF752FE104A019BC2
:10775C0013441B781846FFF7C4FE0346002B14BFD6
:10776C00012300238DF80F309DF80F30002B14BF30
:10777C0001230023DBB283F00103DBB203F001032E
:10778C00DBB2184605B05DF804FB00BF38E003001F
:10779C0088E0030000B583B0002301930AE0094A96
:1077AC00019B13441B7803211846FFF729FE019B0C
:1077BC0001330193019B032BF1D900BF00BF03B030
:1077CC005DF804FB88E0030084B001904FF0FF33B8
:1077DC000293002303930DE00A4A039B13441B7886
:1077EC001A46019B934202D1039B029305E0039B33
:1077FC0001330393039B032BEED9029B184604B071
:10780C00704700BF88E0030000B583B00190019B76
:10781C00032B03D90549CB20FEF7EAFD044A019B53
:10782C0013441B78184603B05DF804FB38E00300E2
:10783C0088E0030000B583B00190019B03F00103C5
:10784C00002B01D0FFF75EFF019B03F00203002B1E
:10785C0001D0FFF79FFF00BF03B05DF804FB0000F1
:10786C0000B583B00190019B1B68184600F03DF8F1
:10787C000346002B04D105494FF4F670FEF7B8FD12
:10788C004FF0A043184603B05DF804FB8CE00300F6
:10789C0000B585B001900B468DF8033001AB18464E
:1078AC00FFF7DEFF0390019A039B02F5E07253F899
:1078BC002230019A23F44031039B02F5E07243F825
:1078CC002210019A039B02F5E07253F822109DF8E6
:1078DC0003301B04019A1943039B02F5E07243F831
:1078EC00221000BF05B05DF804FB84B00190019B31
:1078FC005B09029300230393029B002B03D14FF0EF
:10790C00FF33039300BF019B03F01F030193039A02
:10791C00019B22FA03F303F00103002B14BF012394
:10792C000023DBB2184604B0704700B583B0019059
:10793C00019B032B04D80198FFF7FEFE034600E0E1
:10794C000023184603B05DF804FB000000B587B0B7
:10795C0003460A468DF8073013468DF8063000238F
:10796C008DF81730002304939DF807301846FFF765
:10797C002BFF0490049B032B62D89DF80630022B3E
:10798C0052D0022B5CDC002B31D0012B58D1354965
:10799C00049A13465B0013440B441B788DF8173084
:1079AC003049049A13465B0013440B4401331B7893
:1079BC00002B0ED02C4B2D4A4FF4804118460FF063
:1079CC0041FA0390039B002B03D1284A9DF8073002
:1079DC0013702449049A13465B0013440B4402337E
:1079EC001978234A049B13440A461A7028E01E4B4C
:1079FC0018460FF07FFA1E4A049B13441978194855
:107A0C00049A13465B001344034402331B789942D7
:107A1C0015D11449049A13465B0013440B440233EA
:107A2C001B788DF817300AE00E49049A13465B0058
:107A3C0013440B4401331B788DF8173000E000BF62
:107A4C009DF81730002B09D00A4B1B68002B05D072
:107A5C00084B1B689DF817201046984700BF07B0CD
:107A6C005DF804FBA82A0020F8220020B42A00208C
:107A7C00B82A0020A42A002000B583B00190019BF5
:107A8C001B7802211846FFF761FF00BF03B05DF8B9
:107A9C0004FB000000B583B00C4B1B78002B0FD0FF
:107AAC000023019308E0019B022B02D00198FFF701
:107ABC00CFFD019B01330193019B032BF3D901E013
:107ACC00FFF7E0FD00BF03B05DF804FBA02A002027
:107ADC002DE9D04F92B003468DF83F30002311931F
:107AEC0000231093CC4B1B78002B04D0CA4A0023E4
:107AFC001370FFF7CFFF9DF83F30172B00F23F823A
:107B0C0001A252F823F000BF757B02008D7B0200AE
:107B1C008D7B0200297C0200C57C0200417D0200A5
:107B2C00D57D0200F57D0200057E0200317E02004B
:107B3C004F7E02006D7E02008B7E0200997E020059
:107B4C00997E0200997E0200997E0200997E0200C5
:107B5C002D7F02003B7F02004F7F0200637F0200FB
:107B6C007D7F02007D7F0200FFF794FFAB4B184630
:107B7C000FF0C0F91190AA4A9DF83F301370FFE145
:107B8C000020FFF71DFD0346002B0DD00020FFF752
:107B9C005FFD9DF83F30022B02D14FF4E16301E011
:107BAC004FF47A6310930BE00020FFF737FD9DF83C
:107BBC003F30022B01D1C82301E04FF4C87310935E
:107BCC00974A9DF83F301370944C109B0022009301
:107BDC0001924FF000024FF00003DDE900673946D7
:107BEC00CB03314643EA51433146CA0312F57A714D
:107BFC00029143F1000303934FF4FA624FF0000338
:107C0C00DDE9020115F0D2FE02460B4613460022B6
:107C1C00194620460FF016F91190B1E10020FFF73C
:107C2C00CFFC0346002B0DD00020FFF711FD9DF873
:107C3C003F30032B02D14FF4487301E04FF47A63C9
:107C4C0010930BE00020FFF7E9FC9DF83F30032B6D
:107C5C0001D1C82301E04FF4C8731093704A9DF80A
:107C6C003F3013706D4C109B0022049305924FF023
:107C7C0000024FF00003DDE904673946CB033146BF
:107C8C0043EA51433146CA0312F57A71069143F126
:107C9C00000307934FF4FA624FF00003DDE906018D
:107CAC0015F084FE02460B46134600221946204668
:107CBC000FF0C8F8119063E10020FFF781FC034638
:107CCC00002B06D00020FFF7C3FC4FF47A6310930F
:107CDC0005E00020FFF7A2FC4FF4C8731093504A44
:107CEC009DF83F3013704D4C109B00229A469346E2
:107CFC004FF000024FF000034FEACB3343EA5A43F4
:107D0C004FEACA3212F57A71089143F100030993D4
:107D1C004FF4FA624FF00003DDE9080115F046FE5E
:107D2C0002460B4613460022194620460FF08AF8ED
:107D3C00119025E10020FFF743FC0346002B0CD0EB
:107D4C000020FFF785FC9DF83F30052B01D1C8239F
:107D5C0001E04FF47A6310930BE00020FFF75EFC18
:107D6C009DF83F30052B01D1C82301E04FF4C873B7
:107D7C0010932B4A9DF83F301370284C109B002217
:107D8C00984691464FF000024FF000034FEAC9337A
:107D9C0043EA58434FEAC83212F57A710A9143F11B
:107DAC0000030B934FF4FA624FF00003DDE90A0174
:107DBC0015F0FCFD02460B461346002219462046E0
:107DCC000FF040F81190DBE00020FFF781FC144A23
:107DDC009DF83F301370114B002240F2666118463B
:107DEC000FF030F81190CBE00020FFF717FC0C4A95
:107DFC009DF83F301370C3E0074B01221A7001202D
:107E0C00FFF766FC054B002240F2666118460FF046
:107E1C0019F81190B4E000BF9A2A0020B822002073
:107E2C00992A0020594B01221A700120FFF750FCAF
:107E3C00574B00224FF4005118460FF003F81190E5
:107E4C009EE0524B01221A700120FFF741FC504B6F
:107E5C00002240F2666118460EF0F4FF11908FE09C
:107E6C004A4B01221A700120FFF732FC484B0022CA
:107E7C004FF4005118460EF0E5FF119080E0FFF72B
:107E8C0014FC444A9DF83F30137079E0424B18467D
:107E9C000FF030F811909DF83F30C3F1110310939F
:107EAC00109B002B35D0119B002B32D1109B012B3A
:107EBC0028D9394C109B9BB21A46C82302FB03F3FA
:107ECC00DA171E4617464FF000024FF00003FB0373
:107EDC0043EA5643F20312F57A710C9143F1000315
:107EEC000D934FF4FA624FF00003DDE90C0115F02D
:107EFC005DFD02460B4613460022194620460EF045
:107F0C00A1FF11900220FFF789FB244B01221A706C
:107F1C0036E00220FFF79CFB204B00221A702FE06A
:107F2C00FFF7B8FD1B4A9DF83F30137028E0FFF7B0
:107F3C00B1FD0020FFF772FB164A9DF83F3013701D
:107F4C001EE0FFF7A7FD0120FFF768FB114A9DF823
:107F5C003F30137014E0FFF79DFD0020FFF75EFB30
:107F6C000120FFF75BFB0B4A9DF83F30137007E0D5
:107F7C00FFF79BFB074A9DF83F30137000E000BFF2
:107F8C00119B184612B0BDE8D08F00BF9A2A002072
:107F9C00B8220020992A0020D8220020A02A0020F4
:107FAC0000B583B00190074B1B6803F00103002B55
:107FBC0004D0054B1B781846FFF78AFD00BF03B0B1
:107FCC005DF804FB9C2A0020992A002000B583B0A0
:107FDC0001900220FFF77CFB00BF03B05DF804FBAF
:107FEC0000B585B003468DF8073000230393084B8A
:107FFC001B6803F00103002B05D09DF807301846D1
:10800C00FFF766FD0390039B184605B05DF804FB73
:10801C009C2A002000B585B00190009100230393A9
:10802C002A4A019B13602A4A009B1360019B03F0B0
:10803C000203002B2AD00023029308E00122012125
:10804C00029800F055F80390029B01330293029BB7
:10805C00032B02D8039B002BF0D0039B002B06D1E3
:10806C0040F2333204211B480EF0C4F90390039BF9
:10807C00002B02D10EF046FA0390039B002B05D186
:10808C00154A002115480EF0A3FE0390019B03F046
:10809C000103002B14D00120FFF7CCFB039B002B1A
:1080AC0005D10F4A00210F480EF092FE0390039B5E
:1080BC00002B05D10C4A01210C480EF089FE0390CF
:1080CC00039B184605B05DF804FB00BF9C2A0020FA
:1080DC00A42A0020C8E00300857A0200C4E0030053
:1080EC00AD7F0200BCE00300D97F0200C0E00300BA
:1080FC0084B001900B468DF8033013468DF8023096
:10810C0000230393019B032B3CD89DF80230012BD9
:10811C000BD19DF80330012B04D1019BDBB20E3344
:10812C00DBB200E000238DF802309DF80330022B07
:10813C000FD0022B23DC002B16D0012B1FD114499E
:10814C00019A13465B0013440B449DF802201A70ED
:10815C001AE00F49019A13465B0013440B44013398
:10816C009DF802201A700FE00949019A13465B0032
:10817C0013440B4402339DF802201A7004E00723C9
:10818C00039301E007230393039B184604B0704745
:10819C00A82A002000B585B001900B468DF803305D
:1081AC00019B032B14D89DF80330002B01D0032323
:1081BC0000E000238DF80F300198FFF725FB0246F5
:1081CC009DF80F3019461046FFF762FB002300E0C4
:1081DC000623184605B05DF804FB00B583B001908A
:1081EC0001210198FFF7D6FF0346184603B05DF84E
:1081FC0004FB00B583B0012200210020FFF778FFBB
:10820C000190019B002B04D0019B072B01D0019BFB
:10821C001CE0072202210120FFF76AFF0190019B5D
:10822C00002B04D0019B072B01D0019B0EE00422F4
:10823C0002210020FFF75CFF0190019B002B04D072
:10824C00019B072B01D0019B00E00023184603B0D3
:10825C005DF804FB00B583B0012202210020FFF77A
:10826C0047FF0190019B002B04D0019B072B01D0F1
:10827C00019B1CE0072202210120FFF739FF01902E
:10828C00019B002B04D0019B072B01D0019B0EE01E
:10829C000A2200210020FFF72BFF0190019B002BED
:1082AC0004D0019B072B01D0019B00E00023184652
:1082BC0003B05DF804FB00B583B001900120FFF71B
:1082CC0034FB0346002B03D0019B02221A700CE0F6
:1082DC000020FFF72AFB0346002B03D0019B0B2247
:1082EC001A7002E0019B00221A7000BF03B05DF807
:1082FC0004FB00B583B00020FFF76FFF0190019BDA
:10830C00002B04D0019B062B01D0019B0CE001201B
:10831C00FFF763FF0190019B002B04D0019B062B00
:10832C0001D0019B00E00023184603B05DF804FB6C
:10833C0000B585B001900091019B1B88102B02D0D9
:10834C00112B18D02FE01A4B1B68002B0DD1FFF707
:10835C0050FF0390039B002B07D0164B1B68002B80
:10836C0003D0144B1B6803989847114B1B680133BF
:10837C000F4A136017E00E4B1B68013B0C4A13604D
:10838C000B4B1B68002B0DD1FFF764FF0390039B75
:10839C00002B07D0074B1B68002B03D0054B1B6829
:1083AC000398984700BF00BF05B05DF804FB00BF01
:1083BC00C02A0020BC2A002000B585B00190009195
:1083CC00002303930A4A019B1360009B002B02D0ED
:1083DC000098FFF770FF074B1B68002B02D1FFF7CB
:1083EC0039FF0390039B184605B05DF804FB00BFF2
:1083FC00BC2A0020C02A0020BFF34F8F00BF064BC1
:10840C00DB6803F4E0620449044B1343CB60BFF315
:10841C004F8F00BF00BFFDE700ED00E00400FA0540
:10842C0082B01D4B1B68B3F1FF3F0AD11B4B1B687D
:10843C00DBB201931A4B1B681B0903F00F0300936B
:10844C0005E0154B1B680193164B1B680093019BB1
:10845C00062B1DD1009B033B042B17D801A252F80D
:10846C0023F000BF85840200898402008D84020001
:10847C00918402009584020001230AE0012308E0A4
:10848C00012306E0012304E0012302E0012300E0C4
:10849C000023184602B0704730010010E00F00F0C6
:1084AC00E80F00F03401001082B0174B1B68DBB2F0
:1084BC000193164B1B681B0903F00F030093019BE0
:1084CC00062B1DD1009B033B042B17D801A252F89D
:1084DC0023F000BFF5840200F9840200FD84020041
:1084EC00018502000585020001230AE0002308E053
:1084FC00002306E0002304E0002302E0002300E058
:10850C000023184602B07047E00F00F0E80F00F0AF
:10851C0082B01D4B1B68B3F1FF3F0AD11B4B1B688C
:10852C00DBB201931A4B1B681B0903F00F0300937A
:10853C0005E0154B1B680193164B1B680093019BC0
:10854C00062B1DD1009B033B042B17D801A252F81C
:10855C0023F000BF75850200798502007D8502003D
:10856C00818502008585020001230AE0012308E0D1
:10857C00012306E0012304E0012302E0012300E0D3
:10858C000023184602B0704730010010E00F00F0D5
:10859C00E80F00F03401001082B0174B1B68DBB2FF
:1085AC000193164B1B681B0903F00F030093019BEF
:1085BC00062B1DD1009B033B042B17D801A252F8AC
:1085CC0023F000BFE5850200E9850200ED8502007D
:1085DC00F1850200F585020001230AE0002308E082
:1085EC00002306E0002304E0002302E0002300E067
:1085FC000023184602B07047E00F00F0E80F00F0BF
:10860C0082B01D4B1B68B3F1FF3F0AD11B4B1B689B
:10861C00DBB201931A4B1B681B0903F00F03009389
:10862C0005E0154B1B680193164B1B680093019BCF
:10863C00062B1DD1009B033B042B17D801A252F82B
:10864C0023F000BF65860200698602006D86020079
:10865C00718602007586020001230AE0012308E0FE
:10866C00012306E0012304E0012302E0012300E0E2
:10867C000023184602B0704730010010E00F00F0E4
:10868C00E80F00F03401001082B0174B1B68DBB20E
:10869C000193164B1B681B0903F00F030093019BFE
:1086AC00062B1DD1009B033B042B17D801A252F8BB
:1086BC0023F000BFD5860200D9860200DD860200B9
:1086CC00E1860200E586020001230AE0002308E0AF
:1086DC00002306E0002304E0002302E0002300E076
:1086EC000023184602B07047E00F00F0E80F00F0CE
:1086FC0082B0174B1B68DBB20193164B1B681B092E
:10870C0003F00F030093019B062B1DD1009B033B31
:10871C00042B17D801A252F823F000BF3D870200AA
:10872C004187020045870200498702004D870200FD
:10873C0001230AE0002308E0002306E0002304E004
:10874C00002302E0002300E00023184602B070472B
:10875C00E00F00F0E80F00F082B01D4B1B68B3F186
:10876C00FF3F0AD11B4B1B68DBB201931A4B1B68F2
:10877C001B0903F00F03009305E0154B1B680193D5
:10878C00164B1B680093019B062B1DD1009B033BD2
:10879C00042B17D801A252F823F000BFBD870200AA
:1087AC00C1870200C5870200C9870200CD8702007D
:1087BC0000230AE0002308E0012306E0012304E083
:1087CC00012302E0012300E00023184602B07047A9
:1087DC0030010010E00F00F0E80F00F03401001041
:1087EC0082B01D4B1B68B3F1FF3F0AD11B4B1B68BA
:1087FC00DBB201931A4B1B681B0903F00F030093A8
:10880C0005E0154B1B680193164B1B680093019BED
:10881C00062B1DD1009B033B042B17D801A252F849
:10882C0023F000BF45880200498802004D880200F1
:10883C00518802005588020001230AE0012308E058
:10884C00012306E0012304E0012302E0012300E000
:10885C000023184602B0704730010010E00F00F002
:10886C00E80F00F03401001082B01D4B1B68B3F10F
:10887C00FF3F0AD11B4B1B68DBB201931A4B1B68E1
:10888C001B0903F00F03009305E0154B1B680193C4
:10889C00164B1B680093019B062B1DD1009B033BC1
:1088AC00042B17D801A252F823F000BFCD88020088
:1088BC00D1880200D5880200D9880200DD88020028
:1088CC0001230AE0012308E0012306E0012304E070
:1088DC00012302E0012300E00023184602B0704798
:1088EC0030010010E00F00F0E80F00F03401001030
:1088FC0082B0154B1B680193144B1B680093019BB2
:10890C00062B1DD1009B033B042B17D801A252F858
:10891C0023F000BF35890200398902003D8902002D
:10892C00418902004589020000230AE0002308E087
:10893C00002306E0012304E0012302E0012300E010
:10894C000023184602B070473001001034010010AB
:10895C0082B0154B1B680193144B1B680093019B51
:10896C00062B1DD1009B033B042B17D801A252F8F8
:10897C0023F000BF95890200998902009D890200AD
:10898C00A1890200A589020000230AE0002308E067
:10899C00002306E0002304E0012302E0012300E0B1
:1089AC000023184602B0704730010010340100104B
:1089BC0008B5FFF7CDFF0346002B07D04FF010236F
:1089CC004FF08042D3F80832C2F8583500BF08BDCA
:1089DC0000BF044BD3F80034002BFAD000BF00BF0B
:1089EC00704700BF00E0014000B583B00190054A1C
:1089FC00019BC2F80435FFF7EBFF00BF03B05DF835
:108A0C0004FB00BF00E00140024B034A1A6000BFA8
:108A1C00704700BF182300200090D00308B5FFF763
:108A2C00FFFC0346002B06D0964B1B681B0A964A8C
:108A3C0003F01F031360FFF737FD0346002B02D032
:108A4C00924B934A1A60FFF763FD0346002B06D046
:108A5C00904B1B685B0B904A03F007031360FFF706
:108A6C009BFD0346002B05D08C4BDB688B4A23F017
:108A7C008073D360FFF7C4FD0346002B0ED04FF07C
:108A8C0080430022C3F80C214FF080430022C3F82E
:108A9C0010214FF080430022C3F83825FFF7F4FD76
:108AAC000346002B02D07E4B03221A60FFF720FEF8
:108ABC000346002B0BD07B4B05221A607A4B01220C
:108ACC001A607A4B00221A60794B3F221A60FFF72A
:108ADC0043FE0346002B76D04FF08053754AD3F8F3
:108AEC000434C2F820354FF08053724AD3F808345E
:108AFC00C2F824354FF080536E4AD3F80C34C2F8C8
:108B0C0028354FF080536B4AD3F81034C2F82C350B
:108B1C004FF08053674AD3F81434C2F830354FF015
:108B2C008053644AD3F81834C2F834354FF080536C
:108B3C00604AD3F81C34C2F840354FF080535D4A7C
:108B4C00D3F82034C2F844354FF08053594AD3F847
:108B5C002434C2F848354FF08053564AD3F82834A1
:108B6C00C2F84C354FF08053524AD3F82C34C2F82B
:108B7C0050354FF080534F4AD3F83034C2F8543547
:108B8C004FF080534B4AD3F83434C2F860354FF071
:108B9C008053484AD3F83834C2F864354FF08053C8
:108BAC00444AD3F83C34C2F868354FF08053414AFC
:108BBC00D3F84034C2F86C354FF080533D4AD3F8AB
:108BCC004434C2F87035FFF70BFE0346002B05D07A
:108BDC00394B1B68394A03F04F031360FFF744FE0F
:108BEC000346002B0DD04FF08043D3F8003403F034
:108BFC000103002B05D04FF080436FF00102C3F846
:108C0C000024FFF775FE0346002B05D02C4B1B6888
:108C1C002B4A43F4806313602A4BD3F88830294ADB
:108C2C0043F47003C2F88830BFF34F8F00BFBFF31B
:108C3C006F8F00BFFFF7BCFE4FF01023D3F800324C
:108C4C00002B05DB4FF01023D3F80432002B15DA80
:108C5C000120FFF7C9FE4FF010231522C3F80022A4
:108C6C00FFF7B6FE4FF010231522C3F80422FFF7CE
:108C7C00AFFE0020FFF7B8FEFFF7BEFBFFF7C4FE08
:108C8C0000BF08BD240300104035014074C00740EC
:108C9C000DF0ADBA440200103C050040F0ED00E0D0
:108CAC00A005004010560040885600401856004061
:108CBC001456004000C0004058020010E40E004062
:108CCC003C17004000ED00E06DDF704700BF184618
:108CDC0079DF704700BF18467DDF704700BF18462C
:108CEC0064DF704700BF184682B003460091ADF8B0
:108CFC000630BDF80630DAB2009B1A70BDF80630AB
:108D0C001B0A9AB2009B0133D2B21A700223184686
:108D1C0002B0704700B589B0039002911346ADF8CC
:108D2C000630029B1B8803F10902BDF806309A42FB
:108D3C0001D90C2353E004AB1846FFF7C5FF07908D
:108D4C00079B0693069B002B01D0069B47E0029BDA
:108D5C001B881A46039B134408221A70029B1B881B
:108D6C0001339AB2029B1A80029B1B881A46039B02
:108D7C0013441B221A70029B1B8801339AB2029B6C
:108D8C001A80029B1B881A46039B981804AB01336C
:108D9C000622194614F03CFF029B1B8806339AB23C
:108DAC00029B1A809DF8103023F00103DBB2002BDC
:108DBC0007D1029B1B881A46039B134400221A708E
:108DCC0006E0029B1B881A46039B134401221A706F
:108DDC00029B1B8801339AB2029B1A80002318460F
:108DEC0009B05DF804FB00B589B0039002910192C3
:108DFC00ADF80230039B1B78012B05D1039B5B78EC
:108E0C00002B01D1072391E0019B1B889A1CBDF814
:108E1C0002309A420ED8039B1B78012B0CD1019B7C
:108E2C001B881A46039B5B7813449A1CBDF80230CE
:108E3C009A4201D90C2379E0019B1B88BDF80220D2
:108E4C00D31A9BB2023BADF81C30BDF81C30ADF808
:108E5C001230019B1B880233029A13440DF112024B
:108E6C0011461846FFF738FF0690069B0593059BA5
:108E7C00002B01D0059B59E0039B1B78022B06D0DD
:108E8C00039B5B781A46BDF812309A4209D3BDF8A1
:108E9C001230BDF81C209A4203D309238DF81F30E1
:108EAC0016E008238DF81F30039B1B78012B0BD188
:108EBC00039B5B781A46BDF81C30934204D3039B8A
:108ECC005B78ADF8123003E0BDF81C30ADF8123011
:108EDC00BDF81230FE2B01D90C2327E0BDF812305F
:108EEC00DAB2019B1B881946029B0B440132D2B2A9
:108EFC001A70019B1B8801339AB2019B1A80019B4B
:108F0C001B881A46029B13449DF81F201A70019B64
:108F1C001B8801339AB2019B1A80019B1A88BDF8F9
:108F2C00123013449AB2019B1A800023184609B0E0
:108F3C005DF804FB00B589B0039002911346ADF8BF
:108F4C000630029B1B881A1DBDF806309A4201D9C7
:108F5C000C233AE00DF116031846FFF7B9FE079003
:108F6C00079B0693069B002B01D0069B2DE0029BD2
:108F7C001B881A46039B134403221A70029B1B88FE
:108F8C0001339AB2029B1A80029B1B881A46039BE0
:108F9C00134419221A70029B1B8801339AB2029B4C
:108FAC001A80BDF81620029B1B881946039B0B44A4
:108FBC0019461046FFF798FE03461A46029B1B887B
:108FCC0013449AB2029B1A800023184609B05DF82C
:108FDC0004FB84B0029101921A4603468DF80F30BF
:108FEC001346ADF80C30019B1B88DA1CBDF80C3015
:108FFC009A4201D90C2328E0019B1B881A46029B3C
:10900C00134402221A70019B1B8801339AB2019BF4
:10901C001A80019B1B881A46029B134401221A706A
:10902C00019B1B8801339AB2019B1A80019B1B8800
:10903C001A46029B13449DF80F201A70019B1B8843
:10904C0001339AB2019B1A800023184604B0704772
:10905C0084B0029101921A4603468DF80F301346E4
:10906C00ADF80C30019B1B88DA1CBDF80C309A4211
:10907C0001D90C2328E0019B1B881A46029B134440
:10908C0002221A70019B1B8801339AB2019B1A8031
:10909C00019B1B881A46029B13440A221A70019BDF
:1090AC001B8801339AB2019B1A80019B1B881A46BC
:1090BC00029B13449DF80F201A70019B1B880133EF
:1090CC009AB2019B1A800023184604B0704700B571
:1090DC008FB0039001930B468DF80B3013468DF82F
:1090EC000A3000238DF83330109B1B88ADF83030DC
:1090FC0000230D9370E0039B5A680D9B9B001A4450
:10910C0005AB106818600DF11B0105AB0022184669
:10911C00FFF7E6FD0A900A9B0993099B002B01D0EF
:10912C00099B7BE09DF81B309DF80A209A4250D198
:10913C009DF83330002B01D0002300E002238DF882
:10914C002330109B1B881A469DF81B301A449DF83F
:10915C0023301A44BDF844309A4201DD0C235DE003
:10916C009DF8333083F00103DBB2002B16D0109B3B
:10917C001B8801339AB2109B1A80109B1B881A46CD
:10918C00019B13449DF80B201A70109B1B88013314
:10919C009AB2109B1A8001238DF83330109B1B88D8
:1091AC001A46019B1A440DF11B0105AB1846FFF73B
:1091BC0097FD0A900A9B0793079B002B01D0079BF6
:1091CC002CE0109B1B889DF81B2013449AB2109B1B
:1091DC001A800D9B01330D93039B1B881A460D9B24
:1091EC00934288DB9DF83330002B16D0109B1A88E5
:1091FC00BDF83030D31A9BB2013BADF82E30BDF820
:10920C002E30FF2B01D90C2308E0BDF83030019A29
:10921C001344BDF82E20D2B21A70002318460FB09A
:10922C005DF804FB00B58BB0059003930B468DF8ED
:10923C00133013468DF812309DF81310BDF83430EE
:10924C0001930C9B0093039B02220598FFF73FFFB1
:10925C000990099B0893089B002B01D0089B14E0F4
:10926C009DF81210BDF8343001930C9B0093039BB6
:10927C0010220598FFF72BFF0990099B0793079B7A
:10928C00002B01D0079B00E0002318460BB05DF8C3
:10929C0004FB82B00190019B1B88052B0AD9019B12
:1092AC001B88B3F5486F07D9019B1B884FF6FF72DB
:1092BC00934201D0072325E0019B5B88052B0AD93B
:1092CC00019B5B88B3F5486F07D9019B5B884FF610
:1092DC00FF72934201D0072314E0019B1B884FF6C9
:1092EC00FF7293420DD0019B5B884FF6FF72934245
:1092FC0007D0019B1A88019B5B889A4201D90723EE
:10930C0000E00023184602B0704700B587B0039008
:10931C0002910192ADF80230019B1B889A1DBDF899
:10932C0002309A4201D90C234BE00398FFF7B1FFAE
:10933C000590059B0493049B002B01D0049B40E0FB
:10934C00019B1B881A46029B134405221A70019B31
:10935C001B8801339AB2019B1A80019B1B881A4609
:10936C00029B134412221A70019B1B8801339AB280
:10937C00019B1A80039B1A88019B1B881946029B30
:10938C000B4419461046FFF7AFFC03461A46019BE7
:10939C001B8813449AB2019B1A80039B5A88019B29
:1093AC001B881946029B0B4419461046FFF79CFC80
:1093BC0003461A46019B1B8813449AB2019B1A80E0
:1093CC000023184607B05DF804FB00B587B0039086
:1093DC0002910192ADF80230039B9B8802330593F6
:1093EC00019B1B881A46059B13449A1CBDF802303E
:1093FC009A4201D90C2353E0059BFE2B01D90C2377
:10940C004EE0059BDAB2019B1B881946029B0B446C
:10941C000132D2B21A70019B1B8801339AB2019BA4
:10942C001A80019B1B881A46029B1344FF221A7058
:10943C00019B1B8801339AB2019B1A80039B1A88EB
:10944C00019B1B881946029B0B4419461046FFF7DB
:10945C004BFC03461A46019B1B8813449AB2019B92
:10946C001A80039B9B88002B19D0039B9B68002BB5
:10947C0001D1072314E0019B1B881A46029B981804
:10948C00039B9968039B9B881A4614F0C1FB019BB4
:10949C001A88039B9B8813449AB2019B1A80002361
:1094AC00184607B05DF804FB00B589B00390029133
:1094BC000192ADF80230039B9B6A002B01D107236C
:1094CC0071E000238DF81F3065E0039B996A9DF8CD
:1094DC001F2013465B0013449B000B440693069B12
:1094EC009B8802330593059BFE2B01D90C235AE074
:1094FC00059BDAB2019B1B881946029B0B44013277
:10950C00D2B21A70019B1B8801339AB2019B1A804C
:10951C00019B1B881A46029B134416221A70019B4E
:10952C001B8801339AB2019B1A80069B1A88019BF7
:10953C001B881946029B0B4419461046FFF7D4FBB7
:10954C0003461A46019B1B8813449AB2019B1A804E
:10955C00069B9B88002B19D0069B9B68002B01D186
:10956C00072320E0019B1B881A46029B9818069B38
:10957C009968069B9B881A4614F04AFB019B1A8833
:10958C00069B9B8813449AB2019B1A809DF81F304E
:10959C0001338DF81F30039B93F82C309DF81F205E
:1095AC009A4292D30023184609B05DF804FB00B52B
:1095BC0095B005900491039200231393039B1B8891
:1095CC00ADF84A30039B00221A80059B93F82D308E
:1095DC00002B0ED0BDF84A301A4603990498FFF7B9
:1095EC0099FB1390139B1193119B002B01D0119B92
:1095FC00D8E0059B9B78002B0ED0BDF84A301A465C
:10960C0003990498FFF796FC1390139B1093109BEF
:10961C00002B01D0109BC5E0059BDB78002B10D0F4
:10962C00059BDB7858B2BDF84A30039A0499FFF7D2
:10963C00D0FC1390139B0F930F9B002B01D00F9B0F
:10964C00B0E0059B5B68002B11D0059B5B6893F920
:10965C000000BDF84A30039A0499FFF7F9FC139007
:10966C00139B0E930E9B002B01D00E9B9AE0059B37
:10967C001B89002B14D0059B03F10800BDF84A3060
:10968C000193039B0093049B06220221FFF7CAFD62
:10969C001390139B0D930D9B002B01D00D9B81E020
:1096AC00059B1B8A002B14D0059B03F11000BDF801
:1096BC004A300193039B0093049B07220321FFF77D
:1096CC00B1FD1390139B0C930C9B002B01D00C9BA6
:1096DC0068E0059B1B8B002B14D0059B03F1180035
:1096EC00BDF84A300193039B0093049B152214216F
:1096FC00FFF798FD1390139B0B930B9B002B01D042
:10970C000B9B4FE0059B1B6A002B0FD0059B186A27
:10971C00BDF84A30039A0499FFF7F7FD1390139B99
:10972C000A930A9B002B01D00A9B3BE0059B5B6ACA
:10973C00002B0FD0059B586ABDF84A30039A049948
:10974C00FFF743FE1390139B0993099B002B01D049
:10975C00099B27E0059B93F82C30002B0ED0BDF80D
:10976C004A30039A04990598FFF79EFE1390139BB9
:10977C000893089B002B01D0089B13E0059B1B78DA
:10978C00002B0ED0BDF84A30039A04990598FFF7C8
:10979C002AFB1390139B0793079B002B01D0079B6D
:1097AC0000E0139B184615B05DF804FB86B00390DF
:1097BC0001921A460B46ADF80A3013468DF8093063
:1097CC00039B002B02D0019B002B01D100235BE0FB
:1097DC000023ADF816300CE0BDF81630039A134494
:1097EC001B781A46BDF8163013449BB20133ADF802
:1097FC001630BDF816305A1CBDF80A309A420FDAF2
:10980C00019B1B88BDF816209A42E5D3BDF8163093
:10981C000133039A13441B789DF809209A42DBD13B
:10982C00BDF81620BDF80A309A4201D300232BE074
:10983C00BDF816300233ADF81430BDF81630039A6B
:10984C0013441B78002B07D0BDF81630039A134431
:10985C001B78013B9BB200E00023ADF81230BDF841
:10986C001230002B08D0BDF81420BDF812301A4469
:10987C00BDF80A309A4201DD002305E0019BBDF8DA
:10988C0014201A80BDF81230184606B0704700B587
:10989C0085B001900B46ADF8023013468DF80130BF
:1098AC000023ADF80C309DF8013003AABDF802106E
:1098BC000198FFF77BFF0346ADF80E30BDF80E3074
:1098CC00002B01D1002304E0BDF80C301A46019B9B
:1098DC001344184605B05DF804FB72DF704700BFF7
:1098EC00184673DF704700BF184674DF704700BF1F
:1098FC00184682B00190019B93F83034184602B0A0
:10990C00704784B00190002303930AE0019A039BF3
:10991C0013441B78002B01D0012306E0039B013379
:10992C000393039B052BF1D90023184604B0704711
:10993C0082B003468DF807309DF807305A1C074B50
:10994C0083FB02135910D317C91A0B469B000B4407
:10995C00D11ACBB2184602B0704700BF6766666674
:10996C0082B001900091009BDB7B012B04D1009B0A
:10997C009A88019BA3F8242400BF02B0704700B55D
:10998C0085B001900091019B002283F82E24009B4E
:10999C009A88019BB3F824349A4216D1019B1B7907
:1099AC0083F00103DBB2002B0FD00121019800F0F2
:1099BC00B1FA0390039B002B07D0019B9B6B002BF0
:1099CC0003D0019B9B6B0398984700BF05B05DF8D3
:1099DC0004FB00B585B001900091009B1B88262BE1
:1099EC001ED1009B1B7A012B03D0009B1B7A022BF0
:1099FC0017D1019B9B781846FFF79AFF034619462F
:109A0C00019800F087FA0390039B002B09D0019B6F
:109A1C009B6B002B05D0019B9B6B0398984700E038
:109A2C0000BF05B05DF804FB00B585B001900B4696
:109A3C008DF80330019B03F227431846FFF761FFB3
:109A4C0003468DF80F309DF80330013B032B33D8C0
:109A5C0001A252F823F000BF759A0200999A0200F5
:109A6C00AD9A0200B99A0200019B9B79002B0DD094
:109A7C00019B93F8243083F00103DBB2002B05D05B
:109A8C009DF80F30002B01D0012316E0019BDB79F0
:109A9C00002B05D09DF80F30002B01D002230CE0D9
:109AAC00019B1B7A002B01D0032306E0019B5B7A00
:109ABC00002B01D0042300E00023184605B05DF80C
:109ACC0004FB00BF82B001900091019B012283F83E
:109ADC003120019B0022C3F82024019B03F2264273
:109AEC00009B5A60009B00229A60009B02221A7015
:109AFC00009B80229A810023184602B0704782B0E6
:109B0C0001900091019B022283F83120019B93F874
:109B1C002430002B03D0009B07221A7002E0009B1C
:109B2C0003221A70019B1B699AB2009B9A81019BBC
:109B3C000022C3F82024019B03F22642009B5A60AA
:109B4C00019BDA68009B9A600023184602B07047AC
:109B5C0000B583B00190019B5B79002B0FD0019B6A
:109B6C0093F82E3483F00103DBB2002B07D001985D
:109B7C00FFF7BFFE0346002B01D0012300E00023BA
:109B8C0003F00103DBB2184603B05DF804FB00B52B
:109B9C0085B001900B468DF80330019BD3F810046F
:109BAC00019BB3F8143401221946FFF770FE0390A1
:109BBC00039B002B03D0039B9DF803201A70019B81
:109BCC0003F15400019B03F58261019B3C331A465F
:109BDC00FFF783FE0346184605B05DF804FB00B59D
:109BEC0085B001900091019B5A69009B9A60019B82
:109BFC009B699AB2009B9A81019B93F82430002BAD
:109C0C0004D0019B062283F83C2003E0019B012237
:109C1C0083F83C200198FFF79BFF0346002B13D0E1
:109C2C00009B02221A7504210198FFF7B0FF0390E4
:109C3C00039B0293029B002B01D0029B0FE0019B24
:109C4C00052283F8312003E0019B032283F83120A5
:109C5C00019B03F58262019BC3F820240023184664
:109C6C0005B05DF804FB00B585B001900091019B37
:109C7C00DA69009B9A60019B1B6A9AB2009B9A81DD
:109C8C00019B93F82430002B04D0019B062283F80F
:109C9C003C2003E0019B012283F83C200198FFF754
:109CAC0057FF0346002B13D0009B02221A75042188
:109CBC000198FFF76CFF0390039B0293029B002B10
:109CCC0001D0029B0FE0019B062283F8312003E0B8
:109CDC00019B042283F83120019B03F58262019BD6
:109CEC00C3F820240023184605B05DF804FB82B0AD
:109CFC000190019B9B78002B06D0019B93F82030A0
:109D0C00002B01D000230AE0019B9B6A042B03D09B
:109D1C00019B5B6A042B01D1002300E00123184650
:109D2C0002B0704784B00190019B93F82430002B53
:109D3C0003D0EE23ADF80E3002E01F23ADF80E3049
:109D4C00BDF80E30184604B0704782B001900B4637
:109D5C008DF80330019B9DF8032083F8302000BF61
:109D6C0002B0704730B587B001900091009B002B7A
:109D7C0002D0019B002B01D10E23B8E0009B78335D
:109D8C001846FFF7B4FF034683F00103DBB2002B48
:109D9C0001D00723ABE0019B00229A70019A009B33
:109DAC00141D03F178050FCD0FC40FCD0FC495E82A
:109DBC00070084E80700019B002283F83020009BF9
:109DCC00D3F8A420019B5A63009BD3F8A820019BD5
:109DDC009A63019B4FF6FF72A3F82424019B03F5B1
:109DEC008262019BC3F82024019B03F226430722C5
:109DFC000021184613F03EFF019B1B7883F00103F2
:109E0C00DBB2002B03D0019BFF2283F85420019B73
:109E1C0003F15502019BC3F810240198FFF782FF50
:109E2C0003461A46019BA3F814240098019B03F1E6
:109E3C005501019B03F214431A46FFF7B8FB05903A
:109E4C00059B0493049B002B01D0049B4FE0019BCA
:109E5C0003F23122019BC3F818240198FFF762FF2B
:109E6C0003461A46019BA3F81C24009B03F13C00FB
:109E7C00019BD3F81814019B03F21C431A46FFF7FD
:109E8C0096FB0590059B0393039B002B01D0039B32
:109E9C002DE0019B012283F85120019B9B699AB212
:109EAC00019BA3F84820019B012283F83C20019BD5
:109EBC0000221A64019B002283F85020019B5A69EE
:109ECC00019B5A64019B03F15400019B3C331A46DD
:109EDC000021FFF702FD0590059B0293029B002BCE
:109EEC0001D0029B03E0019B01221A70059B1846CE
:109EFC0007B030BD82B00190019B1B68012B03D0D1
:109F0C00019B1B68022B01D1012300E000231846A2
:109F1C0002B0704700B585B001900B468DF8033048
:109F2C00019B1B7883F00103DBB2002B01D00823CB
:109F3C0009E1019B9DF803209A70019B03F22643D3
:109F4C0007220021184613F095FE019B9B79002BEC
:109F5C0003D0019B9B78012B0FD0019BDB79002B4D
:109F6C0003D0019B9B78012B07D0019BDB79002B45
:109F7C0014D0019B9B78022B10D1019B5B6B002BA7
:109F8C0008D0019B012283F82D24019B5B6B0820D8
:109F9C00984703E0019B002283F82D249DF80330A1
:109FAC0019460198FFF740FD03461A46019B9A702B
:109FBC00019B5B6B002B20D0019B9B78032B03D068
:109FCC00019B9B78042B18D1019B5B79002B14D03F
:109FDC00019B93F82E3483F00103DBB2002B0CD0E1
:109FEC00019B002283F83024019B012283F82F244B
:109FFC00019B5B6B0720984703E0019B002283F8D1
:10A00C002F24019B3C3318220021184613F032FEFA
:10A01C00019B012283F83C20019B2C331846FFF74F
:10A02C0069FF0346002B06D0019BDB6ADAB2019B69
:10A03C0083F8512003E0019B012283F85120019BFE
:10A04C0093F82430002B12D0019B28331846FFF7CD
:10A05C0051FF0346002B06D0019B9B6ADAB2019B91
:10A06C0083F8522003E0019B012283F85220019BCC
:10A07C00002283F85020019B9B78042B31D801A23D
:10A08C0052F823F0E5A00200A5A00200B5A0020042
:10A09C00C5A00200D5A00200019B3C3319460198D3
:10A0AC00FFF710FD03901DE0019B3C33194601980E
:10A0BC00FFF725FD039015E0019B3C3319460198F1
:10A0CC00FFF78DFD03900DE0019B3C331946019881
:10A0DC00FFF7C9FD039005E0019B002283F83120B6
:10A0EC0000E000BF019B9B78002B20D0019B03F16B
:10A0FC005400019BD3F82014019B3C331A46FFF704
:10A10C00ECFB0390039B002B01D0039B1BE0019BFA
:10A11C0093F85420019B93F8303019461046FFF702
:10A12C00E0FB0390039B002B01D0039B0BE0019BF6
:10A13C005B6B002B06D0019B5B6B019A92F8312074
:10A14C00104698470023184605B05DF804FB00BF85
:10A15C0000B585B001900091009B0393019B1B8877
:10A16C00262B10D0262B13DC102B02D0112B05D054
:10A17C000EE001990398FFF7F3FB0AE001990398AD
:10A18C00FFF7FDFB05E001990398FFF722FC00E0C7
:10A19C0000BF00BF05B05DF804FB00B585B00190B1
:10A1AC00019B93F854301846FFF79FFB019B01224B
:10A1BC0083F82E24019B002283F83024019B00227B
:10A1CC0083F8502006210198FFF7E1FC0390039BD4
:10A1DC000293029B002B01D0029B12E0019B9B7807
:10A1EC0019460198FFF796FE0390039B002B07D0AE
:10A1FC00019B9B6B002B03D0019B9B6B0398984797
:10A20C000023184605B05DF804FB75DF704700BFEE
:10A21C00184676DF704700BF18467ADF704700BFDC
:10A22C0018467BDF704700BF1846000084B0034619
:10A23C00ADF806300023039316E00F49039A13463A
:10A24C009B0013449B000B441B88BDF806209A42CC
:10A25C0007D1039A13469B0013449B00064A1344F0
:10A26C0006E0039B01330393039B002BE5D00023F3
:10A27C00184604B0704700BFE82A002082B0019055
:10A28C000B46ADF80230019BBDF802201A80019BF1
:10A29C0000221A72019B054903F10A020B4603CBFB
:10A2AC001060516000BF02B0704700BF182B002037
:10A2BC0082B00190019B4FF6FF721A8000BF02B072
:10A2CC00704788B00390029111461A460B46ADF8C0
:10A2DC0006301346ADF80430039B9B881A46BDF834
:10A2EC00063013440793039B9B881946039B9B885A
:10A2FC00BDF80620934228BF13469BB2CB1A069397
:10A30C00039BDB881A46BDF8043013440593039B6A
:10A31C00DB881946039BDB88BDF80420934228BFD9
:10A32C0013469BB2CB1A0493029B5A88039B1B883F
:10A33C009A4205D3029B5A88039B5B889A4201D9A7
:10A34C0000231CE0029B9B881A46069B934205D86F
:10A35C00029B9B881A46079B934201D200230EE076
:10A36C00029BDB881A46049B934205D8029BDB8830
:10A37C001A46059B934201D2002300E001231846A4
:10A38C0008B0704700B583B00190064B9B69002B59
:10A39C0003D0044B9B690198984700BF03B05DF84C
:10A3AC0004FB00BFFC2A002000B585B003460091D9
:10A3BC00ADF80630BDF8063000991846FFF725FFBA
:10A3CC000390039B002B05D0039B112B02D0039809
:10A3DC00FFF7D8FF039B002B0CBF01230023DBB23C
:10A3EC00184605B05DF804FB00B589B00190019BDF
:10A3FC000793079B9BB21846FFF718FF0690069B26
:10A40C00002B42D0069B1A7A224B1B7B9A4215D208
:10A41C00079B9AB2069B0A3319461046FFF7C4FFF6
:10A42C0003468DF813309DF81330002B2DD0069B6E
:10A43C001B7A0133DAB2069B1A7226E0069B0022C5
:10A44C001A72144B1B7C002B0FD0079B9BB23B2129
:10A45C001846FFF7DEFE0590059B002B05D0059BEB
:10A46C00082B02D00598FFF78DFF0A4B5B69002B78
:10A47C000BD000238DF80C30079B9BB2ADF80E303F
:10A48C00044B5B6903AA1046984700BF09B05DF8FE
:10A49C0004FB00BFFC2A002030B587B00190019B63
:10A4AC00002B01D10E2353E02B4A019B14461D4671
:10A4BC000FCD0FC495E8070084E80700264B274A08
:10A4CC001A60019B1B68002B11D0019B1B6818465E
:10A4DC00FFF7A3FE0490049B002B01D0049B37E0F4
:10A4EC00019B1A681D4B1068516803C308E01B4898
:10A4FC00FFF797FE0490049B002B01D0049B27E0F0
:10A50C000023059320E0059A13469B0013449B00FF
:10A51C00134A134403930398FFF7CAFE059B5B0190
:10A52C00104A1A44039B5A60039B04330E4A0021C1
:10A53C0018460CF04DFC0490049B002B01D0032317
:10A54C0006E0059B01330593059B002BDBD0002314
:10A55C00184607B030BD00BFFC2A0020182B002085
:10A56C00E82A0020C82A0020F5A3020000B587B015
:10A57C0003460091ADF80630009B5B7A002B1AD194
:10A58C00009B1B7A002B03D1164B5B68059302E0F2
:10A59C00144B9B680593009B5B68BDF806200599DE
:10A5AC0018460CF04FFC0490049B002B16D004981A
:10A5BC00FFF7E8FE12E0009B00221A72094B5B6960
:10A5CC00002B0BD001238DF80C30BDF80630ADF804
:10A5DC000E30044B5B6903AA1046984700BF07B0C6
:10A5EC005DF804FBFC2A002000B585B00190019BAE
:10A5FC00DB7B8DF80F30019B9B88ADF80C309DF800
:10A60C000F30012B2CD14FF6FF70FFF70FFE02908D
:10A61C00029B002B03D10420FFF7B4FE21E0BDF810
:10A62C000C3019460298FFF729FE029B03F10A0031
:10A63C00019B03F110014FF6FF7340F2F312FFF789
:10A64C0040FE03461A46029B5A72074BDB89002BCD
:10A65C0007D1BDF80C3002991846FFF787FF00E0D0
:10A66C0000BF05B05DF804FBFC2A002000B587B0E4
:10A67C000190019B9B88ADF81630BDF8163018463A
:10A68C00FFF7D4FD0490049B002B0ED0049B5B6859
:10A69C0018460CF02FFC0390039B002B02D0039860
:10A6AC00FFF770FE0498FFF703FE00BF07B05DF8DC
:10A6BC0004FB000000B587B00190019B06330593A5
:10A6CC00059B1A88194BDB899A422BD1059B5B8918
:10A6DC00022B27D1019B9B88ADF81230BDF81230AC
:10A6EC001846FFF7A3FD0390039B002B1AD0059B84
:10A6FC000C33184600F0AEFB0346002B06D0BDF819
:10A70C00123003991846FFF731FF0BE0039B5B688F
:10A71C0018460CF0EFFB0290029B002B02D0029823
:10A72C00FFF730FE00BF07B05DF804FBFC2A0020E9
:10A73C0000B585B00190019B9B88ADF80E30BDF83B
:10A74C000E301846FFF772FD0290029B002B15D0BD
:10A75C00029B03F10A00019B03F108014FF6FF7302
:10A76C0040F2F312FFF7ADFD03461A46029B5A72F4
:10A77C00BDF80E3002991846FFF7F8FE00BF05B081
:10A78C005DF804FB00B583B001900091019B1B8820
:10A79C00502B12D0502B18DC122B12D0122B14DC95
:10A7AC00102B02D0112B04D00FE00198FFF71CFFE7
:10A7BC000CE00198FFF75AFF08E00198FFF77AFFC9
:10A7CC0004E00198FFF7B4FF00E000BF00BF03B046
:10A7DC005DF804FB30B58FB001900091002302931B
:10A7EC00009B002B1AD000230D9314E06B460D999F
:10A7FC0018460FF098F90346002B09D0029B5A1CFF
:10A80C0002920D9A92B25B0038336B4423F82C2CD5
:10A81C000D9B01330D930D9B132BE7D9019B1D460B
:10A82C0002AC0FCC0FC50FCC0FC594E8070085E820
:10A83C00070001980FB030BD00B583B00346ADF8EA
:10A84C000630BDF80630132B01D900230CE0BDF8FF
:10A85C000630194606480FF011F9BDF806301946B6
:10A86C0004480FF00BF90123184603B05DF804FB04
:10A87C00282B0020242B002000B585B00346ADF812
:10A88C000630002303930DE0039B9B00094A1344FD
:10A89C000433BDF80620114618460FF02BF9039B24
:10A8AC0001330393039B1D2BEED900BF00BF05B0F2
:10A8BC005DF804FB202B002000B583B00346ADF8F7
:10A8CC000630BDF80630194603480FF013F900BFE7
:10A8DC0003B05DF804FB00BF282B002030B59BB003
:10A8EC00184B9B68DB431893164B5A6818AB1146F0
:10A8FC0018460FF0EEF9189A6B4611461846FFF7FA
:10A90C0069FF0DAC6D460FCD0FC40FCD0FC495E88C
:10A91C00070084E80700002319930BE0199B5B00E8
:10A92C0068336B4433F8303C1846FFF7A5FF199B8E
:10A93C00013319930D9B199A9A42EFD300BF00BFB4
:10A94C001BB030BD202B002000B583B003468DF822
:10A95C0007309DF80730194603480FF0E4F803461A
:10A96C00184603B05DF804FB202B002000B583B023
:10A97C0001900B46ADF8023013468DF801309DF86E
:10A98C000130002B06D0BDF80230194601980FF0AB
:10A99C0075F805E0BDF80230194601980FF0AAF8D9
:10A9AC0000BF03B05DF804FB00B585B001900091C9
:10A9BC00019B9B88ADF80E30019B1B88103B0A2B2A
:10A9CC0000F2888001A252F823F000BF05AA020011
:10A9DC0041AA0200E1AA0200E1AA0200E1AA0200D7
:10A9EC00E1AA0200E1AA0200E1AA0200E1AA020027
:10A9FC00ABAA02004DAA0200FFF770FFBDF80E30A3
:10AA0C001846FFF719FF034683F00103DBB2002B56
:10AA1C0005D0324AF02104200BF0ECFD57E0019BED
:10AA2C00DB7B022B53D1BDF80E3019462C480FF0AE
:10AA3C0025F84CE0BDF80E301846FFF73DFF49E015
:10AA4C00019B1B7AC3F30313DBB28DF80D309DF819
:10AA5C000D30032B8CBF01230023DAB2BDF80E306E
:10AA6C0019462048FFF782FF9DF80D30022B8CBF52
:10AA7C0001230023DAB2BDF80E3019461A48FFF74D
:10AA8C0075FF9DF80D30012B8CBF01230023DAB22A
:10AA9C00BDF80E3019461548FFF768FF1AE0019B08
:10AAAC001B7A002B15D1019B5B7AC3F3C003DBB27D
:10AABC00002B14BF012300238DF80C309DF80C20C3
:10AACC00BDF80E3019460748FFF750FF01E000BFF4
:10AADC0000E000BF00BF05B05DF804FBE8E0030038
:10AAEC002C2B0020382B0020342B0020302B002066
:10AAFC0000B583B00346ADF80630BDF80630132B15
:10AB0C0001D9002306E0BDF80630194603480FF0C2
:10AB1C000AF80346184603B05DF804FB242B00200A
:10AB2C0000B585B00346ADF8063000238DF80F3024
:10AB3C00BDF806301846FFF7DBFF0346002B11D09B
:10AB4C00BDF8063019460A480EF0EDFF03468DF8A5
:10AB5C000E309DF80E30002B01D0022300E00123B3
:10AB6C008DF80F309DF80F30184605B05DF804FBDA
:10AB7C002C2B002000B585B00346ADF80630002321
:10AB8C008DF80F30BDF806301846FFF7B1FF0346BD
:10AB9C00002B11D0BDF8063019460A480EF0C3FF41
:10ABAC0003468DF80E309DF80E30002B01D0022399
:10ABBC0000E001238DF80F309DF80F30184605B0DA
:10ABCC005DF804FB282B002000B583B00346ADF8DC
:10ABDC000630BDF806301846FFF78AFF0346002BF7
:10ABEC0007D0BDF80630194604480EF09CFF03460A
:10ABFC0000E00023184603B05DF804FB302B002066
:10AC0C0000B583B00346ADF80630BDF806301846E3
:10AC1C00FFF76EFF0346002B07D0BDF80630194630
:10AC2C0004480EF080FF034600E00023184603B0F2
:10AC3C005DF804FB342B002000B583B00346ADF85F
:10AC4C000630BDF806301846FFF752FF0346002BBE
:10AC5C0007D0BDF80630194604480EF064FF0346D1
:10AC6C0000E00023184603B05DF804FB382B0020ED
:10AC7C0000B583B00190054B5A68019B11461846EC
:10AC8C00FFF7A8FD019803B05DF804FB202B002012
:10AC9C0000B583B0182107480EF05DFF0190019BB1
:10ACAC00182B01D1182301E0019BDBB2184603B02D
:10ACBC005DF804FB202B002000B583B003460A4648
:10ACCC00ADF8063013468DF805309DF80530184662
:10ACDC00FFF73AFE0346002B16D0BDF80630184697
:10ACEC00FFF706FF0346002B0ED09DF80530063308
:10ACFC009B00084A13440433BDF80620114618463D
:10AD0C000EF011FF034600E00023184603B05DF877
:10AD1C0004FB00BF202B002000B583B00346ADF828
:10AD2C0006300B468DF8053013468DF804309DF82F
:10AD3C0005301846FFF708FE0346002B15D0BDF86A
:10AD4C0006301846FFF7D4FE0346002B0DD09DF8B5
:10AD5C00053006339B00074A134404339DF8042046
:10AD6C00BDF806101846FFF701FE00BF03B05DF8F2
:10AD7C0004FB00BF202B002000B587B0039002918C
:10AD8C000192029B002B01D100231FE000230593AD
:10AD9C00039B002B19D00023049313E003AB0499FD
:10ADAC0018460EF0C0FE0346002B08D0049B9AB246
:10ADBC00029B019910469847059B01330593049B10
:10ADCC0001330493049B132BE8D9059B184607B059
:10ADDC005DF804FB00B585B00346029101928DF835
:10ADEC000F309DF80F301846FFF7AEFD034683F089
:10ADFC000103DBB2002B01D000230CE09DF80F30D7
:10AE0C00074A06339B0013445B68019A0299184663
:10AE1C00FFF7B2FF0346184605B05DF804FB00BF10
:10AE2C00202B002082B00190019B1B781AB2019B51
:10AE3C0001331B781B021BB213431BB29BB2184687
:10AE4C0002B07047AADF704700BF1846ABDF7047EF
:10AE5C0000BF184600B585B001900198FFF7E2FFDE
:10AE6C000346ADF80E30BDF80E3003F00103002B95
:10AE7C0014BF01230023DBB2184605B05DF804FBB8
:10AE8C0000B585B001900198FFF7CCFF0346ADF8F3
:10AE9C000E30BDF80E3003F00203002B14BF01235B
:10AEAC000023DBB2184605B05DF804FB00B585B095
:10AEBC000190009100238DF80F309DF80F305A1C33
:10AECC008DF80F201A46019B1344009A12781A70C1
:10AEDC009DF80F305A1C8DF80F201A46019B134415
:10AEEC00009A52781A709DF80F30022B0CBF012378
:10AEFC000023DBB20293029B002B04D1054A4721AD
:10AF0C0000200BF077FB9DF80F30184605B05DF86C
:10AF1C0004FB00BF40E1030000B583B00190009139
:10AF2C00009812F045FE03469AB2019B1A80019BD1
:10AF3C00009A5A6000BF03B05DF804FB82B0034670
:10AF4C0000918DF80730009A13786FF30303137098
:10AF5C00009A13786FF3071313709DF80730052BC5
:10AF6C005BD801A252F823F08DAF0200A3AF020010
:10AF7C00BDAF0200D7AF0200F1AF02000BB0020070
:10AF8C00009A13786FF303031370009A13786FF31E
:10AF9C000713137040E0009A1378012161F3030347
:10AFAC001370009A1378012161F30713137033E0C7
:10AFBC00009A1378012161F303031370009A13783C
:10AFCC00022161F30713137026E0009A1378012114
:10AFDC0061F303031370009A1378032161F30713D1
:10AFEC00137019E0009A1378022161F303031370B4
:10AFFC00009A1378012161F3071313700CE0009A87
:10B00C001378022161F303031370009A1378022161
:10B01C0061F30713137000BF00BF00BF02B070478D
:10B02C0000B595B0034602910192ADF80E30029B2B
:10B03C009B78002B03D101238DF81E3003E0029B7B
:10B04C009B788DF81E30029B1B88ADF81C3006AB2C
:10B05C0003220021184612F00DFE029B5B7C06AA0F
:10B06C0011461846FFF76AFF029B9A7C06AB013328
:10B07C0019461046FFF762FF029BDA7B9DF81A30E7
:10B08C0062F3C3038DF81A30029B1A7C9DF81A30B8
:10B09C0062F304138DF81A30029B1A7B9DF81A3058
:10B0AC0062F300038DF81A30029B1B7D002B01D03C
:10B0BC00022200E001229DF81A3062F342038DF85F
:10B0CC001A300DAB1C220021184612F0D3FD029B46
:10B0DC005B7B03F01003DBB2002B06D1029B5B7B86
:10B0EC0003F02003DBB2002B24D004AB032200219D
:10B0FC00184612F0BFFD029BDA7C04AB01331946F3
:10B10C001046FFF71BFF9DF81030012262F303037A
:10B11C008DF810309DF81030012262F307138DF872
:10B12C0010309DF81230012262F342038DF8123078
:10B13C0004AB1293029B5B7B8DF83430029B9B7BA0
:10B14C008DF8353008AB14220021184612F092FD10
:10B15C0007AB089306AB0993029B9B88ADF82C3088
:10B16C00029B9B68002B06D0029BDB88ADF8283035
:10B17C00029B9B680C93029B9B69002B4FD005ABE9
:10B18C0003220021184612F075FD029B9B691B8857
:10B19C00ADF83C30029B9B695B88ADF83E30029B5E
:10B1AC009B695B680E9305AB1193029B9B691B7BA0
:10B1BC0005AA11461846FFF7C1FE029B9B695A7BF4
:10B1CC0005AB013319461046FFF7B8FE029B9B698D
:10B1DC009A7A9DF8163062F3C3038DF81630029BF1
:10B1EC009B69DA7A9DF8163062F304138DF81630E9
:10B1FC00029B9B691A7A9DF8163062F300038DF856
:10B20C001630029B9B699B7B002B01D0022200E035
:10B21C0001229DF8163062F342038DF81630029B22
:10B22C00DB69002B02D0029BDB69109308AA0DA9E5
:10B23C00BDF80E00019BFFF705FE0346184615B03E
:10B24C005DF804FB00B58DB0034602910192ADF898
:10B25C000E3007AB14220021184612F00BFD029B96
:10B26C009B78002B03D101238DF81A3003E0029B4D
:10B27C009B788DF81A30029B1B88ADF8183006AB02
:10B28C000793029B9B7905AA11461846FFF756FEB9
:10B29C00029BDA7905AB013319461046FFF74EFED7
:10B2AC00029BDA789DF8163062F3C3038DF81630E2
:10B2BC00029B1A799DF8163062F304138DF8163040
:10B2CC00029B5A799DF8163062F300038DF8163004
:10B2DC00029B1B7A002B01D0022200E001229DF878
:10B2EC00163062F342038DF8163005AB0893029BBF
:10B2FC005B89ADF82430029B9B89ADF82630029B0C
:10B30C00DB89ADF82830029B1B690B9307A9BDF8AC
:10B31C000E30019A1846FFF799FD034618460DB0FA
:10B32C005DF804FBA0DF704700BF1846A1DF704733
:10B33C0000BF1846ADDF704700BF1846B3DF70473B
:10B34C0000BF1846B4DF704700BF184600B583B085
:10B35C000190019B002B03D106497220FBF748F8A2
:10B36C00019B00221A60BFF35F8F00BF00BF03B0C8
:10B37C005DF804FB98E1030000B585B00190019BDA
:10B38C00002B03D10A498520FBF732F801210198E3
:10B39C000EF040FC0390BFF35F8F00BF039B002BAC
:10B3AC000CBF01230023DBB2184605B05DF804FB8B
:10B3BC0098E1030000B583B00190019B002B03D1F1
:10B3CC000A499220FBF714F8019B1B68012B03D050
:10B3DC0006499320FBF70CF8BFF35F8F00BF019B6E
:10B3EC0000221A6000BF03B05DF804FB98E1030073
:10B3FC00024B00221A7000BF704700BF9C2B00202C
:10B40C0000B585B00190019B5B88184601F0ECFA01
:10B41C0003461A46019B9A800023039308E0084ACE
:10B42C00039B52F8233001989847039B01330393F5
:10B43C00039B002BF3D000BF00BF05B05DF804FBED
:10B44C001C23002082B00190019B9B79012B0BD116
:10B45C00019B1B79012B07D1019B5B8842F60212E1
:10B46C00934201D1012300E0002303F00103DBB27E
:10B47C00184602B0704700B589B003460091ADF88C
:10B48C00063003AB00221A605A609A60DA601A61C7
:10B49C0008238DF80C30BDF80630ADF80E30009B4B
:10B4AC00059303AB1846FFF7ABFF00BF09B05DF87F
:10B4BC0004FB000010B58AB00346ADF8063000233B
:10B4CC008DF8273003AB00221A605A609A60DA605C
:10B4DC001A61BDF80630ADF80E30BDF806304FF6E7
:10B4EC00FF72934261D0BDF80630184600F0C6FFDB
:10B4FC000890089B43F2020293424BD0089B43F204
:10B50C00020293422DD8089B112B11D0089B112BB2
:10B51C0027D8089B002B03D0089B0B2B0CD020E0CA
:10B52C000F238DF80C3003AB1846FFF769FF32E0A0
:10B53C0001238DF827302EE010238DF80C301C4A97
:10B54C001C4BD31ADB081B0443F00203BDF8062086
:10B55C001949184611F0D8F803AB1846FFF750FFFD
:10B56C0019E0134A134BD31ADB081B0443F00104F4
:10B57C00089810F019FB03461A46BDF806300F491F
:10B58C00204611F0D2F8BDF8063008991846FFF79E
:10B59C0072FF00E000BF0A4B19789DF82720BDF818
:10B5AC0006301846FFF7B8FB00E000BF0AB010BD2C
:10B5BC0090DE030008DE0300E4E1030064E2030014
:10B5CC00A52B002000B583B003460A46ADF8063023
:10B5DC0013468DF80530064B19789DF80520BDF8FB
:10B5EC0006301846FFF798FB00BF03B05DF804FB6C
:10B5FC00A42B002010B58AB00346ADF8063000230A
:10B60C008DF8273000238DF82630BDF8063018460B
:10B61C0000F04CFE0890089B43F20202934258D073
:10B62C00089B43F2020293423AD8089B862B17D010
:10B63C00089B862B34D8089B112B0DD0089B112B03
:10B64C002ED8089B002B03D0089B0B2B41D027E056
:10B65C0001238DF826303DE001238DF8273039E0A9
:10B66C0003AB00221A605A609A60DA601A610723F1
:10B67C008DF80C30BDF80630ADF80E301C4A1D4B61
:10B68C00D31ADB081B0443F00203BDF806201A4949
:10B69C00184611F039F803AB1846FFF7B1FE19E064
:10B6AC00134A144BD31ADB081B0443F0010408980B
:10B6BC0010F07AFA03461A46BDF806300F492046B8
:10B6CC0011F033F8BDF8063008991846FFF7D3FE91
:10B6DC0000E000BF9DF82720BDF806301146184643
:10B6EC00FFF770FF9DF8263018460AB010BD00BF5A
:10B6FC0090DE030008DE0300B8E20300F0E2030072
:10B70C0000B589B003460091ADF8063000238DF8E2
:10B71C001F300DF116031846FFF710FE0690069B1E
:10B72C00002B04D02A494FF49970FAF761FE0123DB
:10B73C00ADF81C3040E00223ADF808300023ADF822
:10B74C000A3004AB039304A9BDF81C300022184640
:10B75C00FFF7F8FD0690069B002B01D0069B32E00C
:10B76C009DF81F3083F00103DBB2002B09D0BDF82C
:10B77C00103042F60522934203D101238DF81F307D
:10B78C0015E09DF81F30002B11D0BDF8103042F69B
:10B79C00021293420BD1009B039302AABDF81C101A
:10B7AC00BDF806301846FFF7C5FD03460BE0BDF8A3
:10B7BC001C300133ADF81C30BDF81630BDF81C2020
:10B7CC009A42B8D30523184609B05DF804FB00BFB4
:10B7DC0030E3030010B58AB00346ADF80630012300
:10B7EC008DF8273000238DF82630BDF8063018462A
:10B7FC0000F0F4FE0890089B43F2014293426AD099
:10B80C00089B43F2014293426BD8089B112B29D819
:10B81C00089B112B65D801A252F823F07DB80200C9
:10B82C00EFB80200EFB80200EFB80200EFB8020068
:10B83C00EFB80200C9B80200EFB80200A9B80200C4
:10B84C00EFB80200EFB80200EFB80200EFB8020048
:10B85C00EFB80200EFB80200EFB80200EFB8020038
:10B86C0021B90200089B43F20202934254D038E003
:10B87C0003AB00221A605A609A60DA601A611123D5
:10B88C008DF80C30BDF80630ADF80E3001238DF874
:10B89C00263003AB1846FFF7B3FD3EE00DF10A026C
:10B8AC00BDF8063011461846FFF72AFF0890089B92
:10B8BC00002B03D1BDF80A30002B2ED100238DF8BC
:10B8CC002730BDF80630184601F08EF803461846AE
:10B8DC0000F0CCFE21E0BDF806301846FFF7EAFD7B
:10B8EC001BE0184A184BD31ADB081B0443F0010465
:10B8FC00089810F059F903461A46BDF8063013495A
:10B90C00204610F012FFBDF8063008991846FFF7D4
:10B91C00B2FD02E000BF00E000BF0D4B19789DF8AE
:10B92C002720BDF806301846FFF7F6F9094B1978B1
:10B93C009DF82620BDF806301846FFF7EDF900BF3C
:10B94C000AB010BD90DE030008DE030090E3030094
:10B95C00A62B0020A72B002000B583B00346009136
:10B96C00ADF80630BDF806301846FFF7A3FD00BF52
:10B97C0003B05DF804FB000008B5044B1B780022F3
:10B98C0003491846FFF726FA00BF08BDA52B002077
:10B99C0065B9020000B583B003460091ADF80630DE
:10B9AC000A48FFF7E9FC0346002B0CD0BDF8063023
:10B9BC001846FFF71FFE0346002B03D10348FFF781
:10B9CC00F9FC00E000BF03B05DF804FBA02B0020E5
:10B9DC0000B583B003460091ADF806300B4B1A78D6
:10B9EC00BDF8063011461846FFF766F9034683F09A
:10B9FC000103DBB2002B04D0BDF806301846FFF76C
:10BA0C00E9FE00BF03B05DF804FB00BFA72B0020CC
:10BA1C0008B5044B1B78002203491846FFF7DAF9E6
:10BA2C0000BF08BDA62B0020DDB9020000B583B015
:10BA3C000346ADF80630BDF80630184600F0AAFDF6
:10BA4C000346002B07D0064B1978BDF806300122AF
:10BA5C001846FFF761F900BF03B05DF804FB00BFA7
:10BA6C00A62B002000B587B003460091ADF8063038
:10BA7C0004AB04220021184612F0FCF842F6A6236F
:10BA8C00ADF8103001238DF812300D4B1B68039369
:10BA9C0003AA04A9BDF806301846FFF743FC05902D
:10BAAC00059B002B07D1074B1978BDF806300122F6
:10BABC001846FFF731F900BF07B05DF804FB00BF73
:10BACC00D0E30300A92B002000B585B00346ADF8E8
