:020000021000EC
:1090000000600020A1930100599301005B930100CF
:109010005D9301005F930100619301000000000077
:109020000000000000000000000000006393010049
:10903000659301000000000067930100699301003F
:10904000B9B101006B93010091B301006B93010072
:109050006B9301000000000041B201006B9301001E
:109060006B9301006B9301006B9301006B93010004
:109070006B9301006B9301006B9301006B930100F4
:109080006B93010071A301006B9301006B930100CE
:109090006B9301006B930100F9C301006B93010016
:1090A0006B9301006B9301000000000000000000C2
:1090B0006B9301006B9301000000000000000000B2
:1090C00000000000000000000000000000000000A0
:1090D0000000000000000000000000000000000090
:1090E0000000000000000000000000000000000080
:1090F0000000000000000000000000000000000070
:10910000000000000000000000000000000000005F
:10911000000000000000000000000000000000004F
:10912000000000000000000000000000000000003F
:10913000000000000000000000000000000000002F
:10914000000000000000000000000000000000001F
:10915000000000000000000000000000000000000F
:1091600000000000000000000000000000000000FF
:1091700000000000000000000000000000000000EF
:1091800000000000000000000000000000000000DF
:1091900000000000000000000000000000000000CF
:1091A00000000000000000000000000000000000BF
:1091B00000000000000000000000000000000000AF
:1091C000000000000000000000000000000000009F
:1091D000000000000000000000000000000000008F
:1091E000000000000000000000000000000000007F
:1091F000000000000000000000000000000000006F
:10920000344935480A1A02D0072291438D46334922
:1092100033480A1A06D00722914381F309880222B3
:1092200082F314882F483049304A00F041F8304822
:109230003049314A00F03CF830483149314A00F0B9
:1092400037F831483149324A00F032F83148324972
:10925000324A00F02DF832483249334A00F028F8FB
:1092600032483349334A00F023F833483349002267
:1092700000F029F832483349002200F024F832483F
:109280003249091A03F0ECFA314A90471F48204945
:10929000884205D00268043003B4904703BCF7E766
:1092A00000208646EC46002000212A4A9047FEE72F
:1092B000884207D0521A05D0037801300B70013173
:1092C000013AF9D17047884202D002700130FAE7C2
:1092D000704700000060002000580020006000205F
:1092E00000600020ECD40100181100208011002043
:1092F000E8930100E893010074C80100ECD4010078
:10930000181100201811002028C9010028C90100E7
:1093100028C9010028C9010028C9010028C9010085
:1093200028C9010028C90100E9D4010054D5010071
:1093300080110020801100208011002018190020C9
:1093400018190020181900201819002018210020D1
:10935000B793010029BD0100FEE7FEE7FEE7FEE747
:10936000FEE7FEE7FEE7FEE7FEE7FEE709480068E6
:10937000094909680A280AD1002908D10748026862
:109380006FF070031A404FF040031A43026000F080
:1093900009B800003001001034010010E40E004054
:1093A000FFF7E4BF0B484FF00701884385460A48A2
:1093B0008047FFF725BF094809490A4A884207D074
:1093C000521A05D0037801300B700131013AF9D1FE
:1093D000704700000060002049AC010028C901006E
:0893E0001811002018110020F3
:1093E800F0B595B01D46164608460C4601F033FB0D
:1093F8001A9B0D93CDE9086500252B46082205A97F
:1094080020460A958DF82C500C9501F040FB079BDF
:109418000293069B03939DF814308DF8115003F0C6
:109428000302012A1DD1BDF81420059DC3F3C20310
:10943800C2F383168DF81030B20008230EA9204617
:1094480001F025FBC5F3952508AB0093324602AB26
:109458000EA9284600F096FB204601F000FB15B047
:10946800F0BD022AF8D1BDF81650C3F3C203C5F304
:1094780089158DF810300827082D2E4628BF082694
:109488003B4632460EA9204601F001FBAD1B08AB56
:1094980002AA31460EA8374400F0D8FB002DEBD1C4
:1094A800DAE70000014B01221A7070478111002091
:1094B8007047000070B50E4D06460FCD88B06C465B
:1094C8000FC495E80F00002E84E80F00094A0A48E7
:1094D8004FF0060308BF00226946009301F0F0FD33
:1094E80008B100F00FFC054B1E7008B070BD00BF3E
:1094F80034C90100AD94010018110020801100202A
:1095080007B5044B0093044A4023FFF769FF03B0F3
:109518005DF804FB259501008211002038B50D483F
:109528000D4C0E4D002323700378EB5CD2B263B16F
:10953800043002F0A7FB08B100F0E4FB084B1B78ED
:1095480013B12378002BFCD038BD0C3002F056F94B
:10955800F1E700BF18110020811100200C1800202D
:109568008011002008B50848084A0378D35C3BB14D
:10957800043002F0EFFABDE808400020FFF79ABF78
:109588000C3002F0C5F8F6E7181100200C1800207E
:109598000120FFF78FBF000008B5FFF7F9FF044867
:1095A800042100F05FFA034B01225A7108BD00BF85
:1095B80018C901002C110020037813F0040215D0FB
:1095C80003F00303012B03D0022B09D001207047BD
:1095D8000B6802880233C2F3831213440B60F5E769
:1095E8000B684288023303EB9213F7E71046704783
:1095F8002DE9F04F434C87B0884600230546871C69
:109608000DF1070016468DF8073000F053FD62682B
:10961800C8F80020A36803F580739B1A04F21C485D
:1096280004F5836A04F21449BB4218D30021002EC2
:1096380064D005F00F05AD0145F0050565F30F0190
:1096480063689DF80700DAB203323B4444F82210FD
:10965800636000F053FD012007B0BDE8F08F0121E1
:10966800404600F0FCFE504600F011FF484600F06E
:109678000EFFA0680290C0B2033004EB800002A97C
:10968800FFF79AFF20BB029BDAB204EB8202D16893
:1096980003919A1C0133DBB204EB83030292D3F8E3
:1096A8000CB001F00303012B20D0022B13D083460A
:1096B800484600F0EFFE08B1029BA36059464046B9
:1096C80000F0CDFEA368626803F580739B1AABE7D0
:1096D8009DF80800D0E7BDF80E30C3F389130333B3
:1096E8004FEA1B4B02EB93030293E1E7BDF80C3002
:1096F800C3F383134FEA1B4B1344F5E7AD0545F05D
:1097080006019DE7C4110020064B074810B500224A
:109718001A7001F05CF9044610B9044801F0E6F942
:10972800204610BDC411002094C801007CC9010066
:1097380030B50A4C71B10A4A0A49121BD2080023F3
:109748009A4201D1002030BD31F82350854202D021
:109758000133F5E7034654F83300F4E7A8C80100DD
:1097680018C9010018110020094B013903EBC0008A
:10977800032909D8DFE801F0020A0406022070472D
:10978800007970474079704700207047042070477F
:10979800A8C8010070470000034BD3E90130C31A81
:1097A80058425841704700BFC41100202DE9F043CA
:1097B80087B0FFF7F1FF002874D1744CC4F818047F
:1097C800BFF34F8FA0680290C0B2033004EB800053
:1097D80002A9FFF7F1FE029B18B1D4F81824002A59
:1097E8005CD0DAB29F1C013304EB8202DBB204EBDB
:1097F8008303D268DB68049302F00303022B03920D
:10980800029758D1BDF80E306148C3F3891846460F
:10981800502E28BF502666F38F1306F10801ADF8C5
:109828000E3001F0ECF80546002800F0998001F0B0
:1098380012F9002303A90822284601F01EF9FB4368
:10984800DBB20133F9B20331B6EB830F4FEA830978
:1098580004EB81012CD908234A46A6EB09062846C1
:1098680001F00BF9F6B24B4909F10803324608F149
:109878000308284607EB980701F0FFF80297D4F889
:109888001834D4F81064002B55D0284601F0E7F8B6
:10989800FFF782FF80F00100C0B204E062689A42DC
:1098A80004D8A260002007B0BDE8F083D8B28CE7E6
:1098B80008233246DBE7012B52D1BDF80C3034487F
:1098C800C3F38311062928BF062161F389130231E6
:1098D80001F00F018900ADF80C3001F090F8054651
:1098E80000283DD001F0B7F80023082203A9284634
:1098F80001F0C3F80026BDF80C20C2F38312B300B0
:10990800B24203F10803BAD902994A1CC9B2033119
:10991800029204EB81010422284601F0AEF80136D8
:10992800E9E7F3685B7923B1336829461B68304659
:109938009847F3681E68002EF3D1284601F08FF887
:109948000DF107008DF8076000F0B4FBD4F8183467
:109958000BB9029BA3609DF8070000F0CFFB97E7C7
:10996800D4F8104454B90C4B0C480D49C01AC0081F
:10997800000440F0020000F05DF889E72368204603
:109988009B689847E3681C68ECE700BFC411002097
:1099980094C80100D0110020A8C80100D0C8010057
:1099A80065C901002DE9F34704460E46924601A910
:1099B800012218469946FFF71BFE1C4F10B3019D64
:1099C8004FF00008AA1CC84508EB020125D1184829
:1099D800002100F021FD80F31000000440EA14404B
:1099E800E4006B1C04F03804DBB2EDB244F001046F
:1099F80007EB8303033544EA881444EA8624D860D5
:109A080047F825403B781BB1FFF7D0FE0028FBD173
:109A1800FFF7C0FE02B0BDE8F087C9B207EB8101CD
:109A28005AF82830CB6008F10108CCE7C4110020AF
:109A3800E015002000231A46FFF7B4BF07B501233D
:109A4800019201AAFFF7AEFF03B05DF804FB07B56A
:109A5800CDE9002302236A46FFF7A4FF03B05DF8AF
:109A680004FB000030B50F4CD4F810240346002046
:109A7800114631B9D96808717AB9C4F810340A6046
:109A88000AE0C9680D79854201D00968F1E701301B
:109A98000A28EDD14FF0FF3030BDD26814680C6051
:109AA8001360F9E7C411002038B5084B0125D3F835
:109AB80010441D7004B938BDE3685D712368204601
:109AC8005B689847E3681C68F4E700BFC41100208E
:109AD80010B5037A052B0C460FD0437A23B1084AF8
:109AE8000849204600F039FD0749204600F035FDB9
:109AF8002046BDE8104000F025BD002AF8D0F3E765
:109B080088C901008DC90100ADC90100C38873B5BA
:109B180004460D4633B1144A00921449144A2846A3
:109B280000F01BFD217A05291CD0637A4BB1A0886F
:109B3800FFF71AFE0F4B104953F82020284600F073
:109B48000CFD227A0D4BA08853F822600021FFF704
:109B5800EFFD0B4903463246284602B0BDE8704087
:109B680000F0FBBC02B070BD88C9010098C90100B3
:109B780090C9010014CA01008DC9010038CA01004A
:109B8800B0C901002DE9F04385B01F460C9D0023A4
:109B980095F80C902B7306460C4690462946384695
:109BA800FFF7B4FFB8F1060F09D8DFE808F0041290
:109BB800181F283340003146284600F0CEFC00220A
:109BC80029463846FFF784FF85F80C9005B0BDE8B4
:109BD800F08322683146284600F0BFFCEFE7D4E95D
:109BE80000233146284600F0B8FCE8E7A368009354
:109BF800D4E900233146284600F0AFFCDFE7E368EC
:109C08000193A3680093D4E900233146284600F065
:109C1800A4FCD4E723690293E3680193A368009343
:109C2800D4E900233146284600F097FCC7E763696A
:109C3800039323690293E3680193A3680093D4E92B
:109C480000233146284600F088FCB8E708292DE9AA
:109C5800F84F80460E4617461C463BD8002593F819
:109C68000C901D7319461046FFF750FFDFF880A0CF
:109C7800DFF880B0AE422FD918F8052059462046A3
:109C880000F06BFC0135082DF4D11B49DFF86CB0EE
:109C9800204600F062FC4FF0000A564523D918F818
:109CA8000A507E2D1DD8284602F009FD002814BF51
:109CB8002A462E225946204600F04FFC0AF1010A96
:109CC800BAF1080FE9D1012221463846FFF700FF13
:109CD80084F80C90BDE8F88F5146204600F03DFC12
:109CE800D0E72E22E6E70649204600F036FCE5E7F5
:109CF800C0C90100BAC90100C4C90100C6C9010030
:109D0800C2C901001FB50021039001AA44F2010055
:109D1800CDE9011100F004F805B05DF804FB00007E
:109D280038B572B6FFF7C0FEFFF740FD0028FBD13B
:109D3800104B114C114D1249E41AE408240444F064
:109D48000100FFF777FED5F8F030DB0700D500BE3D
:109D58000C4944F00200FFF76DFEBFF34F8FEA682D
:109D6800094B02F4E0621343EB60BFF34F8F00BF6F
:109D7800FDE700BFA8C80100D0C8010000ED00E061
:109D880057CA010063CA01000400FA0510B5D0E9FA
:109D98000242D1E90203A04293412CBF01200020D6
:109DA80010BD000008B50A4800F0D9FA094AD2E9FE
:109DB8000031C018084BD3E9002341F1000190425B
:109DC80071EB030303D210F1807041F1000108BD6B
:109DD80034110020C0170020B8170020284B37B5D1
:109DE8001D780446002D3FD000283DD0FFF7DAFF4C
:109DF800D4E90223904299413AD300230DF1070098
:109E08008DF8073000F056F923692BB94FF0FF326F
:109E18004FF0FF33C4E902239DF8070000F06EF904
:109E2800D4E90530984700230DF107008DF8073075
:109E380000F040F923699DF807009BB1D4E90212AC
:109E4800B2F1FF3F08BFB1F1FF3F0BD05B1842F101
:109E58000002C4E9023200F051F90A48214600F034
:109E680062FE02E000F04AF90025284603B030BD42
:109E7800B3F1FF3F08BFB2F1FF3FF5D0EDE700BFF8
:109E8800C817002070CA010013B5114B1149186892
:109E9800019008231048582200F070FA044698B937
:109EA8000E4A0F4801A900F04BF9044660B90C4866
:109EB800012100F037FA01230A4A0948194600F03F
:109EC80099F9094B01221A70204602B010BD00BF53
:109ED80086CA01006017002050170020019F01006A
:109EE80034110020FFFF7F00C8170020014800F050
:109EF80036BA00BF341100202DE9F743074600F0B9
:109F080019FA40B1634AD2E9003113F1807341F183
:109F18000001C2E900310021384600F01AFA38B1D0
:109F28005D4C236823B12068FFF758FF00232360A6
:109F38000121384600F00DFA20B1FFF733FF574BE7
:109F4800C3E900015648544E01A900F02AFA4FF01F
:109F5800FF344FF0FF35A0B9DFF848814E4C40463A
:109F680000F0F7FD002800F08A80D0E90223B3F161
:109F7800FF3F08BFB2F1FF3F36D1404600F0E3FD96
:109F8800EDE70378012B21D0022B09D1DFF81481EA
:109F9800404600F0D8FD20BB434B01221A700CE06C
:109FA8005BB94168D1E90223B3F1FF3F08BFB2F1C1
:109FB800FF3F02D03B4800F0B6FD01A9384800F049
:109FC8001BFA01A9364800F0ECF9C4E74168336888
:109FD800994202D100233360EFE7324800F0BCFD1C
:109FE800EBE7C0E90245D3E7216891B12168D1E9DF
:109FF800020182428B412CD22368D3E90223B3F1B8
:10A00800FF3F08BFB2F1FF3F03D02168404600F090
:10A018008AFD404600F097FDD0E902590646FFF751
:10A02800C1FE281A69EB0109012879F1000915DB3D
:10A03800B0F5350F10D3FFF759FF1C4A02441C48EE
:10A048004FF49603002100F0F5F878B9236893B12E
:10A05800266003B0BDE8F0832A46F0E714480021E3
:10A0680000F06DF93046FFF7B9FE01E00D28F9D090
:10A078000023236073E7384600F0B4F8E8E7064B9E
:10A088001B68002BE5D1384603B0BDE8F04300F06B
:10A09800ADB800BFC0170020CC170020B8170020AB
:10A0A8005017002070CA0100C8170020FFFFB40035
:10A0B8003411002070B5EFF3108672B60C4A94681C
:10A0C800012384B993600B4B0B4DD3F880102940C2
:10A0D8001160C3F88050D3F8841051604FF0FF32FC
:10A0E800C3F884202346037006B962B670BD00BF6A
:10A0F800D017002000E100E0FC06FFBD084B9A687D
:10A1080010B55AB150B9EFF3108172B6054A1C6800
:10A1180014605C685460986001B962B610BD00BFF5
:10A12800D017002000E100E00346405882B028B173
:10A1380000225A505B580193019B012002B07047DE
:10A1480070B5204B4579204E43F825201F4B204AF7
:10A1580006EBC5059B1ADB08044618042B7933B1B6
:10A1680040F002001B49FFF765FC082070BD23681A
:10A178000A88C3F8082594F904308A78002B4FEA36
:10A188004212D2B219DB1449CD1885F800230122F6
:10A198005D0903F01F0302FA03F341F825306379E0
:10A1A80006EBC3020121117140F003000B4946F888
:10A1B8003340FFF73FFC0020D8E7094903F00F03BD
:10A1C800CA54ECE7E4170020DC170020E0C80100BF
:10A1D800A8C801008ACA010000E100E0ACCA010079
:10A1E80014ED00E0036801221A6070470368012239
:10A1F8005A60704773B501F15005AD000068ADB203
:10A208004FF480348C400026C0F80843C0F8484317
:10A21800465101F5A8714559019522F07F42019DEB
:10A2280040F82120C0F844430BB1C0F8044302B001
:10A2380070BD00002DE9F74F0D4622F07F440268FB
:10A248004FF4803705F150068F408046B60002EB88
:10A258008500C2F84873B6B2C2F80873D2F804157C
:10A2680099464FF0000BD0F84035C0F8401542F839
:10A2780006B05B1A9259009223F07F43012B009A93
:10A288004FEA850A0CD1264B4FF4806043F0010356
:10A298009847D8F8003043F806B09B590193019BC2
:10A2A800D8F80020D2F80465C2F84473A31B23F041
:10A2B8007F43012B1CD11A4B05F5A875013443F0D7
:10A2C800010342F825404FF480609847D8F80030E1
:10A2D800D3F804359E4209D1D8F800300020C3F8DD
:10A2E8004473C3F8047303B0BDE8F08F0D20FAE798
:10A2F8009244C9F1FF13CAF84045D2F80405211A5F
:10A30800013921F07F4103F57F438B42EED30029C9
:10A31800E2D10134CAF84045D2F804359842DAE768
:10A32800C0CA010003680222C3F8442309B1C3F874
:10A338000423704700684FF48271FFF7F5BE4FF4AD
:10A34800803303FA01F10368C3F84813C3F808130C
:10A35800704750318900006889B2FFF7E5BE03688D
:10A36800D3F8040570470000024B034A1B681068C5
:10A37800184700BFE4170020DC17002010B561B1B2
:10A38800B2FBF3F403FB1424A4B244B9C0E90014EB
:10A3980084608281C381204610BD0E20FCE709201D
:10A3A800FAE737B550E8023F1FFAA3F5C488A5427B
:10A3B80002BFBFF32F8F00220DE0C4892544848992
:10A3C800A54228BF2D1BC3EA054540E80254002CCE
:10A3D800E8D14FF001028DF803200193019A0A6039
:10A3E8009DF8031001F0FF0321B1006800EB124053
:10A3F80003B030BD1846FBE70A884B889A4209D15A
:10A4080050E8022FC2EA224240E80223002BF7D18B
:10A41800012070470020704710B5034653E8000F2D
:10A428000A4643E8002494F0000FF7D110BD10B598
:10A43800034653E8002F42EA010043E8000494F081
:10A44800000FF6D110BD10B5034653E8000F00EA1F
:10A45800010243E8002494F0000FF6D110BD10B5B6
:10A46800034653E8002F02EB010043E8000494F090
:10A47800000FF6D110BD10B5034653E8002FA2EB2C
:10A48800010043E8000494F0000FF6D110BD01214B
:10A49800FFF7CDBF0021FFF7D6BF10B590B1D0E9C7
:10A4A800012301689B1ADBB20A60013BDBB2FF2B78
:10A4B800026802D10020107110BD11684C1C146094
:10A4C8000B70F2E70E20F7E773B5054600240DF18F
:10A4D80007008DF80740FFF7EDFD2A6869681368E3
:10A4E8008B420ED9591E116013F8010CAB68EC6849
:10A4F8002E8A5B1A1179DBB2994238BF137106FBB9
:10A5080000449DF80700FFF7F9FD204602B070BD32
:10A5180037B5054600230DF107000C468DF80730C6
:10A52800FFF7C8FD2A681368591C1160EA68A41A65
:10A538002A8AB4FBF2F41C709DF80700FFF7DEFDD1
:10A5480003B030BD826810B504462AB1436901687A
:10A55800006998470023A36010BD0EB403B50399A2
:10A5680021B104AB01AA019300F076F802B05DF8BE
:10A5780004EB03B070470A2938B504460D4602D1EA
:10A588000D21FFF7F8FFA3682268591CA160D55474
:10A59800D4E901329A4204D32046BDE83840FFF797
:10A5A800D1BF38BD2DE9F84F9946DDE90A43154674
:10A5B800824688460A460127AA420FD24F4538BF2D
:10A5C8004F4613F0010B01D164B900240126B9F1FB
:10A5D800010F1CD909F1FF396E43F8E70137B2FBC7
:10A5E800F5F2E9E79B0710D5B9F1000F14BF202653
:10A5F8003026BC42EAD9013C31465046FFF7BBFF42
:10A60800002CE2D0BC42F6D1E0E72026F1E7B8FB07
:10A61800F6F39D42E0D9DFF83C90B8FBF6F35046DC
:10A6280019F8031006FB1388FFF7A5FF3346AB4262
:10A63800B6FBF5F6F1D2BBF1000F00D034B9BDE896
:10A64800F88F20215046013CFFF795FFBC42F8D80F
:10A65800F5E700BFC6CA01002DE9F74F06461746C1
:10A668008846002900F06C8118F8011B49B9337B32
:10A67800002B00F06581304603B0BDE8F04FFFF7CE
:10A6880061BF252940F09380002598F800102D29F6
:10A69800424608F1010806D0302907D02B2908D1F5
:10A6A80045F00405F1E745F00105EEE745F0020540
:10A6B800EBE72A2943461AD13B681A1D1C683A6001
:10A6C800424613782E2B21D101324FF0000A4FF069
:10A6D8000A0C104610F8011BA1F1300EBEF1090F4B
:10A6E80016D80CFB0A11A1F1300A0246F1E7002442
:10A6F80013F8011CA1F130000928E2D80A2202FB54
:10A708000411A1F130041A460133F1E74FF0000AB1
:10A7180012F8011B01F0FB0068289046F8D0782950
:10A7280009D86F290CD863293DD021D825293ED0D6
:10A73800582900F0B18098F80030002B94D196E7A2
:10A7480070390829F7D801A252F821F01BA9010095
:10A758003FA701003FA70100B1A801003FA70100E2
:10A768008FA801003FA701003FA70100A1A8010091
:10A77800642901D06929DED13A68D2F800B0111DE8
:10A788008BEAEB723960A2EBEB724FF001090A21F8
:10A79800092A10DCD14538BFD1468CB90024BBF159
:10A7A800000F25DA4BE03B681A1D19783A603046ED
:10A7B800FFF7E1FEBFE709F10109B2FBF1F2E7E7B4
:10A7C800BBF1000F05F0020225DB680750D452B92F
:10A7D800E90740F1B18005F00302022A3FD1BAF13E
:10A7E800000F3CD10CE0BAF1000F05D0EA0717D5ED
:10A7F80069072AD52B2125E005F00302022A2ED16C
:10A80800A1452CD2013C30213046FFF7B4FE2CB3D1
:10A81800A145F7D123E0013C72B9EB070FD474B11D
:10A828004C45BCD9013C20213046FFF7A4FE002C42
:10A83800B4D0A145F6D1B2E7BAF1000FEDD1CBF112
:10A84800000B2D213046FFF796FE05F00302022A81
:10A8580005D1BAF1000F02D1002CD1D10024CDE9E5
:10A86800004553460A2259463046FFF79BFE62E7E9
:10A87800013C22B9E807BBD4002CD1D1B8E7BAF122
:10A88800000FB5D0F6E739680A1D3A60CDE90045F2
:10A8980053460A220968E7E739680A1D3A605346B1
:10A8A800CDE900451022F5E73B681A1D3A6015F01E
:10A8B8000105D3F8009024D1B9F1000F03D0484620
:10A8C80001F038FF0546AC421DD809F1FF3919F8E7
:10A8D800011F00293FF42FAF3046FFF74CFEF6E783
:10A8E80030460135FFF747FE19F805100029F7D162
:10A8F800A542BFF420AF20213046013CFFF73BFEC4
:10A90800F6E70025F0E720213046013CFFF733FE4B
:10A91800D9E73B681A1D3A60302130461C68FFF7BA
:10A928002AFE78213046FFF726FE00220823CDE9CB
:10A9380000322146102297E74C453FF673AF57E7A0
:10A9480003B0BDE8F08F00BF2DE9F84FB0F806A0BE
:10A958004579D2F800B09DF828900AFB05F5043D2A
:10A9680088460BEB0301A94203F1040488BFA5EB59
:10A97800030BB4FBFAF607460AFB1644C2F800B00C
:10A988004EB9AAEB04055D4528BF5D46BBF1000F33
:10A9980004D1BDE8F88F3F68013EF1E7043408EBC5
:10A9A80006003C442A46B9F1000F0DD02146ABEB16
:10A9B800050B01F0EFFEDA452E443F6855464FF08F
:10A9C800000428BF5D46E1E701462046EFE7FFF7B0
:10A9D80064BDF8B546790146721E054600239342C8
:10A9E8002D6803D30024A64202D8F8BD0133F6E748
:10A9F8000F682846FFF78CFD01343946F3E72DE947
:10AA0800F041078ACD1C0646FFF75EFD043F3D4432
:10AA18000446B5FBF7F5D0B14FF48073EDB2C780AB
:10AA28008380013D066080460027AF4210D2304641
:10AA3800FFF74AFD40B16379013363710137C8F804
:10AA4800000006608046F0E72046FFF7C2FF0024BA
:10AA58002046BDE8F08101210430FFF700BD10B5A4
:10AA6800012104460430FFF706FDC0B220B9204694
:10AA7800BDE81040FFF7ADBF10BD1FB5039200221F
:10AA8800009203AAFFF760FF05B05DF804FB1FB54D
:10AA980003920122009203AAFFF756FF05B05DF862
:10AAA80004FB41DF70470000064B10B500241C7002
:10AAB800054B1C60BFF35F8F0449054800F01FF881
:10AAC800204610BDF0170020F4170020D8CA010056
:10AAD800E817002008B501F071FC18B1BDE808407E
:10AAE800FFF7DFBF20BF40BF20BF08BD836800223B
:10AAF8005A60C3E904229A60DA601A607047D1E9A3
:10AB08000032934208BF00230160436070474368E6
:10AB180043B10268916852680B449342436004BF92
:10AB280000234360704770B5446806460D462068A8
:10AB380018B1B3682946984718B923682B6025606F
:10AB480070BD2468F3E74368186808B102681A60A2
:10AB580070474368186870474368186800B97047B9
:10AB6800884203D102681A600120704703460068D2
:10AB7800F4E7000010B50B4AA2F594739A4201D885
:10AB880000200CE0D11A091103EBC10453F831106D
:10AB9800814205D802D204F10803EFE7606810BDCE
:10ABA8002246EBE7D8CF010008B5FFF7E3FF024BD9
:10ABB800002808BF184608BDD8CF0100BFF34F8F43
:10ABC8000549064BCA6802F4E0621343CB60BFF341
:10ABD8004F8F00BFFDE700BF00ED00E00400FA055D
:10ABE8004FF0704393F8E02F062A09D1D3F8E83FD5
:10ABF800C3F30313033B042B02D8024AD05C70470B
:10AC080000207047FACF01004FF08053D3F830018D
:10AC1800421C04BF4FF0704393F8E00F062804D09D
:10AC2800A0F10A03584258417047012070470000BC
:10AC3800024AD2F80034002BFBD0704700E00140F4
:10AC48004FF0805310B5D3F830315C1C04BF4FF07F
:10AC5800704393F8E03F062B08D14FF08053A14A88
:10AC6800D3F82433C3F30423C2F84035FFF7B8FF01
:10AC780010B19D4B9D4A5A67FFF7C6FF48B14FF088
:10AC880080534FF08042D3F84432C3F34233C2F8C2
:10AC98003C35FFF7A5FF30B1954AD2F8FC3023F0D8
:10ACA8008073C2F8FC30FFF7AFFF40B14FF080432C
:10ACB8000022C3F80C21C3F81021C3F83825FFF788
:10ACC8008FFF20B14FF080430322C3F8A025FFF780
:10ACD80087FF60B1874B0522C3F810260122C3F80D
:10ACE80088260022C3F818263F22C3F814264FF0FE
:10ACF8008053D3F83021501C09BF4FF07043D3F86C
:10AD0800343193F8E02FD3F8E83F08BFC3F30313B7
:10AD1800062A4ED1033B042B03D8774AD35C002B79
:10AD280049D04FF08052754BD2F80414C3F820155F
:10AD3800D2F80814C3F82415D2F80C14C3F828154F
:10AD4800D2F81014C3F82C15D2F81414C3F830151F
:10AD5800D2F81814C3F83415D2F81C14C3F84015E7
:10AD6800D2F82014C3F84415D2F82414C3F84815AF
:10AD7800D2F82814C3F84C15D2F82C14C3F850157F
:10AD8800D2F83014C3F85415D2F83414C3F8601547
:10AD9800D2F83814C3F86415D2F83C14C3F868150F
:10ADA800D2F84014C3F86C15D2F84424C3F87025BF
:10ADB80001E00A2AB5D04FF08053D3F83031591C3E
:10ADC80004BF4FF0704393F8E03F062B09D14FF0D2
:10ADD80080534FF08042D3F8583203F04F03C2F843
:10ADE800E43EFFF711FF48B14FF08043D3F8002449
:10ADF800D20744BF6FF00102C3F800244FF080531C
:10AE0800D3F83021062A0ED1D3F83431033B042B72
:10AE180002D83B4AD35CBBB13A4AD2F83C3743F438
:10AE28008063C2F83C374FF08053D3F830210A2AA8
:10AE38000AD1D3F834313BB14FF08042D2F8E43E26
:10AE480043F00F03C2F8E43E4FF08053D3F83021AB
:10AE5800062A0FD1D3F83431033B042B02D82A4AEF
:10AE6800D35C3BB14FF01023D3F808224FF0804356
:10AE7800C3F858254FF01021D1F80032002B03DB1E
:10AE8800D1F80432002B17DA204901234FF01020A3
:10AE9800C1F804351524FFF7CBFEC0F80042FFF7D0
:10AEA800C7FEC0F80442FFF7C3FE0023C1F804350B
:10AEB800FFF7BEFEFFF782FED1F80C32DB070DD597
:10AEC80012480123C0F804350024FFF7B1FEC1F889
:10AED8000C42FFF7ADFEC0F80445E9E70C4B0D4AFC
:10AEE8001A6010BD0030014000C007400DF0ADBA37
:10AEF80000ED00E000500040F5CF010000C0004028
:10AF0800F0CF010000100040EBCF010000E001404D
:10AF18003C1100200090D00338B5074C051E04F101
:10AF2800080318BF1C4623682BB11A6822605B68A7
:10AF380028469847F7E738BD0018002020B9054B88
:10AF480001225A70FFF7E8BF012802D1014A907028
:10AF5800F8E77047F817002020B9034B01225A7010
:10AF6800FFF7DABF704700BFF817002038B50E4C5E
:10AF78002378B3B90D486360A3602361E36000F0F0
:10AF8800E7F8054601F01AFA08B900F0EDF80123D0
:10AF98002370074BD3F800340BB10123A370284664
:10AFA80038BD8525F5E700BFF817002045AF01003B
:10AFB8000000014037B50D4C00230DF107008DF856
:10AFC8000730FFF777F8E368013BE360E36833B9DC
:10AFD800074BD3F8005415B900F0D8F8A5709DF8C0
:10AFE8000700FFF78BF803B030BD00BFF81700204B
:10AFF80000000140012813B50CD0032820D038B92F
:10B00800134B0122C3F88020BFF34F8FBFF36F8F1C
:10B0180002B010BD0F4C00230DF107008DF807306A
:10B02800FFF748F823780BB9FFF7A0FFE3689DF80E
:10B0380007000133E3600123A370FFF75FF8E7E738
:10B0480000F092F802B0BDE81040FFF7B3BF00BFB0
:10B0580000E100E0F81700201FB503788DF80030F4
:10B068004368019383688DF80830C368054A0393E1
:10B07800054B684653F8213052F82110984705B01F
:10B088005DF804FB10180020141800201FB5037881
:10B098008DF800304368019383688DF80830C368E1
:10B0A800054A0393054B684653F8213052F821109E
:10B0B800984705B05DF804FB10180020141800200C
:10B0C800F0B5194B90F800C091F81DE043F82C201A
:10B0D800164B16460A6943F82C20154B0C4603F804
:10B0E8000CE007460FCC89B06D460FC594E80F00F9
:10B0F80085E80F00CDF810C0BEF1000F09D0002E72
:10B108000C4A694608BF3246381D00F067FC09B092
:10B11800F0BD002E084A694608BF324607F10C0008
:10B1280000F044FAF3E700BF1418002010180020BC
:10B138000C18002061B0010095B0010000F18040BA
:10B14800002382B0036003680193019B02B070473B
:10B15800044B0246187918B91A6001229A80704780
:10B168008520704718180020074B1A68D20704D4A6
:10B17800C02283F8002301221A604FF08043012285
:10B18800C3F81825704700BF00E100E04FF0804287
:10B1980008B50223C2F808334FF48270FFF7CEFFD8
:10B1A8000123D360D2F81834DB03FBD408BD0000B8
:10B1B8004FF0804110B5D1F8003163B14FF4807081
:10B1C800FFF7BCFF0D4B58790122C1F8082310B9CD
:10B1D8005A711B6898474FF08042D2F8043163B126
:10B1E8004FF48270FFF7AAFF0223C2F80833034B1B
:10B1F800BDE810401B680120184710BD1818002032
:10B2080000F1804000F5C040002382B0036003686D
:10B218000193019B02B07047800000F1A040D0F874
:10B22800003723F44033C0F80037D0F8003743EA3A
:10B238000143C0F8003770472DE9F34700244F4D0C
:10B2480001944FF48072012102F1804303F5C04359
:10B258001B68012B07D1D5F804330B4203D090B2F9
:10B26800FFF7CEFF0C430432B2F5907F4FEA41015D
:10B27800EAD1424BD3F87C31012BE2B229D14FF409
:10B28800BE70FFF7BDFF4FF0A043D3F82015019122
:10B29800C3F820150AB344F00044394F00250126AD
:10B2A800344210D0AB0003F1804303F5C043D3F818
:10B2B8001005D3F8101557F8253023B1C1F3014113
:10B2C800C0F3042098470135082D4FEA4606E7D118
:10B2D80001E0002AE1D1002C48DA294C4FF0A047C0
:10B2E800284D4FF00008012615F9013F5A1C31D0AE
:10B2F800C3F3C20108316944DAB211F8041C03F03F
:10B308003F0903F0070306FA03F3194222D009F5AF
:10B31800E073484657F82330C3F3014ABAF1020FE5
:10B328000CBF03210221FFF777FF06FA09F3C7F8DC
:10B33800203504EB090393F9303054F823304BB12E
:10B348009109032904D0BAF1020F12D1012901D1C0
:10B358004846984708F10108B8F1040FC4D1D7F856
:10B3680020350193C7F82035002BB9D102B0BDE8CC
:10B37800F087BAF1030FEDD10229E8E70060004039
:10B38800201800206F180020014B1B68184700BFC9
:10B398007C1800200E4B984213B50C4602D00020B2
:10B3A80002B010BD00230DF107008DF80730FEF73D
:10B3B80081FE084B9DF807001A791AB1FEF79EFE28
:10B3C8001120EDE701221C601A71FEF797FEE6E7EF
:10B3D800002000407C180020034B984201BF034B1B
:10B3E80000221A601A717047002000407C18002063
:10B3F8000023435082B043580193019B02B0704729
:10B408000A4610B54FF48E71FFF7F2FF136A916880
:10B41800C95C136A01331362C0F81C1510BD8B692F
:10B428000A4610B54FF4847123B9FFF7E1FFD0F84D
:10B43800183510BDFFF7DCFF536AD168D0F818053E
:10B44800C854536A01335362F3E700001FB5012360
:10B458008DF80030044BCDE90110D3E9001268469D
:10B46800904705B05DF804FB8418002030B54D4DB9
:10B47800D5F804339A0585B051D5D5F82431002B79
:10B488004DD04FF492712846FFF7B2FF4FF4017385
:10B49800C5F80833444B93F829200AB901226A6099
:10B4A800404902228DF80020D1F88024C1F8802478
:10B4B80003929A690292DA6801920022C3E906228D
:10B4C8006846D3E9001290473648D0F81C315BB182
:10B4D800354A5169136A99424DD992F82830002BA0
:10B4E80049D11146FFF78CFF2E48D0F84431002B84
:10B4F80056D04FF4A271FFF77BFF2B4B93F829200E
:10B508000AB1012202609A69002A49D0586AD968AA
:10B5180000229A6105B0BDE83040FFF797BFD5F823
:10B5280004335B07D0D5D5F80831002BCCD01E4C9E
:10B538001C482146FFF773FF636AA2699A42C3D188
:10B54800E369E1684BB1A3612369E3600023606AA2
:10B55800E3616362FFF77AFFB6E794F829300BB925
:10B5680001236B600F4B4FF40172C3F808230023CB
:10B57800606AA361EEE70B484FF48E71FFF738FF5E
:10B588005369002BB0D051690291002391688DF85E
:10B598000030019153616846D2E900139847A3E748
:10B5A80005B030BD00200040841800202DE9F84384
:10B5B800524D90F804802C2303FB0853064693F859
:10B5C8002A300C469146002B40F094804C49006884
:10B5D800FFF7E0FE0746002840F08E8021683368B8
:10B5E800481C0BD04FF0A04001228A40C0F8082523
:10B5F80001F5E0724FF0030C40F822C06068421C6D
:10B608001FBF00F5E0724FF0A04C4FF0000E4CF851
:10B6180022E0A269C3F8242594F814C0627DBCF125
:10B62800010F4CEA0202C3F86C25C3F81405C3F8ED
:10B638000C151DD1A1684A1C1FBF01F5E0724FF01F
:10B64800A0404FF0000C40F822C0E268501C0BD01C
:10B658004FF0A04C01209040CCF8080502F5E070AE
:10B668004FF0030E4CF820E0C3F80825C3F8101576
:10B678002C2303FB08F3EA18C2F804902269EA5065
:10B68800B9F1000F1ED03068227F4FF48E71FFF79A
:10B69800AFFE4FF4A271FFF7ABFE1A4BC0F80433AC
:10B6A80040F307335201002BD2B21EDB1649C818EB
:10B6B80080F800230122580903F01F0302FA03F35C
:10B6C80041F8203033680422C3F800252C2303FBFB
:10B6D80008530022C3E9062283F829205A6101226F
:10B6E80083F82A203846BDE8F883084903F00F0399
:10B6F800CA54E7E70827F5E71127F3E7841800207D
:10B7080075B401008000020000E100E014ED00E0E3
:10B71800F8B503680579304C0022C3F800252C22BF
:10B7280002FB05425268A2B12C4AC3F8082343F32E
:10B738000733002B0DDB5A09012103F01F03994041
:10B7480002F12003264A42F82310BFF34F8FBFF3BC
:10B758006F8F0068D0F80C65D0F81415D0F808354C
:10B76800D0F810254FF0FF37BE42C0F8147518BF47
:10B7780006F5E076C0F80C75C0F80875C0F81075C5
:10B788001EBF4FF0A0474FF0020C47F826C04E1CD2
:10B798001FBF4FF0A04601F5E071022746F821705F
:10B7A800511C1FBF4FF0A04102F5E072022641F87C
:10B7B80022605A1C1FBF03F5E0734FF0A04202211C
:10B7C80042F82310FFF708FE2C2303FB054400234F
:10B7D80084F82A306360F8BD8418002084020200CF
:10B7E80000E100E00279044B2C2101FB0233586987
:10B7F800003818BF01207047841800202DE9F84F41
:10B80800074690F8048089469346FFF7EBFF044605
:10B81800002839D11E4E2C2508FB056A4FF48E717D
:10B82800CAF814B0CAF820008AF828003868CAF89C
:10B838000890FFF7DDFD012383605146FFF7E0FD27
:10B84800DAF8043055460BBBDAF814402B6A9C42F0
:10B8580010D8D0F81C31002BFBD00123C360002086
:10B868002C2303FB086600237361BDE8F88F95F865
:10B8780028303BB9D0F81C31002BF8D05146FFF7DF
:10B88800BFFDE3E70F20EBE71120EEE72046ECE7EA
:10B89800841800200023435082B043580193019B31
:10B8A80002B070471FB501238DF80030044BCDE975
:10B8B8000110D3E900126846904705B05DF804FB13
:10B8C800B01800207FB5434AD2F82461002E60D01A
:10B8D80010464FF49271FFF7DDFF02238DF8003018
:10B8E800D2F88034C2F880340393D2F83C350293FE
:10B8F800394BDA6801920022C3E906226846D3E987
:10B90800001290473348D0F8443173B14FF4A27114
:10B91800FFF7C0FF304B9A693AB10022D0F83C05D6
:10B92800D968C3E90622FFF7BDFF2A48D0F82031BD
:10B93800ABB14FF49071FFF7ADFF0123C360264B05
:10B948005A6962B1D0F84C150291002299688DF8B5
:10B95800002001915A616846D3E9001290471D48BA
:10B96800D0F858319BB14FF4AC71FFF793FF1A4BE5
:10B978005A6962B1D0F84C150291002299688DF885
:10B98800002001915A616846D3E90012904704B03B
:10B9980070BDD2F81031002BB4D04FF48871104626
:10B9A800FFF778FF0C4BD2F83C0599698842A9D17A
:10B9B800DC69D96864B1D2F8005225F02005C2F8D4
:10B9C80000521A699C61DA60DE61FFF76BFF99E744
:10B9D8009C61FAE700200040B01800202DE9F843E8
:10B9E800574D90F80480242303FB0853064693F828
:10B9F80020300C469146002B40F09E80514900684B
:10BA0800FFF7C8FC0746002840F098802168336893
:10BA1800481C0BD04FF0A04001228A40C0F80825EE
:10BA280001F5E0724FF0030C40F822C06068421C38
:10BA38001FBF00F5E0724FF0A04C4FF0000E4CF81D
:10BA480022E0A269C3F8242594F814C0627DBCF1F1
:10BA5800010F4CEA0202C3F86C25C3F80C15C3F8B1
:10BA680014051DD1A1684A1C1FBF01F5E0724FF0F3
:10BA7800A0404FF0000C40F822C0E268501C0BD0E8
:10BA88004FF0A04C01209040CCF8080502F5E0707A
:10BA98004FF0030E4CF820E0C3F80825C3F8101542
:10BAA800242303FB08F3EA18C2F804902269EA5039
:10BAB800B9F1000F2AD03068227F4FF48871FFF760
:10BAC800E9FE4FF49071FFF7E5FE4FF49271FFF72E
:10BAD800E1FE4FF4A271FFF7DDFE4FF4AC71FFF702
:10BAE800D9FE194BC0F8043340F307335201002B39
:10BAF800D2B21CDB1549C81880F800230122580966
:10BB080003F01F0302FA03F341F8203033680822D8
:10BB1800C3F80025242303FB08550023C5E9063391
:10BB28006B61012385F820303846BDE8F883084961
:10BB380003F00F03CA54E9E70827F5E71127F3E7ED
:10BB4800B0180020CDB801001003420000E100E069
:10BB580014ED00E0F8B5424C0579242303FB0543B6
:10BB680002465B680068A3B13E4BC0F8083340F357
:10BB78000733002B0DDB5909012603F01F039E40F4
:10BB880001F12003384941F82360BFF34F8FBFF319
:10BB98006F8FD0F8003223F02003C0F8003224233E
:10BBA80003FB05439E692EB14FF4A271FFF772FEA5
:10BBB800012343604FF4AC71FFF76CFE0123C360AF
:10BBC800D0F85831002BFBD01EB1D0F84431002BEF
:10BBD800F6D00023C0F800351368D3F80C75D3F8F5
:10BBE8001465D3F80825D3F810154FF0FF3C6745C6
:10BBF800C3F80CC518BF07F5E077C3F814C5C3F838
:10BC080008C5C3F810C51EBF4FF0A0434FF0020C83
:10BC180043F827C0771C1FBF4FF0A04306F5E07616
:10BC2800022743F826704E1C1FBF01F5E0714FF044
:10BC3800A043022643F82160531C1FBF4FF0A043C6
:10BC480002F5E072022143F82210FFF7C5FB242316
:10BC580003FB0544002384F820306360F8BD00BF6F
:10BC6800B01800201003420000E100E00279044B04
:10BC7800242101FB02335869003818BF012070479E
:10BC8800B018002001F06043B3F1005F2DE9F047E0
:10BC980081460E46924636D190F80480FFF7E6FFBB
:10BCA800044690BB1B4FD9F80020242505FB0875D6
:10BCB8004FF490711046C5F814A0AE60FFF7EAFD86
:10BCC8004FF4AC71FFF7E6FD6B69C2F84465C2F842
:10BCD8004835012393606B68CBB9D2F82031D2F88C
:10BCE80058010343F9D060B90123D360D2F8583121
:10BCF800002BFBD0242303FB087700237B61BDE8DE
:10BD0800F0870F20F6E71020F9E71120F7E7204623
:10BD1800F5E700BFB018002072DF704773DF704787
:10BD280000B54FF4804193B00020FDF7EDFC08B159
:10BD3800FDF7E8FFFDF730FCFEF7A6F808B1FDF7C0
:10BD4800E1FFFEF7B1FE08B1FDF7DCFF00F0F8FAFD
:10BD580008B1FDF7D7FF002303A90120039300F0E2
:10BD68007BFB08B1FDF7CEFF03A800F00DFC08B17E
:10BD7800FDF7C8FF5923ADF80030234B02933C224E
:10BD88001723002103A8ADF8043000F035FD042383
:10BD98008DF80F301D4BCDF830D0182200211846F1
:10BDA80000F02AFD05220270A0228260184A03A82A
:10BDB80052F8041C00F0B2F808B1FDF7A3FF134ACB
:10BDC80014491548FFF7A8FF08B1FDF79BFF134B6F
:10BDD80013481449C01AC008000440F00300FDF7D6
:10BDE80029FE0D4B01211878FFF798FF044620B172
:10BDF800FDF788FF2046FDF785FFFDF7D7FC0028F3
:10BE0800FBD1FEF767FEF8E740110020F418002088
:10BE18005C1100205811002068110020A8C80100FA
:10BE2800D0C8010021D001006DDF704779DF70476D
:10BE38007DDF704764DF70472DE9F04F85B000263D
:10BE48000E9CBDF83CB0B4F800A00191074690469E
:10BE58001D46B1463A884A4505DC002E38D10020F7
:10BE680005B0BDE8F08F7A6852F8290003900022E7
:10BE78000DF10B0103A8FFF7DDFF0028F0D19DF8B5
:10BE88000B20424521D1228808EB02011EB15945F9
:10BE98000CDD0C20E4E702318B45FADB013292B26B
:10BEA800019B2280AB5422880132228022880DF126
:10BEB8000B012A4403A8FFF7BDFF0028D0D1218831
:10BEC8009DF80B200A442280012609F10109C1E7E7
:10BED8002388013BA3EB0A039BB2FF2BD9D805F8B3
:10BEE8000A30BCE72DE9F341089FBDF824801546C8
:10BEF800CDE90078022204461E46FFF79DFF50B99F
:10BF08003346102229462046CDE9087802B0BDE81C
:10BF1800F041FFF791BF02B0BDE8F0812DE9F04F85
:10BF280000231688138090F82D3085B007460D46FB
:10BF380014465BB3082E40F2B48102A8FFF774FFE1
:10BF4800002840F0E2802388DDF809100822EA542E
:10BF5800238801339BB21B222380EA5423880133B0
:10BF68009BB2EA182380E950BDF80D3093802388EE
:10BF78009DF8082006339BB2012A88BF012223803E
:10BF880094BFE854EA54238801332380BB7803B371
:10BF980023880433B34200F2848102A8FFF746FFE6
:10BFA800002840F0B28023880322EA542388013312
:10BFB8009BB219222380EA542388BDF80820013354
:10BFC8009BB2E9182380EA54120A4A702388023384
:10BFD8002380FA78A2B12388D91CB14200F261818A
:10BFE8000221E954238801339BB201212380E954BB
:10BFF80023880B449BB22380EA5423880B44238074
:10C008007B68B3B193F900202388D91CB14200F2B0
:10C0180048810221E954238801339BB20A212380F5
:10C02800E954238801339BB22380EA5423880133DF
:10C0380023803B89002B5DD13B8A53B1CDE9004673
:10C048002B460722032107F11000FFF74BFF0028BA
:10C058005BD13B8B53B1CDE900462B461522142109
:10C0680007F11800FFF73EFF00284ED13A6A002A70
:10C078004ED1D7F82480B8F1000F31D0B8F8043089
:10C088002188981C8A1C0244B24200F20A81FE28C8
:10C0980000F2078103336B54238801339BB2FF22DC
:10C0A8002380EA54238801339BB22380B8F8002008
:10C0B800EA54E918120A4A702088023080B22080B7
:10C0C800B8F8042062B1D8F80810002900F0EB8015
:10C0D800284400F05FFB2388B8F804201344238029
:10C0E80097F82C30002B59D13B78002B40F09880E2
:10C0F80000200AE0CDE900462B460622022107F17E
:10C108000800FFF7EFFE002896D005B0BDE8F08FD5
:10C11800B4F800C00CF10603B34200F2C2801188E3
:10C12800052940F2C0806FF4486E01EB0E039BB204
:10C138004FF27D3E734540F2B6805388052B40F29E
:10C14800B2806FF44860181880B2704540F2AB8036
:10C158004FF6FF70814202D0994200F2A480052375
:10C1680005F80C30238801339BB212212380E9544F
:10C17800238801339BB223801188E954E818090AFF
:10C188004170238802339BB223805288EA54E9180D
:10C19800120A4A702388023323806AE7BB6A002B9D
:10C1A80000F081804FF000094FF00C0A4FF0160B99
:10C1B80097F82C305FFA89F2934295D9B96A0AFB4D
:10C1C80002F201EB0208B8F80430981CFE2868D87F
:10C1D800208803332B54238801339BB2238005F82E
:10C1E80003B0238801339BB223808A5AEA54E918A2
:10C1F800120A4A702088023080B22080B8F80420E1
:10C208005AB1D8F8081000294DD0284400F0C2FAD5
:10C218002388B8F804201344238009F10109C7E7EB
:10C228003A88012A3FD02288901CB04239D8012B85
:10C2380004D17B78023313449E4232D3023EB61AAD
:10C24800B6B202A92844ADF80860FFF7F1FD00284E
:10C258007FF45BAF3978BDF80830022914D1B342B6
:10C268001DD9ADF808600821BDF80830FE2B18D894
:10C2780022880133AB542288013292B22280A95419
:10C2880022881344238033E77A78934201D8B34253
:10C2980005D90129E5D1964228BF1646E1E70921CB
:10C2A800E2E70C2031E707202FE710DF7047000096
:10C2B80013B5044609496846FEF721FC019808B9F8
:10C2C80002B010BDD0E900312046984718B1684641
:10C2D800FEF71DFCF2E71120F2E700BF54D0010081
:10C2E80013B5044607496846FEF709FC019B0BB9DC
:10C2F80002B010BD2046D3E9002190476846FEF7FA
:10C3080006FCF3E748D001000B4991F81623EC230B
:10C3180052091341DB0706D5084B9A683AB94FF41E
:10C3280080030B60704742F20200FDF7EBBC1A680D
:10C3380042F480021A60704700E100E0D017002044
:10C34800F7B5194F3C786CBB184E0125204635705F
:10C35800FFF7AEFF112821D02046FFF7C1FF144B8D
:10C368008DF80340186801900DF10300FDF7A2FE57
:10C37800104901A8FFF799FF0446B0FA80F0400978
:10C3880038709DF80300FDF7B9FE44B90A4B3470C4
:10C398001C70FFF7B9FF2846FFF7A2FF00242046CC
:10C3A80003B0F0BD0824FAE70E1900200C1900208C
:10C3B80068D00100299D01000D190020014B187853
:10C3C800704700BF0E19002007B508496846FEF7F8
:10C3D80096FB019B13B903B05DF804FBD3E9002079
:10C3E80090476846FEF793FBF3E700BF3CD0010097
:10C3F800FFF7EABF60DF704769DF704761DF7047AA
:10C4080030B5134B1B7891B0FBB1124D34240DF1AC
:10C41800020103A8ADF80240FFF7F0FF70B9294602
:10C4280001A8FEF76CFB029B002BF0D003A8D3E910
:10C438000021904701A8FEF76AFBF4E7052804D01D
:10C4480011B0BDE83040FDF75DBC11B030BD00BF94
:10C458000F19002098D201001FB50C46002900F0E2
:10C4680081800023CDE901333F4A039301230A6009
:10C478008DF804008DF8063001A906232020ADF8B8
:10C488000830FFF7B9FF60B1FEF78EFB3749384B2C
:10C498005B1ADB081B040246364943F00100FDF72E
:10C4A800CDFA00232268039301A94020CDE9013386
:10C4B800FFF7A2FF60B1FEF777FB2C492C4B5B1A04
:10C4C800DB081B0402462C4943F00100FDF7B6FACD
:10C4D80000232268039301A90120CDE90133FFF766
:10C4E8008BFF60B1FEF760FB2049214B5B1ADB082C
:10C4F8001B040246214943F00100FDF79FFA00237F
:10C50800CDE902332268F82301A9A1200193FFF79E
:10C5180073FF60B1FEF748FB1449154B5B1ADB0843
:10C528001B040246164943F00100FDF787FA002371
:10C538002268039301A9A020CDE90133FFF75CFF2E
:10C5480010B9002004B010BDFEF72EFB0749084BB8
:10C558005B1ADB081B0402460A4943F00100FDF799
:10C568006DFAEEE70E20EDE718110020A8C80100CB
:10C57800F8C801006CD00100B2D00100FED0010063
:10C588004AD101009BD10100F8B506460768FFF7BC
:10C5980031FF3368BB4205461DD9194B194C1A495E
:10C5A800E41AE408240444F002042046FDF742FAA1
:10C5B800336816493A462046FDF749FA4FF080534A
:10C5C8003268D3F80C3112499B0203F100539A1ACE
:10C5D8002046FDF733FA25B90E4B01221A7028467A
:10C5E800F8BD2846FEF7E0FA0549064B5B1ADB085A
:10C5F8001B040246084943F00100FDF71FFAEEE765
:10C60800A8C80100F8C80100EED101001DD2010040
:10C618004ED201000F19002078D201004BDF70477D
:10C628001FB50E4C01A8FFF7F9FF70B9214602A803
:10C63800FEF765FA039B002BF4D00198D3E900219B
:10C64800904702A8FEF763FAF4E7052804D004B07F
:10C65800BDE81040FDF756BB04B010BDB0D20100D4
:10C66800002A04BF002070478446097848B2002891
:10C6780044BF6FF001007047BCF1000F18BFCCF841
:10C6880000100021C3E90011002818BF01207047DD
:10C698007F298EBF6FF0010001700120704741F6BD
:10C6A8001012C2F200021368002B02BF41F26C1391
:10C6B800C2F2000313605A68926812681047092191
:10C6C800FFF7EDBF7F2884BF002070474DF25C4222
:10C6D800C0F20102105C4DF2DC42C0F20102515C72
:10C6E80008407047A0F161011A2938BF2038704707
:10C6F800A0F141011A2938BF203070477F2884BF34
:10C70800002070474DF25C42C0F20102105C4DF20D
:10C71800DC42C0F20102515C08407047A0F161019F
:10C728001A2938BF20387047A0F141011A2938BFAB
:10C7380020307047411C82070CD010F8012B3AB307
:10C74800820707D010F8012B12B3820702D010F825
:10C75800012BEAB14FF0013C50F8042BCCFA52F30C
:10C768007BB950F8042BCCFA52F353B950F8042B88
:10C77800CCFA52F32BB950F8042BCCFA52F3002B15
:10C78800EAD004381BBAB3FA83F300EBD3000130C4
:10C79800401A70475AB3844690EA01039B071FD199
:10C7A800830707D011F8013B00F8013B013AF7D1A4
:10C7B8001CE08446203A09D32DE9F007B1E8F807D0
:10C7C800A0E8F807203AF9D2BDE8F0071C3205D4F2
:10C7D80051F8043B40F8043B043AF9D2043205D03E
:10C7E80011F8013B00F8013B013AF9D16046704766
:10C7F80000220B0011001A0084465AB3830704D0A4
:10C8080000F8011B013AF9D124E0C9B241EA01213B
:10C8180041EA0141202A11D3203A2DE9F0030B46C1
:10C828000C460D460E460F4688468946A0E8FA0390
:10C83800203AFBD2BDE8F00320320BD0042A05D3FE
:10C8480040F8041B043A05D0042AF9D200F8011B69
:10C85800013AFBD160467047072904D90023024AF0
:0CC86800C0E90031106070471419002076
:08C8740061AF010000000000AB
:08C87C00FDAF01000000000007
:10C8840009C401000000000029C6010000000000E6
:10C894007C160020441700204C170020841600202A
:04C8A4001800000078
:10C8A80005D00100000000000BD0010000000000CE
:10C8B80012D001000000000016D0010000000000A6
:10C8C8001BD001000000000076C90100000003032E
:10C8D8004CCA0100000000007CCA010000000000F2
:10C8E800FFCF01000000000060D00100000003033A
:10C8F800A4D2010000000303BCD20100000003031E
:10C90800E4CA010000000000EDCA010000000000B8
:10C9180028C901000000000054C901002C110020A2
:10C92800099501006D950100B9940100FFFFFFFF13
:10C93800FFFFFFFFFFFFFFFFFFFFFFFF00000000FB
:10C94800000000000000D601060100007561727445
:10C958005F6C6F675F6261636B656E640042616301
:10C968006B656E647320666C7573686564006170CE
:10C9780070000000FC1500207F000000E415002076
:10C988001B5B306D002573001B5B313B33316D0041
:10C9980025734C6F67732064726F7070656420280C
:10C9A80025642925730D0A003C25733E2025733A1A
:10C9B8002000202530327800202020007C002563CC
:10C9C800001B5B313B33306D001B5B313B33326DF9
:10C9D800001B5B313B33336D001B5B313B33346DE4
:10C9E800001B5B313B33356D001B5B313B33366DD0
:10C9F800001B5B313B33376D007761726E696E6780
:10CA080000696E666F0064656275670088C9010019
:10CA1800C9C9010090C90100D1C90100D9C90100E3
:10CA2800E1C90100E9C90100F1C90100F9C9010022
:10CA3800000000005DCA010001CA010009CA010026
:10CA48000ECA01006170705F627574746F6E004683
:10CA58006174616C206572726F72005379737465CA
:10CA68006D20726573657400000000004C1700208B
:10CA7800959D01006170705F74696D6572000100B9
:10CA8800060052544320696E7374616E63652061B9
:10CA98006C726561647920696E697469616C697A20
:10CAA80065642E005254433A20696E697469616C5A
:10CAB800697A65642E0000000338FDD8704730316C
:10CAC800323334353637383941424344454600001D
:10CAD8007CC801007CC80100040000007077725F08
:10CAE8006D676D7400736F72746C697374004E5265
:10CAF800465F53554343455353004E52465F455294
:10CB0800524F525F5356435F48414E444C45525F23
:10CB18004D495353494E47004E52465F4552524F76
:10CB2800525F534F46544445564943455F4E4F5410
:10CB38005F454E41424C4544004E52465F45525275
:10CB48004F525F494E5445524E414C004E52465F3B
:10CB58004552524F525F4E4F5F4D454D004E524623
:10CB68005F4552524F525F4E4F545F464F554E44A9
:10CB7800004E52465F4552524F525F4E4F545F53DC
:10CB88005550504F52544544004E52465F455252FC
:10CB98004F525F494E56414C49445F504152414DB6
:10CBA800004E52465F4552524F525F494E56414CD5
:10CBB80049445F5354415445004E52465F455252D2
:10CBC8004F525F494E56414C49445F4C454E47547D
:10CBD80048004E52465F4552524F525F494E5641A9
:10CBE8004C49445F464C414753004E52465F4552BC
:10CBF800524F525F494E56414C49445F444154415B
:10CC0800004E52465F4552524F525F444154415F75
:10CC180053495A45004E52465F4552524F525F544F
:10CC2800494D454F5554004E52465F4552524F525A
:10CC38005F4E554C4C004E52465F4552524F525F24
:10CC4800464F5242494444454E004E52465F455273
:10CC5800524F525F494E56414C49445F41444452F9
:10CC6800004E52465F4552524F525F42555359004B
:10CC78004E52465F4552524F525F434F4E4E5F43AE
:10CC88004F554E54004E52465F4552524F525F52D6
:10CC980045534F5552434553004E52465F455252F5
:10CCA8004F525F4D4F44554C455F4E4F545F494E70
:10CCB800495449414C495A4544004E52465F4552F1
:10CCC800524F525F4D555445585F494E49545F463F
:10CCD80041494C4544004E52465F4552524F525FBF
:10CCE8004D555445585F4C4F434B5F4641494C4561
:10CCF80044004E52465F4552524F525F4D5554457F
:10CD0800585F554E4C4F434B5F4641494C45440094
:10CD18004E52465F4552524F525F4D555445585FEB
:10CD2800434F4E445F494E49545F4641494C454440
:10CD3800004E52465F4552524F525F4D4F44554C3C
:10CD4800455F414C52454144595F494E4954494118
:10CD58004C495A4544004E52465F4552524F525F25
:10CD680053544F524147455F46554C4C004E52462E
:10CD78005F4552524F525F4150495F4E4F545F4991
:10CD88004D504C454D454E544544004E52465F4526
:10CD980052524F525F464541545552455F4E4F548B
:10CDA8005F454E41424C4544004E52465F45525203
:10CDB8004F525F494F5F50454E44494E47004E52CF
:10CDC800465F4552524F525F4452565F5457495F2F
:10CDD8004552525F4F56455252554E004E52465F8D
:10CDE8004552524F525F4452565F5457495F45521D
:10CDF800525F414E41434B004E52465F4552524F9F
:10CE0800525F4452565F5457495F4552525F444EF1
:10CE180041434B004E52465F4552524F525F424C7F
:10CE2800455F495053505F52585F504B545F5452BE
:10CE3800554E4341544544004E52465F4552524F69
:10CE4800525F424C455F495053505F4348414E4EF4
:10CE5800454C5F414C52454144595F4558495354EC
:10CE680053004E52465F4552524F525F424C455F07
:10CE7800495053505F4C494E4B5F444953434F4EC2
:10CE88004E4543544544004E52465F4552524F5218
:10CE98005F424C455F495053505F504545525F5281
:10CEA800454A45435445440000000000F6CA0100C5
:10CEB8000100000002CB01000200000020CB0100AD
:10CEC8000300000041CB01000400000054CB010026
:10CED8000500000065CB01000600000079CB0100C9
:10CEE8000700000091CB010008000000A9CB010059
:10CEF80009000000C1CB01000A000000DACB0100E4
:10CF08000B000000F2CB01000C00000009CC01006E
:10CF18000D0000001DCC01000E0000002FCC010008
:10CF28000F0000003ECC01001000000052CC0100B0
:10CF38001100000069CC01001200000078CC01004B
:10CF4800130000008DCC010080000000A1CC01007E
:10CF580081000000C2CC010082000000DECC01008C
:10CF680083000000FACC01008400000018CD010005
:10CF78008500000039CD0100860000005ECD01006B
:10CF88009000000075CD01009100000093CD0100D4
:10CF980092000000B1CD010000820000C6CD010062
:10CFA80001820000E4CD01000282000000CE0100F1
:10CFB800008400001CCE01000184000040CE010066
:10CFC800028400006ACE0100038400008FCE0100B5
:10CFD800556E6B6E6F776E206572726F7220636F1D
:10CFE800646500000000000100000001010000016C
:10CFF80001010100000000636C6F636B00434C4F3C
:10D00800434B004750494F54450050525300554137
:10D01800525400554152544500426561636F6E2079
:10D028006578616D706C6520737461727465642EC7
:10D038000000000084C8010094C801000800000036
:10D048007CC8010084C80100080000007CC80100F9
:10D058007CC80100080000006E72665F7364680097
:10D068000100000773645F626C655F6366675F73E6
:10D07800657428292072657475726E65642025733D
:10D08800207768656E20617474656D7074696E6769
:10D0980020746F2073657420424C455F434F4E4E99
:10D0A8005F4346475F4741502E0073645F626C657B
:10D0B8005F6366675F73657428292072657475728B
:10D0C8006E6564202573207768656E2061747465C9
:10D0D8006D7074696E6720746F2073657420424C9C
:10D0E800455F4741505F4346475F524F4C455F435A
:10D0F8004F554E542E0073645F626C655F636667BC
:10D108005F73657428292072657475726E65642072
:10D118002573207768656E20617474656D70746915
:10D128006E6720746F2073657420424C455F434FCF
:10D138004D4D4F4E5F4346475F56535F55554944E3
:10D148002E0073645F626C655F6366675F73657406
:10D1580028292072657475726E656420257320779E
:10D1680068656E20617474656D7074696E6720748B
:10D178006F2073657420424C455F47415454535F98
:10D188004346475F415454525F5441425F53495AA2
:10D19800452E0073645F626C655F6366675F7365E5
:10D1A8007428292072657475726E65642025732051
:10D1B8007768656E20617474656D7074696E672038
:10D1C800746F2073657420424C455F474154545333
:10D1D8005F4346475F534552564943455F4348417D
:10D1E8004E4745442E00496E7375666669636965E6
:10D1F8006E742052414D20616C6C6F63617465647C
:10D2080020666F722074686520536F667444657673
:10D218006963652E004368616E67652074686520E0
:10D2280052414D207374617274206C6F636174692C
:10D238006F6E2066726F6D203078257820746F20AD
:10D24800307825782E004D6178696D756D205241D2
:10D258004D2073697A6520666F72206170706C6901
:10D26800636174696F6E20697320307825782E00A9
:10D2780073645F626C655F656E61626C6528292006
:10D2880072657475726E65642025732E0000000047
:10D298007CC801007CC80100080000006E72665F4F
:10D2A8007364685F626C650074C801007CC8010023
:10D2B800080000006E72665F7364685F736F6300D6
:10D2C800D4D2010004D40100D8D2010043000000E8
:10D2D800CDC60100EDC60100F9C6010005C7010071
:10D2E80025C7010031C7010099C6010069C60100C0
:10D2F80053756E004D6F6E00547565005765640078
:10D30800546875004672690053617400004A616E82
:10D3180000466562004D617200417072004D61798E
:10D32800004A756E004A756C004175670053657058
:10D33800004F6374004E6F760044656300002E0052
:10D348000053756E646179004D6F6E6461790054A5
:10D35800756573646179005765646E657364617996
:10D368000054687572736461790046726964617902
:10D3780000536174757264617900004A616E756169
:10D388007279004665627275617279004D617263E7
:10D398006800417072696C004D6179004A756E656C
:10D3A800004A756C79004175677573740053657030
:10D3B80074656D626572004F63746F626572004ECA
:10D3C8006F76656D62657200446563656D6265724E
:10D3D8000000414D00504D0000256D2F25642F257C
:10D3E800790025483A254D3A2553002561202562C4
:10D3F80020256520255420255900000046D301002A
:10D4080048D3010048D3010048D3010048D30100A4
:10D4180048D3010048D3010048D3010048D3010094
:10D4280048D30100FFFFFFFFFFFFFFFFFFFFFFFFE4
:10D43800FFFF000049D30100F8D2010083D30100A7
:10D4480015D30100DAD30100E1D30100EAD30100CA
:10D45800F3D3010020202020202020202068282825
:10D4680028282020202020202020202020202020A4
:10D47800202020204810101010101010101010102C
:10D48800101010108484848484848484848410100C
:10D498001010101010818181818181010101010129
:10D4A8000101010101010101010101010101011055
:10D4B80010101010108282828282820202020202FE
:10D4C8000202020202020202020202020202021026
:10D4D80010101020000703200417020108571040FD
:01D4E80080C3
:10D4EC000000000000200040000000000020004070
:10D4FC000000000000000000FF00000000100140D0
:10D50C00110004000090D00302150112233445567B
:10D51C006778899AABBCCDDEEFF001020304C3003F
:10D52C00D41800201F0000000000000000000000C4
:10D53C00FF000000C8D20100C8D20100C8D201000F
:08D54C00C8D20100C8D20100A1
:04000003100093A1B5
:00000001FF
