:020000022000DC
:106000000000012019620200016202000362020026
:10601000056202000762020009620200000000003F
:106020000000000000000000000000000B62020001
:106030000D620200000000000F6202001162020007
:106040000D84020013620200A5890200136202009F
:106050001362020013620200A188020013620200B0
:106060001362020013620200136202001362020054
:106070001362020013620200136202001362020044
:1060800013620200B9B6020013620200136202003A
:1060900013620200136202002DE10200136202008B
:1060A0001362020013620200136202001362020014
:1060B00013620200136202000000000000000000F2
:1060C00013620200136202001362020013620200F4
:1060D000136202001362020013620200000000005B
:1060E00000000000000000000000000000000000B0
:1060F00000000000000000000000000000000000A0
:10610000000000000000000000000000000000008F
:10611000000000000000000000000000000000007F
:10612000000000000000000000000000000000006F
:10613000000000000000000000000000000000005F
:10614000000000000000000000000000000000004F
:10615000000000000000000000000000000000003F
:10616000000000000000000000000000000000002F
:10617000000000000000000000000000000000001F
:10618000000000000000000000000000000000000F
:1061900000000000000000000000000000000000FF
:1061A00000000000000000000000000000000000EF
:1061B00000000000000000000000000000000000DF
:1061C00000000000000000000000000000000000CF
:1061D00000000000000000000000000000000000BF
:1061E00000000000000000000000000000000000AF
:1061F000000000000000000000000000000000009F
:10620000FEE7FEE7FEE7FEE7FEE7FEE7FEE7FEE766
:10621000FEE7FEE700F002B8FFF7FCBF0F484FF0C3
:106220000701884385460E4880470E48016841F4BF
:1062300070010160BFF34F8FBFF36F8F00F01AB88A
:1062400009480A490A4A884207D0521A05D00378F9
:1062500001300B700131013AF9D170470000012083
:10626000A16D020088ED00E044E80200C81800209B
:10627000C8180020344935480A1A02D00722914331
:106280008D46334933480A1A06D00722914381F3D9
:106290000988022282F314882F483049304A00F0DE
:1062A00041F830483049314A00F03CF83048314933
:1062B000314A00F037F831483149324A00F032F8BB
:1062C00031483249324A00F02DF832483249334AD7
:1062D00000F028F832483349334A00F023F83348B5
:1062E0003349002200F029F832483349002200F0F7
:1062F00024F832483249091A08F040FA314A9047E6
:106300001F482049884205D00268043003B49047F2
:1063100003BCF7E700208646EC46002000212A4A0D
:106320009047FEE7884207D0521A05D00378013023
:106330000B700131013AF9D17047884202D00270E6
:106340000130FAE7704700000000012000E0002063
:106350000000012000000120A8000300C818002050
:106360008C190020CC630200CC63020090E702008D
:10637000A8000300C8180020C818002044E8020044
:1063800044E8020044E8020044E8020044E8020055
:1063900044E8020044E8020044E80200A5000300CB
:1063A0006C0103008C1900208C1900208C1900202E
:1063B0004C2100204C2100204C2100204C210020A9
:0C63C0004C4100204162020057670200BF
:1063CC0072DF704700BF184673DF704700BF184676
:1063DC0074DF704700BF184600B583B003460091C8
:1063EC00ADF80630BDF80630009A1946034804F0A3
:1063FC0027F800BF03B05DF804FB00BFEFBEADDEB5
:10640C0000B597B004238DF857305923ADF8003000
:10641C00264B02931723ADF8043003AB3C2200212A
:10642C00184608F075F900238DF80C309DF857309C
:10643C008DF80F306B460C93182200211C4808F085
:10644C0067F91B4B05221A70194B00225A60184B26
:10645C0000221A75164BA0229A60154B00229A81C5
:10646C00144B196803AB144A184601F05CFA1490EB
:10647C00149B1393139B002B04D0104ACF21139819
:10648C0003F0DEFF0A4A0B490D48FFF799FF149001
:10649C00149B1293129B002B04D0084AD221129801
:1064AC0003F0CEFF00BF17B05DF804FBFC18002012
:1064BC008C190020EC180020F018002048E802008D
:1064CC00E818002000B583B00A4B1B780121184650
:1064DC00FFF77AFF0190019B0093009B002B04D0E7
:1064EC00054ADD21009803F0ABFF00BF03B05DF857
:1064FC0004FB00BFE818002048E8020000B583B098
:10650C00094B1B781846FFF763FF0190019B009322
:10651C00009B002B04D0054AEB21009803F090FF60
:10652C0000BF03B05DF804FBE818002048E8020047
:10653C0000B587B007F072FD0590059B0493049B92
:10654C00002B04D0154AFB21049803F079FF00239B
:10655C00019301AB1946012007F018FE0590059B2D
:10656C000393039B002B05D00C4A40F201110398B6
:10657C0003F066FF01AB184607F0FAFE0590059B89
:10658C000293029B002B05D0044A40F2051102989D
:10659C0003F056FF00BF07B05DF804FB48E80200AB
:1065AC0000B583B04FF48041002006F0AFFC0190A1
:1065BC00019B0093009B002B05D0064A40F20D1165
:1065CC00009803F03DFF06F037FC00BF03B05DF808
:1065DC0004FB00BF48E8020000B583B001F0F0FAFC
:1065EC000190019B0093009B002B05D0064A4FF4B1
:1065FC008E71009803F024FF002001F047FB00BFD0
:10660C0003B05DF804FB00BF48E8020000B583B09E
:10661C000190154B1B680133134A1360134B1B7805
:10662C0083F00103DBB2002B09D00F4B1B680A2B44
:10663C0005D9FFF747FF0D4B01221A700FE00B4BEA
:10664C001B78002B0BD0084B1B680B2B07D9FFF7C3
:10665C0055FF064B00221A70034B00221A6000BF34
:10666C0003B05DF804FB00BFC4190020C31900205F
:10667C0000B585B004F094FA0390039B0293029B3F
:10668C00002B05D00D4A4FF49B71029803F0D8FEF5
:10669C000B4A01210B4804F0C1FA0390039B0193B0
:1066AC00019B002B05D0054A4FF49E71019803F015
:1066BC00C7FE00BF05B05DF804FB00BF48E8020050
:1066CC001966020044E8020000B583B00B4B0022AF
:1066DC004FF4F021184604F0DBFA0190019B009373
:1066EC00009B002B05D0064A40F24511009803F0A0
:1066FC00A7FE00BF03B05DF804FB00BFC818002064
:10670C0048E8020000B583B006F048F80190019B00
:10671C000093009B002B05D0044A4FF4B8710098ED
:10672C0003F08EFE00BF03B05DF804FB48E80200E6
:10673C0008B506F01DFF034683F00103DBB2002B06
:10674C0001D006F041F800BF08BD08B5FFF744FFC3
:10675C00FFF78EFFFFF724FFFFF7D4FFFFF7E8FEEC
:10676C00FFF74EFEFFF7B0FFFFF7E2FFFCE700007C
:10677C00BFF34F8F00BF064BDB6803F4E0620449A4
:10678C00044B1343CB60BFF34F8F00BF00BFFDE73B
:10679C0000ED00E00400FA0582B01D4B1B68B3F15C
:1067AC00FF3F0AD11B4B1B68DBB201931A4B1B68D2
:1067BC001B0903F00F03009305E0154B1B680193B5
:1067CC00164B1B680093019B062B1DD1009B033BB2
:1067DC00042B17D801A252F823F000BFFD6702006A
:1067EC000168020005680200096802000D680200D9
:1067FC0001230AE0012308E0012306E0012304E061
:10680C00012302E0012300E00023184602B0704788
:10681C0030010010E00F00F0E80F00F03401001020
:10682C0082B0174B1B68DBB20193164B1B681B091C
:10683C0003F00F030093019B062B1DD1009B033B20
:10684C00042B17D801A252F823F000BF6D68020088
:10685C007168020075680200796802007D680200A8
:10686C0001230AE0002308E0002306E0002304E0F3
:10687C00002302E0002300E00023184602B070471A
:10688C00E00F00F0E80F00F082B01D4B1B68B3F175
:10689C00FF3F0AD11B4B1B68DBB201931A4B1B68E1
:1068AC001B0903F00F03009305E0154B1B680193C4
:1068BC00164B1B680093019B062B1DD1009B033BC1
:1068CC00042B17D801A252F823F000BFED68020088
:1068DC00F1680200F5680200F9680200FD68020028
:1068EC0001230AE0012308E0012306E0012304E070
:1068FC00012302E0012300E00023184602B0704798
:10690C0030010010E00F00F0E80F00F0340100102F
:10691C0082B0174B1B68DBB20193164B1B681B092B
:10692C0003F00F030093019B062B1DD1009B033B2F
:10693C00042B17D801A252F823F000BF5D690200A6
:10694C006169020065690200696902006D690200F3
:10695C0001230AE0002308E0002306E0002304E002
:10696C00002302E0002300E00023184602B0704729
:10697C00E00F00F0E80F00F082B01D4B1B68B3F184
:10698C00FF3F0AD11B4B1B68DBB201931A4B1B68F0
:10699C001B0903F00F03009305E0154B1B680193D3
:1069AC00164B1B680093019B062B1DD1009B033BD0
:1069BC00042B17D801A252F823F000BFDD690200A6
:1069CC00E1690200E5690200E9690200ED69020073
:1069DC0001230AE0012308E0012306E0012304E07F
:1069EC00012302E0012300E00023184602B07047A7
:1069FC0030010010E00F00F0E80F00F0340100103F
:106A0C0082B0174B1B68DBB20193164B1B681B093A
:106A1C0003F00F030093019B062B1DD1009B033B3E
:106A2C00042B17D801A252F823F000BF4D6A0200C4
:106A3C00516A0200556A0200596A02005D6A02003E
:106A4C0001230AE0002308E0002306E0002304E011
:106A5C00002302E0002300E00023184602B0704738
:106A6C00E00F00F0E80F00F082B0174B1B68DBB2B0
:106A7C000193164B1B681B0903F00F030093019B3A
:106A8C00062B1DD1009B033B042B17D801A252F8F7
:106A9C0023F000BFB56A0200B96A0200BD6A0200A9
:106AAC00C16A0200C56A020001230AE0002308E063
:106ABC00002306E0002304E0002302E0002300E0B2
:106ACC000023184602B07047E00F00F0E80F00F00A
:106ADC0082B01D4B1B68B3F1FF3F0AD11B4B1B68E7
:106AEC00DBB201931A4B1B681B0903F00F030093D5
:106AFC0005E0154B1B680193164B1B680093019B1B
:106B0C00062B1DD1009B033B042B17D801A252F876
:106B1C0023F000BF356B0200396B02003D6B0200A5
:106B2C00416B0200456B020000230AE0002308E0E1
:106B3C00012306E0012304E0012302E0012300E02D
:106B4C000023184602B0704730010010E00F00F02F
:106B5C00E80F00F03401001082B01D4B1B68B3F13C
:106B6C00FF3F0AD11B4B1B68DBB201931A4B1B680E
:106B7C001B0903F00F03009305E0154B1B680193F1
:106B8C00164B1B680093019B062B1DD1009B033BEE
:106B9C00042B17D801A252F823F000BFBD6B0200E2
:106BAC00C16B0200C56B0200C96B0200CD6B020009
:106BBC0001230AE0012308E0012306E0012304E09D
:106BCC00012302E0012300E00023184602B07047C5
:106BDC0030010010E00F00F0E80F00F0340100105D
:106BEC0082B01D4B1B68B3F1FF3F0AD11B4B1B68D6
:106BFC00DBB201931A4B1B681B0903F00F030093C4
:106C0C0005E0154B1B680193164B1B680093019B09
:106C1C00062B1DD1009B033B042B17D801A252F865
:106C2C0023F000BF456C0200496C02004D6C020061
:106C3C00516C0200556C020001230AE0012308E0AC
:106C4C00012306E0012304E0012302E0012300E01C
:106C5C000023184602B0704730010010E00F00F01E
:106C6C00E80F00F03401001082B0154B1B68019343
:106C7C00144B1B680093019B062B1DD1009B033BFF
:106C8C00042B17D801A252F823F000BFAD6C020000
:106C9C00B16C0200B56C0200B96C0200BD6C020054
:106CAC0000230AE0002308E0002306E0012304E0AF
:106CBC00012302E0012300E00023184602B07047D4
:106CCC00300100103401001082B0154B1B68019389
:106CDC00144B1B680093019B062B1DD1009B033B9F
:106CEC00042B17D801A252F823F000BF0D6D02003F
:106CFC00116D0200156D0200196D02001D6D020070
:106D0C0000230AE0002308E0002306E0002304E04F
:106D1C00012302E0012300E00023184602B0704773
:106D2C00300100103401001008B5FFF7CDFF034609
:106D3C00002B07D04FF010234FF08042D3F80832CD
:106D4C00C2F8583500BF08BD00BF044BD3F800345F
:106D5C00002BFAD000BF00BF704700BF00E001401D
:106D6C0000B583B00190054A019BC2F80435FFF7CA
:106D7C00EBFF00BF03B05DF804FB00BF00E0014077
:106D8C00024B034A1A6000BF704700BF1419002061
:106D9C000090D00308B5FFF7FFFC0346002B06D08C
:106DAC00964B1B681B0A964A03F01F031360FFF7F0
:106DBC0037FD0346002B02D0924B934A1A60FFF723
:106DCC0063FD0346002B06D0904B1B685B0B904A6F
:106DDC0003F007031360FFF79BFD0346002B05D060
:106DEC008C4BDB688B4A23F08073D360FFF7C4FDB8
:106DFC000346002B0ED04FF080430022C3F80C2129
:106E0C004FF080430022C3F810214FF08043002242
:106E1C00C3F83825FFF7F4FD0346002B02D07E4B58
:106E2C0003221A60FFF720FE0346002B0BD07B4B8E
:106E3C0005221A607A4B01221A607A4B00221A60E2
:106E4C00794B3F221A60FFF743FE0346002B76D0A6
:106E5C004FF08053754AD3F80434C2F820354FF004
:106E6C008053724AD3F80834C2F824354FF080535B
:106E7C006E4AD3F80C34C2F828354FF080536B4A65
:106E8C00D3F81034C2F82C354FF08053674AD3F83E
:106E9C001434C2F830354FF08053644AD3F81834A8
:106EAC00C2F834354FF08053604AD3F81C34C2F822
:106EBC0040354FF080535D4AD3F82034C2F8443546
:106ECC004FF08053594AD3F82434C2F848354FF068
:106EDC008053564AD3F82834C2F84C354FF08053BF
:106EEC00524AD3F82C34C2F850354FF080534F4AE5
:106EFC00D3F83034C2F854354FF080534B4AD3F8A2
:106F0C003434C2F860354FF08053484AD3F83834E3
:106F1C00C2F864354FF08053444AD3F83C34C2F87D
:106F2C0068354FF08053414AD3F84034C2F86C3581
:106F3C004FF080533D4AD3F84434C2F87035FFF714
:106F4C000BFE0346002B05D0394B1B68394A03F066
:106F5C004F031360FFF744FE0346002B0DD04FF098
:106F6C008043D3F8003403F00103002B05D04FF01D
:106F7C0080436FF00102C3F80024FFF775FE03464F
:106F8C00002B05D02C4B1B682B4A43F480631360F9
:106F9C002A4BD3F88830294A43F47003C2F888305E
:106FAC00BFF34F8F00BFBFF36F8F00BFFFF7BCFE67
:106FBC004FF01023D3F80032002B05DB4FF01023D9
:106FCC00D3F80432002B15DA0120FFF7C9FE4FF07D
:106FDC0010231522C3F80022FFF7B6FE4FF0102342
:106FEC001522C3F80422FFF7AFFE0020FFF7B8FE0E
:106FFC00FFF7BEFBFFF7C4FE00BF08BD2403001063
:10700C004035014074C007400DF0ADBA4402001089
:10701C003C050040F0ED00E0A0050040105600409B
:10702C0088560040185600401456004000C00040DE
:10703C0058020010E40E00403C17004000ED00E048
:10704C006DDF704700BF184679DF704700BF1846E8
:10705C007DDF704700BF184664DF704700BF1846DD
:10706C0082B003460091ADF80630BDF80630DAB2B6
:10707C00009B1A70BDF806301B0A9AB2009B0133B4
:10708C00D2B21A700223184602B0704700B589B00C
:10709C00039002911346ADF80630029B1B8803F156
:1070AC000902BDF806309A4201D90C2353E004AB17
:1070BC001846FFF7C5FF0790079B0693069B002B0E
:1070CC0001D0069B47E0029B1B881A46039B134486
:1070DC0008221A70029B1B8801339AB2029B1A80F9
:1070EC00029B1B881A46039B13441B221A70029B9B
:1070FC001B8801339AB2029B1A80029B1B881A468A
:10710C00039B981804AB01330622194607F0CEFAFC
:10711C00029B1B8806339AB2029B1A809DF8103092
:10712C0023F00103DBB2002B07D1029B1B881A460C
:10713C00039B134400221A7006E0029B1B881A461C
:10714C00039B134401221A70029B1B8801339AB2D1
:10715C00029B1A800023184609B05DF804FB00B5A9
:10716C0089B0039002910192ADF80230039B1B7819
:10717C00012B05D1039B5B78002B01D1072391E0F8
:10718C00019B1B889A1CBDF802309A420ED8039BB7
:10719C001B78012B0CD1019B1B881A46039B5B7837
:1071AC0013449A1CBDF802309A4201D90C2379E0A1
:1071BC00019B1B88BDF80220D31A9BB2023BADF891
:1071CC001C30BDF81C30ADF81230019B1B8802330B
:1071DC00029A13440DF1120211461846FFF738FFBC
:1071EC000690069B0593059B002B01D0059B59E04F
:1071FC00039B1B78022B06D0039B5B781A46BDF8C9
:10720C0012309A4209D3BDF81230BDF81C209A42B4
:10721C0003D309238DF81F3016E008238DF81F3097
:10722C00039B1B78012B0BD1039B5B781A46BDF893
:10723C001C30934204D3039B5B78ADF8123003E00F
:10724C00BDF81C30ADF81230BDF81230FE2B01D950
:10725C000C2327E0BDF81230DAB2019B1B881946CB
:10726C00029B0B440132D2B21A70019B1B88013372
:10727C009AB2019B1A80019B1B881A46029B1344ED
:10728C009DF81F201A70019B1B8801339AB2019B39
:10729C001A80019B1A88BDF8123013449AB2019BD4
:1072AC001A800023184609B05DF804FB00B589B0BC
:1072BC00039002911346ADF80630029B1B881A1DF1
:1072CC00BDF806309A4201D90C233AE00DF11603B1
:1072DC001846FFF7B9FE0790079B0693069B002BF9
:1072EC0001D0069B2DE0029B1B881A46039B13447E
:1072FC0003221A70029B1B8801339AB2029B1A80DC
:10730C00029B1B881A46039B134419221A70029B7A
:10731C001B8801339AB2029B1A80BDF81620029B7F
:10732C001B881946039B0B4419461046FFF798FE21
:10733C0003461A46029B1B8813449AB2029B1A807E
:10734C000023184609B05DF804FB84B00291019249
:10735C001A4603468DF80F301346ADF80C30019BDE
:10736C001B88DA1CBDF80C309A4201D90C2328E09A
:10737C00019B1B881A46029B134402221A70019B24
:10738C001B8801339AB2019B1A80019B1B881A46F9
:10739C00029B134401221A70019B1B8801339AB281
:1073AC00019B1A80019B1B881A46029B13449DF873
:1073BC000F201A70019B1B8801339AB2019B1A8013
:1073CC000023184604B0704784B0029101921A460B
:1073DC0003468DF80F301346ADF80C30019B1B881B
:1073EC00DA1CBDF80C309A4201D90C2328E0019B21
:1073FC001B881A46029B134402221A70019B1B889D
:10740C0001339AB2019B1A80019B1B881A46029B7E
:10741C0013440A221A70019B1B8801339AB2019BF8
:10742C001A80019B1B881A46029B13449DF80F205F
:10743C001A70019B1B8801339AB2019B1A8000239E
:10744C00184604B0704700B58FB0039001930B46FB
:10745C008DF80B3013468DF80A3000238DF833303D
:10746C00109B1B88ADF8303000230D9370E0039B0C
:10747C005A680D9B9B001A4405AB106818600DF1FF
:10748C001B0105AB00221846FFF7E6FD0A900A9B8C
:10749C000993099B002B01D0099B7BE09DF81B30C5
:1074AC009DF80A209A4250D19DF83330002B01D020
:1074BC00002300E002238DF82330109B1B881A4612
:1074CC009DF81B301A449DF823301A44BDF8443003
:1074DC009A4201DD0C235DE09DF8333083F001030B
:1074EC00DBB2002B16D0109B1B8801339AB2109B79
:1074FC001A80109B1B881A46019B13449DF80B2085
:10750C001A70109B1B8801339AB2109B1A800123AE
:10751C008DF83330109B1B881A46019B1A440DF1D1
:10752C001B0105AB1846FFF797FD0A900A9B0793C2
:10753C00079B002B01D0079B2CE0109B1B889DF810
:10754C001B2013449AB2109B1A800D9B01330D9390
:10755C00039B1B881A460D9B934288DB9DF83330A6
:10756C00002B16D0109B1A88BDF83030D31A9BB262
:10757C00013BADF82E30BDF82E30FF2B01D90C237A
:10758C0008E0BDF83030019A1344BDF82E20D2B279
:10759C001A70002318460FB05DF804FB00B58BB0D1
:1075AC00059003930B468DF8133013468DF812306B
:1075BC009DF81310BDF8343001930C9B0093039B82
:1075CC0002220598FFF73FFF0990099B0893089B3F
:1075DC00002B01D0089B14E09DF81210BDF834303C
:1075EC0001930C9B0093039B10220598FFF72BFF34
:1075FC000990099B0793079B002B01D0079B00E088
:10760C00002318460BB05DF804FB82B00190019B7F
:10761C001B88052B0AD9019B1B88B3F5486F07D92A
:10762C00019B1B884FF6FF72934201D0072325E084
:10763C00019B5B88052B0AD9019B5B88B3F5486FCE
:10764C0007D9019B5B884FF6FF72934201D0072349
:10765C0014E0019B1B884FF6FF7293420DD0019BE7
:10766C005B884FF6FF72934207D0019B1A88019BEF
:10767C005B889A4201D9072300E00023184602B028
:10768C00704700B587B0039002910192ADF80230BB
:10769C00019B1B889A1DBDF802309A4201D90C231C
:1076AC004BE00398FFF7B1FF0590059B0493049BF7
:1076BC00002B01D0049B40E0019B1B881A46029BC7
:1076CC00134405221A70019B1B8801339AB2019B4B
:1076DC001A80019B1B881A46029B134412221A70B3
:1076EC00019B1B8801339AB2019B1A80039B1A8859
:1076FC00019B1B881946029B0B4419461046FFF749
:10770C00AFFC03461A46019B1B8813449AB2019B9B
:10771C001A80039B5A88019B1B881946029B0B44B9
:10772C0019461046FFF79CFC03461A46019B1B8822
:10773C0013449AB2019B1A800023184607B05DF8D7
:10774C0004FB00B587B0039002910192ADF80230B2
:10775C00039B9B8802330593019B1B881A46059B50
:10776C0013449A1CBDF802309A4201D90C2353E001
:10777C00059BFE2B01D90C234EE0059BDAB2019B35
:10778C001B881946029B0B440132D2B21A70019B22
:10779C001B8801339AB2019B1A80019B1B881A46E5
:1077AC00029B1344FF221A70019B1B8801339AB26F
:1077BC00019B1A80039B1A88019B1B881946029B0C
:1077CC000B4419461046FFF74BFC03461A46019B27
:1077DC001B8813449AB2019B1A80039B9B88002B35
:1077EC0019D0039B9B68002B01D1072314E0019B4C
:1077FC001B881A46029B9818039B9968039B9B88CD
:10780C001A4606F053FF019B1A88039B9B8813446E
:10781C009AB2019B1A800023184607B05DF804FB4E
:10782C0000B589B0039002910192ADF80230039B30
:10783C009B6A002B01D1072371E000238DF81F30C8
:10784C0065E0039B996A9DF81F2013465B00134467
:10785C009B000B440693069B9B8802330593059B68
:10786C00FE2B01D90C235AE0059BDAB2019B1B8835
:10787C001946029B0B440132D2B21A70019B1B8831
:10788C0001339AB2019B1A80019B1B881A46029BFA
:10789C00134416221A70019B1B8801339AB2019B68
:1078AC001A80069B1A88019B1B881946029B0B4465
:1078BC0019461046FFF7D4FB03461A46019B1B885A
:1078CC0013449AB2019B1A80069B9B88002B19D0FB
:1078DC00069B9B68002B01D1072320E0019B1B8892
:1078EC001A46029B9818069B9968069B9B881A4619
:1078FC0006F0DCFE019B1A88069B9B8813449AB207
:10790C00019B1A809DF81F3001338DF81F30039BAB
:10791C0093F82C309DF81F209A4292D300231846DE
:10792C0009B05DF804FB00B595B005900491039285
:10793C0000231393039B1B88ADF84A30039B002252
:10794C001A80059B93F82D30002B0ED0BDF84A30D1
:10795C001A4603990498FFF799FB1390139B119304
:10796C00119B002B01D0119BD8E0059B9B78002B21
:10797C000ED0BDF84A301A4603990498FFF796FCCE
:10798C001390139B1093109B002B01D0109BC5E000
:10799C00059BDB78002B10D0059BDB7858B2BDF82B
:1079AC004A30039A0499FFF7D0FC1390139B0F9362
:1079BC000F9B002B01D00F9BB0E0059B5B68002B4D
:1079CC0011D0059B5B6893F90000BDF84A30039A0F
:1079DC000499FFF7F9FC1390139B0E930E9B002B4D
:1079EC0001D00E9B9AE0059B1B89002B14D0059BA4
:1079FC0003F10800BDF84A300193039B0093049BEC
:107A0C0006220221FFF7CAFD1390139B0D930D9BC9
:107A1C00002B01D00D9B81E0059B1B8A002B14D001
:107A2C00059B03F11000BDF84A300193039B0093B2
:107A3C00049B07220321FFF7B1FD1390139B0C93BA
:107A4C000C9B002B01D00C9B68E0059B1B8B002B27
:107A5C0014D0059B03F11800BDF84A300193039B29
:107A6C000093049B15221421FFF798FD1390139B90
:107A7C000B930B9B002B01D00B9B4FE0059B1B6AC0
:107A8C00002B0FD0059B186ABDF84A30039A049955
:107A9C00FFF7F7FD1390139B0A930A9B002B01D061
:107AAC000A9B3BE0059B5B6A002B0FD0059B586A39
:107ABC00BDF84A30039A0499FFF743FE1390139BC9
:107ACC000993099B002B01D0099B27E0059B93F898
:107ADC002C30002B0ED0BDF84A30039A049905982F
:107AEC00FFF79EFE1390139B0893089B002B01D06D
:107AFC00089B13E0059B1B78002B0ED0BDF84A3079
:107B0C00039A04990598FFF72AFB1390139B07938C
:107B1C00079B002B01D0079B00E0139B184615B068
:107B2C005DF804FB82B003468DF807309DF90730F1
:107B3C00002B13DB9DF8073003F01F0209499DF958
:107B4C0007305B09012000FA02F2203341F82320B0
:107B5C00BFF34F8F00BFBFF36F8F00BF00BF02B0EA
:107B6C00704700BF00E100E0044BD3F80034002B59
:107B7C0014BF01230023DBB21846704700000140FC
:107B8C0008B506F09FFA034683F00103DBB2002B25
:107B9C0003D109497B20FEF71FFCFFF7E5FF0346E5
:107BAC0083F00103DBB2002B04D000F009FC034B83
:107BBC0000229A7000BF08BDB0E80200C81900206E
:107BCC0000B583B000230193184B1B78002B02D017
:107BDC00852301931CE0154B00229A60134B002265
:107BEC005A60124B00221A61104B0022DA601048C6
:107BFC0000F090FB019006F065FA034683F0010358
:107C0C00DBB2002B01D000F0ABFB084B01221A7049
:107C1C00FFF7AAFF0346002B02D0044B01229A70F7
:107C2C00019B184603B05DF804FB00BFC819002087
:107C3C00057E020084B001900091019B1B680393A8
:107C4C0006E0039A009B9A420DD0039B1B6803939A
:107C5C00039B002BF5D1019B1A68009B1A60019BBA
:107C6C00009A1A6000E000BF04B0704784B0019025
:107C7C00019B1B680393039B002B03D0039B1A6887
:107C8C00019B1A60039B184604B0704700B585B081
:107C9C000190294B1B78002B03D12849F620FEF7C5
:107CAC009BFB254B9B78DBB2002B19D0019B002B47
:107CBC0003D0019B5B680120984700238DF80F309F
:107CCC000DF10F03184603F0C5F81B4BDB680133AD
:107CDC00194AD3609DF80F30184603F0D1F81EE016
:107CEC0000238DF80E300DF10E03184603F0B2F898
:107CFC00019B002B03D001991148FFF79BFF0E4B02
:107D0C00DB68002B01D100F03FFB0B4BDB68013330
:107D1C00094AD3609DF80E30184603F0B1F8064BB3
:107D2C00DB68002B04D105494FF48970FEF754FB36
:107D3C0000BF05B05DF804FBC8190020B0E80200D4
:107D4C00D819002000B583B0164B1B78002B04D13A
:107D5C00154940F21710FEF73FFB124BDB68002B66
:107D6C0004D111494FF48C70FEF736FB00238DF8CB
:107D7C0007300DF10703184603F06CF8094BDB686C
:107D8C00013B084AD360074BDB68002B01D1FFF79E
:107D9C00F7FE9DF80730184603F072F800BF03B0E9
:107DAC005DF804FBC8190020B0E8020000B585B0EE
:107DBC0003468DF807309DF80730002B02D10C4B91
:107DCC00039301E00B4B03930398FFF74FFF0290D3
:107DDC00029B002B06D0029B5B689DF80720104687
:107DEC009847F1E700BF00BF05B05DF804FB00BF8A
:107DFC00D0190020D819002000B583B003468DF8A7
:107E0C0007309DF80730002B05D10A4B01225A7020
:107E1C000020FFF7CBFF9DF80730012B05D1054B58
:107E2C0001229A700120FFF7C1FF00BF03B05DF87B
:107E3C0004FB00BFC819002000B583B0019000916D
:107E4C00019B002B05D1054B01225A700020FFF736
:107E5C00ADFF00BF03B05DF804FB00BFC8190020E4
:107E6C0000B585B0034600918DF807309DF80730BA
:107E7C00032B29D0032B35DC002B02D0012B04D093
:107E8C0030E00020FFF74EFE2DE000238DF80F3080
:107E9C000DF10F03184602F0DDFF154B1B7883F034
:107EAC000103DBB2002B01D0FFF78AFE104BDB681D
:107EBC0001330F4AD3600E4B01229A709DF80F309C
:107ECC00184602F0DDFF0EE0094B1B78002B04D1A5
:107EDC00084940F25220FEF77FFA00F041FAFFF712
:107EEC0031FF00E000BF00BF05B05DF804FB00BF30
:107EFC00C8190020B0E8020000B589B001900091CB
:107F0C00009B0793019B1B788DF80C30019B5B68E1
:107F1C000493019B9B68DBB28DF81430019BDB68EA
:107F2C000693074A079B52F823300649079A51F8E3
:107F3C00221003AA1046984700BF09B05DF804FB55
:107F4C00DC190020E019002000B589B001900091E7
:107F5C00009B0793019B1B788DF80C30019B5B6891
:107F6C000493019B9B68DBB28DF81430019BDB689A
:107F7C000693074A079B52F823300649079A51F893
:107F8C00221003AA1046984700BF09B05DF804FB05
:107F9C00DC190020E019002030B58FB0039002915D
:107FAC000192039B1B780C9326490C9B019A41F878
:107FBC002320029B1A6924490C9B41F82320029B25
:107FCC005B7F1946214A0C9B13440A461A70029B8C
:107FDC0004AC1D460FCD0FC495E80F0084E80F00CC
:107FEC000C9B089300230D93039B1B781A46174B8D
:107FFC009B5C002B0DD0039B181D019B002B01D00B
:10800C00134A00E0002204AB194601F02BFF0D903F
:10801C0014E0039B1B781A460C4B9B5C002B0DD178
:10802C00039B03F10C00019B002B01D0094A00E0DB
:10803C00002204AB194601F0A3F80D900D9B1846D5
:10804C000FB030BDDC190020E0190020E41900202D
:10805C00057F0200557F020082B003468DF8073081
:10806C009DF90730002B0CDB9DF8073003F01F0245
:10807C0005499DF907305B09012000FA02F241F82D
:10808C00232000BF02B0704700E100E082B003463D
:10809C0000918DF807309DF90730002B0ADB009B0F
:1080AC00DAB20C499DF907305201D2B20B4483F875
:1080BC0000230BE0009BDAB207499DF8073003F070
:1080CC000F03043B5201D2B20B441A7600BF02B02C
:1080DC00704700BF00E100E000ED00E082B00190CD
:1080EC00019B1B0B5BB2184602B0704700B583B006
:1080FC0003460A468DF8073013468DF806309DF876
:10810C000630012B03D99DF80630032B0BD99DF8B3
:10811C000630042B03D99DF80630072B03D90849E8
:10812C006B20FEF759F99DF806209DF90730114692
:10813C001846FFF7ABFF00BF03B05DF804FB00BFB0
:10814C0008E9020000B583B003468DF807309DF9AD
:10815C0007301846FFF780FF00BF03B05DF804FB43
:10816C0082B003468DF807300F4A9DF90730002B7B
:10817C0000DA1F335B115BB252F823209DF90730F4
:10818C00594203F01F0301F01F0158BF4B425BB271
:10819C0022FA03F303F00103002B14BF0123002385
:1081AC00DBB2184602B0704700E100E082B00190EB
:1081BC004FF08042019BC2F8043300BF02B07047FD
:1081CC0082B001904FF08042019BC2F8083300BF8F
:1081DC0002B0704782B003468DF807309DF8073027
:1081EC0003F1804301221A6000BF02B0704784B0D3
:1081FC000346ADF80630BDF8063003F1804300228B
:10820C001A60BDF8063003F180431B680393039B8F
:10821C0000BF04B0704782B00346ADF80630BDF81D
:10822C00063003F180431B68002B14BF012300238D
:10823C00DBB2184602B0704782B001904FF080421A
:10824C00019BC2F8183500BF02B070474FF0804355
:10825C00D3F818341B0C03F00103002B14BF0123BB
:10826C000023DBB21846704700B583B006238DF8A7
:10827C0007304FF08040FFF731FF03461846FFF7F9
:10828C006FFF034683F00103DBB2002B13D04FF0DA
:10829C008040FFF723FF03461A469DF80730194626
:1082AC001046FFF723FF4FF08040FFF717FF034600
:1082BC001846FFF747FF00BF03B05DF804FB000052
:1082CC0084B0124BDB680393104A039B43F080731A
:1082DC00D3600F4B1B6802930D4A029B43F00103C2
:1082EC0013600B4B5B68019300BF094B5A68019BF1
:1082FC00D31AB3F50A5FF8D3054A029B1360034AFD
:10830C00039BD36000BF04B0704700BFF0ED00E0EA
:10831C00001000E000B585B00190019B002B03D14B
:10832C000D49A420FEF758F8002303930B4B1B793F
:10833C00002B02D08523039308E0084A019B1360AD
:10834C00064B01221A71054B00225A71039B1846E9
:10835C0005B05DF804FB00BF40E90200E8190020FD
:10836C0008B5074B1B79002B03D10649BD20FEF73E
:10837C0033F8FFF779FF0120FFF75EFF00BF08BD60
:10838C00E819002040E9020008B50B4B1B79002BC3
:10839C0003D10A49EA20FEF71FF84FF48270FFF769
:1083AC0026FF0220FFF702FFFFF78AFF0820FFF7E6
:1083BC0011FF00BF08BD00BFE819002040E9020012
:1083CC0008B50D4B1B79002B03D10C49F720FEF798
:1083DC0003F80220FFF7F4FE4FF48270FFF707FF5B
:1083EC000C20FFF7F7FE00BFFFF730FF0346002B12
:1083FC00FAD100BF00BF08BDE819002040E9020017
:10840C0008B54FF48070FFF706FF0346002B14D01D
:10841C004FF48070FFF7EBFE0120FFF7D1FE114BFC
:10842C005B7983F00103DBB2002B06D00D4B0122EC
:10843C005A710C4B1B68002098474FF48270FFF761
:10844C00EAFE0346002B0AD04FF48270FFF7CFFEF2
:10845C000220FFF7B5FE034B1B680120984700BFB5
:10846C0008BD00BFE819002000B583B00346ADF885
:10847C000630BDF80630184600F026F803461B6897
:10848C00012B0CBF01230023DBB2184603B05DF8AF
:10849C0004FB00B585B00346ADF80630BDF80630D8
:1084AC00184600F011F803461A4600231360BDF875
:1084BC000630184600F008F803461B680393039B2C
:1084CC0000BF05B05DF804FB82B00346ADF8063082
:1084DC00BDF8063003F1804303F5C043184602B0E3
:1084EC007047000082B00190034BD3F80423019B2A
:1084FC001340184602B070470060004082B00190F3
:10850C00054A019B03F5A27352F823301B0A03F0B2
:10851C001F03184602B070470060004082B0019003
:10852C00064A019B03F5A27352F823301B0C03F08F
:10853C000303DBB2184602B0704700BF0060004076
:10854C0000B583B00190019B1B68184600F095F8AC
:10855C000346002B04D105494FF4F670FDF73CFFA0
:10856C004FF0A043184603B05DF804FBC8E90200C5
:10857C0000B585B001900B468DF8033001AB184661
:10858C00FFF7DEFF0390019A039B02F5E07253F8AC
:10859C002230019A23F44031039B02F5E07243F838
:1085AC002210019A039B02F5E07253F822109DF8F9
:1085BC0003301B04019A1943039B02F5E07243F844
:1085CC00221000BF05B05DF804FB00B585B001902A
:1085DC0001AB1846FFF7B4FF0390019A039B02F519
:1085EC00E07253F822301B0C03F00303DBB2184685
:1085FC0005B05DF804FB86B00390029101924FF038
:10860C00A0430493039B059319E0059B9B0018332F
:10861C006B4453F8083CD3F82025019B1A60059B4A
:10862C009B0018336B4453F8083C019A1268C3F84A
:10863C002025019B04330193059B01330593039A79
:10864C00029B1344059A9A42DFD300BF00BF06B0C9
:10865C00704700B585B0019001AB1846FFF770FF6D
:10866C000390019B012202FA03F31A46039BC3F801
:10867C00202500BF05B05DF804FB84B00190019B80
:10868C005B09029300230393029B002B03D14FF051
:10869C00FF33039300BF019B03F01F030193039A65
:1086AC00019B22FA03F303F00103002B14BF0123F7
:1086BC000023DBB2184604B0704784B001900091DF
:1086CC00009B0393019BDB080293019B03F00703C0
:1086DC0001930122019B02FA03F30399029A0A44C3
:1086EC0012781340184604B07047000082B0019015
:1086FC00044A019B1344303393F90030184602B0FE
:10870C00704700BFF019002082B00190034A019B12
:10871C0052F82330184602B0704700BFF019002001
:10872C0084B00190074A019B1344503393F90030F5
:10873C008DF80F309DF80F3023F0C003184604B0AD
:10874C00704700BFF019002084B00190074A019BCC
:10875C001344503393F900308DF80F309DF80F30DF
:10876C009B09DBB2184604B0704700BFF01900201B
:10877C0000B585B00190019A01210020FFF73BFF65
:10878C00002303930BE0039B9B00019A13441B688B
:10879C00002B01D0012306E0039B01330393039BC1
:1087AC00002BF0D00023184605B05DF804FB000048
:1087BC0000B587B00190002305935BE0344A059B1C
:1087CC001344503393F90030B3F1FF3F4ED005986A
:1087DC00FFF7A6FF049001990498FFF76EFF03467C
:1087EC00002B44D00598FFF7AFFF03468DF80F30F0
:1087FC000498FFF7EAFE03468DF80E309DF80E3014
:10880C00022B01D1032300E002238DF80D309DF8DB
:10881C000D3019460498FFF7ABFE0498FFF719FFCB
:10882C000498FFF763FF03461846FFF76DFF0290AD
:10883C00029B002B1BD09DF80F30032B0FD09DF803
:10884C000E30022B03D19DF80F30012B07D09DF871
:10885C000E30032B0BD19DF80F30022B07D19DF856
:10886C000F20029B11460498984700E000BF059B1F
:10887C0001330593059B032BA0D90198FFF778FFD3
:10888C000346002B97D100BF00BF07B05DF804FB77
:10889C00F019002000B589B0002306930023009343
:1088AC004FF48073ADF81230012307930023059326
:1088BC0021E0BDF812301846FFF7D6FD0346002B19
:1088CC000ED00798FFF70EFE0346002B08D0BDF81C
:1088DC0012301846FFF7DDFD069A079B13430693EB
:1088EC00079B5B000793BDF812300433ADF81230D0
:1088FC00059B01330593059B072BDAD94FF4BE700A
:10890C00FFF7B2FD0346002B0DD04FF4BE70FFF7FE
:10891C00C0FD069B43F0004306936B461A460121AB
:10892C000020FFF768FE069BDBB2002B29D0012349
:10893C0007930023059321E0079A069B1340002B15
:10894C0016D00598FFF7DAFD03900598FFF7E6FDC2
:10895C0003468DF80B300598FFF7D6FE0190019B6E
:10896C00002B05D09DF80B20019B114603989847CE
:10897C00079B5B000793059B01330593059B072B16
:10898C00DAD9069B002B03DA6B461846FFF710FF6B
:10899C0000BF09B05DF804FB08B5064B1B68002B43
:1089AC0003D105495120FDF717FD024B1B68984771
:1089BC0008BD00BF4C1A00205CEA020082B0019096
:1089CC00019B044A934201D1034B00E0002318465B
:1089DC0002B07047002000404C1A002000B587B050
:1089EC0001900091019B002B03D11C497720FDF7CE
:1089FC00F3FC0198FFF7E2FF0590059B002B25D0B7
:108A0C0000238DF8133000238DF80B300DF10B0380
:108A1C00184602F01FFA059B1B79002B03D001238B
:108A2C008DF8133005E0059B009A1A60059B012216
:108A3C001A719DF80B30184602F022FA9DF813308B
:108A4C00002B03D011230393039B02E00023039319
:108A5C00039B184607B05DF804FB00BF5CEA0200FC
:108A6C0000B585B00190019B002B03D10A499B20D6
:108A7C00FDF7B2FC0198FFF7A1FF0390039B002BBD
:108A8C0005D0039B00221A60039B00221A7100BFC1
:108A9C0005B05DF804FB00BF5CEA020082B003463F
:108AAC008DF807309DF90730002B0CDB9DF8073053
:108ABC0003F01F0205499DF907305B09012000FAFC
:108ACC0002F241F8232000BF02B0704700E100E041
:108ADC0082B003468DF807309DF90730002B13DB6D
:108AEC009DF8073003F01F0209499DF907305B0917
:108AFC00012000FA02F2203341F82320BFF34F8FFC
:108B0C0000BFBFF36F8F00BF00BF02B0704700BF44
:108B1C0000E100E082B0034600918DF807309DF92A
:108B2C000730002B0ADB009BDAB20C499DF90730A9
:108B3C005201D2B20B4483F800230BE0009BDAB253
:108B4C0007499DF8073003F00F03043B5201D2B2E2
:108B5C000B441A7600BF02B0704700BF00E100E082
:108B6C0000ED00E082B00190019B1B0B5BB218463C
:108B7C0002B0704700B583B003460A468DF8073043
:108B8C0013468DF806309DF80630012B03D99DF85D
:108B9C000630032B0BD99DF80630042B03D99DF816
:108BAC000630072B03D908496B20FDF715FC9DF8FF
:108BBC0006209DF9073011461846FFF7ABFF00BFA2
:108BCC0003B05DF804FB00BFB4EA020000B583B04B
:108BDC0003468DF807309DF907301846FFF75EFF06
:108BEC0000BF03B05DF804FB00B583B003468DF8FD
:108BFC0007309DF907301846FFF76AFF00BF03B036
:108C0C005DF804FB84B001900B46ADF80230BDF862
:108C1C000230019A134400221A60BDF80230019A06
:108C2C0013441B680393039B00BF04B0704782B0CE
:108C3C0001900B46ADF80230BDF80230019A134496
:108C4C001B68002B14BF01230023DBB2184602B0B3
:108C5C00704782B001900091019B009AC3F80423E5
:108C6C0000BF02B0704782B001900091019BD3F815
:108C7C000423009B1340002B14BF01230023DBB201
:108C8C00184602B0704782B001900091019B009A87
:108C9C00C3F8082300BF02B0704784B00190019B59
:108CAC00D3F880340393019B039AC3F88024039B6D
:108CBC00184604B0704782B00190019B0422C3F89F
:108CCC00002500BF02B0704782B00190019B0022CA
:108CDC00C3F8002500BF02B0704784B00390029126
:108CEC000192039B019AC3F81425039B029AC3F8C3
:108CFC000C2500BF04B0704700B583B001904FF055
:108D0C00FF324FF0FF310198FFF7E7FF00BF03B0D0
:108D1C005DF804FB82B00190019BD3F80C3518462A
:108D2C0002B0704782B00190019BD3F814351846FD
:108D3C0002B0704782B00190019BD3F808351846F9
:108D4C0002B0704782B00190019BD3F810351846E1
:108D5C0002B0704784B0039002910192039B029A77
:108D6C00C3F80825039B019AC3F8102500BF04B073
:108D7C00704700B583B001904FF0FF324FF0FF31D8
:108D8C000198FFF7E7FF00BF03B05DF804FB82B06A
:108D9C000190019BD3F81835DBB2184602B070472E
:108DAC0082B001900B468DF803309DF80320019B97
:108DBC00C3F81C2500BF02B0704782B001900B466F
:108DCC008DF803309DF80330019A134401221A6088
:108DDC0000BF02B0704782B001900B468DF8033093
:108DEC0013468DF802309DF803209DF80230134392
:108DFC00DBB21A46019BC3F86C2500BF02B070476A
:108E0C0082B001900091019B009AC3F8242500BF09
:108E1C0002B0704700B583B00190019B1B681846E7
:108E2C0000F096F80346002B04D105494FF4F67078
:108E3C00FDF7D2FA4FF0A043184603B05DF804FBDF
:108E4C00E4EA020000B585B00190084611461A46C6
:108E5C0003468DF803300B468DF8023013468DF81F
:108E6C00013001AB1846FFF7D5FF03909DF80320A6
:108E7C009DF802305B001A439DF801309B001A43A9
:108E8C009DF818301B0242EA03019DF81C301B04AC
:108E9C00019A1943039B02F5E07243F8221000BFBC
:108EAC0005B05DF804FB00B585B003900023019379
:108EBC00002300930023012201210398FFF7C2FF36
:108ECC0000BF05B05DF804FB00B585B003900B4600
:108EDC008DF80B309DF80B3000220192002200928D
:108EEC00002200210398FFF7ADFF00BF05B05DF82D
:108EFC0004FB00B585B0039000230193002300937D
:108F0C000023012200210398FFF79CFF00BF05B04E
:108F1C005DF804FB00B585B0019001AB1846FFF776
:108F2C0079FF0390019B012202FA03F3194603987F
:108F3C0000F004F800BF05B05DF804FB82B00190AE
:108F4C000091019B009AC3F8082500BF02B070473E
:108F5C0084B00190019B5B09029300230393029B55
:108F6C00002B03D14FF0FF33039300BF019B03F0A1
:108F7C001F030193039A019B22FA03F303F00103ED
:108F8C00002B14BF01230023DBB2184604B070473A
:108F9C0000B583B001900091009B1B68B3F1FF3FBB
:108FAC0009D0009B1B681846FFF7B4FF009B1B6899
:108FBC001846FFF778FF009B5B68B3F1FF3F05D0C5
:108FCC00009B5B6800211846FFF77EFF019B1A6827
:108FDC00009B9B6919461046FFF712FF019B18680E
:108FEC00009B597D009B1B7D1A46FFF7F4FE019BED
:108FFC001868009B1968009B5B681A46FFF76DFEAA
:10900C00009B1B7D012B22D1009B9B68B3F1FF3F82
:10901C0005D0009B9B6800211846FFF755FF009B6D
:10902C00DB68B3F1FF3F09D0009BDB681846FFF704
:10903C0071FF009BDB681846FFF735FF019B186832
:10904C00009BD968009B9B681A46FFF783FE00BF04
:10905C0003B05DF804FB000000B583B001900B4633
:10906C008DF80330019B1B684FF48E711846FFF787
:10907C00C9FD019B1B684FF4A2711846FFF7C2FD96
:10908C00019B1B680E491846FFF7E3FD019B1B680B
:10909C001846FFF767FD03461A469DF8033019463C
:1090AC001046FFF767FD019B1B681846FFF75AFD3A
:1090BC0003461846FFF78AFD00BF03B05DF804FBBA
:1090CC008000020000B583B00190019B1B68084929
:1090DC001846FFF7D8FD019B1B681846FFF742FDA9
:1090EC0003461846FFF780FD00BF03B05DF804FB94
:1090FC008402020000B587B00190019B1B681846E2
:10910C00FFF708FE0590019B1B681846FFF70AFE47
:10911C000490019B1B681846FFF70CFE0390019B03
:10912C001B681846FFF70EFE0290019B1B68184641
:10913C00FFF7E2FD019B1B681846FFF71AFE059B23
:10914C00B3F1FF3F02D00598FFF7D3FE049BB3F1B8
:10915C00FF3F02D00498FFF7CCFE029BB3F1FF3F18
:10916C0002D00298FFF7C5FE039BB3F1FF3F02D07C
:10917C000398FFF7BEFE00BF07B05DF804FB0000CC
:10918C0000B587B0039002910192029B002B03D192
:10919C002D49AA20FDF720F9039B1B791A462C2395
:1091AC0002FB03F3294A1344049300230593049B05
:1091BC0093F82A30002B03D008230593059B3EE03F
:1091CC00039B1A68039B1B791946214B53F82130DA
:1091DC0019461046FFF702FC0346002B03D011235F
:1091EC000593059B2BE002990398FFF7D1FE049B96
:1091FC00019A5A60029B1A69049B1A60049B5B6873
:10920C00002B05D0029B1B7F19460398FFF724FF08
:10921C00039B1B681846FFF74EFD049B00229A61C6
:10922C00049B0022DA61049B002283F82920049B12
:10923C0000225A61049B012283F82A20059B1846C0
:10924C0007B05DF804FB00BF1CEB0200541A0020B1
:10925C0070EB020000B585B00190019B1B791A469A
:10926C002C2302FB03F3114A13440393019B1B6849
:10927C001846FFF729FD039B5B68002B02D0019871
:10928C00FFF720FF0198FFF735FF019B1B6818467D
:10929C00FFF7E6FB039B002283F82A20039B0022A6
:1092AC005A6000BF05B05DF804FB00BF541A0020E3
:1092BC0000B585B0019000914FF48E710198FFF7C5
:1092CC00A1FC009B9A68009B1B6A13441B788DF8C9
:1092DC000F30009B1B6A5A1C009B1A629DF80F30C2
:1092EC0019460198FFF75CFD00BF05B05DF804FB63
:1092FC0000B585B001900091009B5B69039316E06B
:10930C00009B93F82830DBB2002B01D0002314E033
:10931C004FF48E710198FFF78AFC034683F001032A
:10932C00DBB2002BECD100990198FFF7C1FF009B39
:10933C001B6A039A9A42EBD80123184605B05DF8D4
:10934C0004FB000000B587B0039002910192039BCF
:10935C001B791A462C2302FB03F33C4A1344049357
:10936C00049B93F82A30012B04D039494FF48C70AC
:10937C00FDF732F8029B002B04D1354940F219104D
:10938C00FDF72AF8019B002B04D131494FF48D7065
:10939C00FDF722F8039800F05DF80346002B03D08C
:1093AC0011230593059B4CE0049B019A5A61049B85
:1093BC00029A9A60049B00221A62049B002283F892
:1093CC00282000230593039B1B684FF48E711846CD
:1093DC00FFF718FC039B1B6808211846FFF7EDFCF0
:1093EC00039B1B6804991846FFF762FF049B5B689C
:1093FC00002B25D1039B1B6804991846FFF778FFB7
:10940C00034683F00103DBB2002B02D00F2305933C
:10941C0013E000BF039B1B684FF48E711846FFF7D7
:10942C0006FC034683F00103DBB2002BF2D1039B55
:10943C001B680C211846FFF7C0FC049B00225A61E4
:10944C00059B184607B05DF804FB00BF541A0020BA
:10945C001CEB020082B00190019B1B791946074A54
:10946C002C2301FB03F3134414331B68002B14BF90
:10947C0001230023DBB2184602B07047541A0020B7
:10948C0010B582B001900091009B9B69002B08D114
:10949C004FF484710198FFF7B5FB0198FFF777FC47
:1094AC0013E04FF484710198FFF7ACFB009BDA6872
:1094BC00009B5B6AD4180198FFF769FC0346237084
:1094CC00009B5B6A5A1C009B5A6202B010BD00B52F
:1094DC0089B003900291019201238DF81030029B08
:1094EC000693019B0593039B5B68039A116804AA7E
:1094FC001046984700BF09B05DF804FB00B587B073
:10950C000190009100238DF80830009B0493019B7F
:10951C009B680393019B00225A61019B5B68019A33
:10952C00116802AA1046984700BF07B05DF804FB0B
:10953C0000B58BB0019000914FF400710198FFF7CA
:10954C0092FB0346002B39D04FF492710198FFF730
:10955C006EFB0346002B31D04FF492710198FFF74C
:10956C0051FB4FF401710198FFF78DFB009B93F8B1
:10957C00293083F00103DBB2002B03D004210198C6
:10958C00FFF71BFC02238DF80C300198FFF785FBCD
:10959C0003460693009B9B690593009BDB68049331
:1095AC00009B00229A61009B0022DA61009B5B68A1
:1095BC00009A116803AA1046984752E004210198BA
:1095CC00FFF751FB0346002B4BD04FF484710198ED
:1095DC00FFF72DFB0346002B43D000990198FFF7B2
:1095EC004FFF009B9A69009B5B6A9A4239D1009BA2
:1095FC00DB69002B19D0009BDB680993009B5B6A2D
:10960C000893009BDA69009B9A61009B1A69009B86
:10961C00DA60009B0022DA61009B00225A62099AF0
:10962C0008990098FFF753FF1BE0009B93F8293033
:10963C0083F00103DBB2002B03D004210198FFF768
:10964C00BCFB4FF401710198FFF71DFB009B00223E
:10965C009A61009B596A009BDB681A460098FFF7D9
:10966C0036FF4FF48E710198FFF7E1FA0346002B99
:10967C0024D0009B5B690793009B1B6A079A9A4254
:10968C000DD9009B93F82830DBB283F00103DBB2D9
:10969C00002B04D000990198FFF70AFE0EE04FF45E
:1096AC008E710198FFF7AEFA009B5B69002B05D019
:1096BC00009B5B6919460098FFF720FF4FF4A271DD
:1096CC000198FFF7B4FA0346002B1CD04FF4A2719B
:1096DC000198FFF797FA009B93F82930002B03D0E1
:1096EC0000210198FFF769FB009B9B69002B0AD0B6
:1096FC00009B00229A61009B596A009BDB681A460A
:10970C000098FFF7E4FE00BF0BB05DF804FB00000F
:10971C0008B503490348FFF70BFF00BF08BD00BFA6
:10972C00541A00200020004082B003468DF8073008
:10973C009DF90730002B0CDB9DF8073003F01F025E
:10974C0005499DF907305B09012000FA02F241F846
:10975C00232000BF02B0704700E100E082B0034656
:10976C008DF807309DF90730002B13DB9DF807307F
:10977C0003F01F0209499DF907305B09012000FA2B
:10978C0002F2203341F82320BFF34F8F00BFBFF309
:10979C006F8F00BF00BF02B0704700BF00E100E058
:1097AC0082B0034600918DF807309DF90730002BED
:1097BC000ADB009BDAB20C499DF907305201D2B298
:1097CC000B4483F800230BE0009BDAB207499DF8A9
:1097DC00073003F00F03043B5201D2B20B441A764C
:1097EC0000BF02B0704700BF00E100E000ED00E0F8
:1097FC0082B00190019B03F06043B3F1005F0CBF9A
:10980C0001230023DBB2184602B0704782B00190EE
:10981C00019B1B0B5BB2184602B0704700B583B0BE
:10982C0003460A468DF8073013468DF806309DF82E
:10983C000630012B03D99DF80630032B0BD99DF86C
:10984C000630042B03D99DF80630072B03D90849A1
:10985C006B20FCF7C1FD9DF806209DF907301146E1
:10986C001846FFF79DFF00BF03B05DF804FB00BF77
:10987C0074EB020000B583B003468DF807309DF9F8
:10988C0007301846FFF750FF00BF03B05DF804FB2C
:10989C0000B583B003468DF807309DF907301846A4
:1098AC00FFF75CFF00BF03B05DF804FB84B00190D0
:1098BC000B46ADF80230BDF80230019A1344002279
:1098CC001A60BDF80230019A13441B680393039B82
:1098DC0000BF04B0704782B001900B46ADF8023067
:1098EC00BDF80230019A13441B68002B14BF0123EE
:1098FC000023DBB2184602B0704782B00190009191
:10990C00019BD3F80022009BDB431A40019BC3F858
:10991C00002200BF02B0704782B001900091019B01
:10992C00009AC3F8042300BF02B0704782B00190C4
:10993C000091019B009AC3F8082300BF02B0704746
:10994C0084B00190019BD3F880340393019B039A5C
:10995C00C3F88024039B184604B0704782B0019072
:10996C00019B0822C3F8002500BF02B0704782B0EB
:10997C000190019B0022C3F8002500BF02B0704784
:10998C0084B0039002910192039B029AC3F80C25B8
:10999C00039B019AC3F8142500BF04B0704700B5AF
:1099AC0083B001904FF0FF324FF0FF310198FFF779
:1099BC00E7FF00BF03B05DF804FB82B00190019B90
:1099CC00D3F80C35184602B0704782B00190019B59
:1099DC00D3F81435184602B0704782B00190019B41
:1099EC00D3F80835184602B0704782B00190019B3D
:1099FC00D3F81035184602B0704784B0039002912A
:109A0C000192039B029AC3F80825039B019AC3F8A1
:109A1C00102500BF04B0704700B583B001904FF023
:109A2C00FF324FF0FF310198FFF7E7FF00BF03B0A3
:109A3C005DF804FB82B001900B468DF803309DF865
:109A4C000330019A134401221A6000BF02B0704720
:109A5C0082B001900B468DF8033013468DF802301E
:109A6C009DF803209DF802301343DBB21A46019B8C
:109A7C00C3F86C2500BF02B0704782B00190009112
:109A8C00019B009AC3F8242500BF02B0704784B034
:109A9C00039002910192029A039BC3F84425039B05
:109AAC00019AC3F8482500BF04B0704782B00190FA
:109ABC00019BD3F84C35184602B0704782B0019028
:109ACC00019BD3F83C35184602B0704700B583B003
:109ADC000190019B1B68184600F096F80346002B7A
:109AEC0004D105494FF4F670FCF776FC4FF0A04317
:109AFC00184603B05DF804FBA4EB020000B585B07A
:109B0C000190084611461A4603468DF803300B4661
:109B1C008DF8023013468DF8013001AB1846FFF773
:109B2C00D5FF03909DF803209DF802305B001A438B
:109B3C009DF801309B001A439DF818301B0242EA35
:109B4C0003019DF81C301B04019A1943039B02F579
:109B5C00E07243F8221000BF05B05DF804FB00B5BD
:109B6C0085B003900023019300230093002301226E
:109B7C0001210398FFF7C2FF00BF05B05DF804FB9D
:109B8C0000B585B003900B468DF80B309DF80B306B
:109B9C000022019200220092002200210398FFF77C
:109BAC00ADFF00BF05B05DF804FB00B585B00390B8
:109BBC00002301930023009300230122002103982A
:109BCC00FFF79CFF00BF05B05DF804FB00B585B046
:109BDC00019001AB1846FFF779FF0390019B01221E
:109BEC0002FA03F31946039800F004F800BF05B01D
:109BFC005DF804FB82B001900091019B009AC3F8C0
:109C0C00082500BF02B0704784B00190019B5B092E
:109C1C00029300230393029B002B03D14FF0FF33DD
:109C2C00039300BF019B03F01F030193039A019B55
:109C3C0022FA03F303F00103002B14BF01230023CA
:109C4C00DBB2184604B0704700B583B001900091A8
:109C5C00009B1B68B3F1FF3F09D0009B1B681846A3
:109C6C00FFF7B4FF009B1B681846FFF778FF009BBB
:109C7C005B68B3F1FF3F05D0009B5B680021184681
:109C8C00FFF77EFF019B1A68009B9B6919461046E3
:109C9C00FFF7F3FE019B1868009B597D009B1B7D11
:109CAC001A46FFF7D5FE019B1868009B1968009BAC
:109CBC005B681A46FFF764FE009B1B7D012B22D1CB
:109CCC00009B9B68B3F1FF3F05D0009B9B68002174
:109CDC001846FFF755FF009BDB68B3F1FF3F09D037
:109CEC00009BDB681846FFF771FF009BDB6818468A
:109CFC00FFF735FF019B1868009BD968009B9B6898
:109D0C001A46FFF77AFE00BF03B05DF804FB0000B3
:109D1C0000B583B001900B468DF80330019B1B6896
:109D2C004FF488711846FFF7C1FD019B1B684FF477
:109D3C0090711846FFF7BAFD019B1B684FF49271A6
:109D4C001846FFF7B3FD019B1B684FF4A271184630
:109D5C00FFF7ACFD019B1B684FF4AC711846FFF785
:109D6C00A5FD019B1B680F491846FFF7D5FD019B0C
:109D7C001B681846FFF74AFD03461A469DF8033048
:109D8C0019461046FFF74AFD019B1B681846FFF762
:109D9C003DFD03461846FFF76DFD00BF03B05DF8AF
:109DAC0004FB00BF1003420000B583B00190019B7F
:109DBC001B6808491846FFF7B9FD019B1B6818463C
:109DCC00FFF724FD03461846FFF762FD00BF03B002
:109DDC005DF804FB1003420000B587B00190019BB5
:109DEC001B681846FFF7E9FD0590019B1B68184698
:109DFC00FFF7EBFD0490019B1B681846FFF7EDFD88
:109E0C000390019B1B681846FFF7EFFD0290019B26
:109E1C001B681846FFF7C3FD019B1B681846FFF72C
:109E2C00FBFD059BB3F1FF3F02D00598FFF7BDFE8C
:109E3C00049BB3F1FF3F02D00498FFF7B6FE029BE0
:109E4C00B3F1FF3F02D00298FFF7AFFE039BB3F1D3
:109E5C00FF3F02D00398FFF7A8FE00BF07B05DF8E4
:109E6C0004FB000000B587B0039002910192029BA5
:109E7C00002B03D12B49CF20FCF7AEFA039B1B79A7
:109E8C001A461346DB0013449B00274A13440493E1
:109E9C0000230593049B93F82030002B03D0082358
:109EAC000593059B3AE0039B1A68039B1B791946A3
:109EBC001E4B53F8213019461046FEF78FFD034612
:109ECC00002B03D011230593059B27E002990398DF
:109EDC00FFF7BAFE049B019A5A60029B1A69049B15
:109EEC001A60049B5B68002B05D0029B1B7F1946F4
:109EFC000398FFF70DFF039B1B681846FFF72EFD19
:109F0C00049B00229A61049B0022DA61049B0022CC
:109F1C005A61049B012283F82020059B184607B048
:109F2C005DF804FBDCEB0200801A002034EC02002C
:109F3C0000B585B00190019B1B791A461346DB00D6
:109F4C0013449B002A4A13440393019B1B680293FE
:109F5C00039B5B68002B02D00198FFF725FF2021A3
:109F6C000298FFF7CAFC039B9B69002B08D04FF4A7
:109F7C00A2710298FFF79AFC04210298FFF75AFD90
:109F8C004FF4AC710298FFF791FC0C210298FFF78B
:109F9C0051FD00BF4FF4AC710298FFF79CFC0346D7
:109FAC0083F00103DBB2002BF4D1039B9B69002BE4
:109FBC000AD04FF4A2710298FFF78DFC034683F090
:109FCC000103DBB2002BE5D10298FFF7D0FC01981E
:109FDC00FFF702FF0298FEF743FD039B002283F874
:109FEC002020039B00225A6000BF05B05DF804FBE3
:109FFC00801A002000B589B0039002910192039B56
:10A00C001B791A461346DB0013449B00564A134433
:10A01C000593059B93F82030012B04D0534940F253
:10A02C005310FCF7D9F9029B002B04D14F494FF484
:10A03C00AA70FCF7D1F9019B002B04D14B4940F2DB
:10A04C005510FCF7C9F9039B1B79002B02D1019B1E
:10A05C00FF2B04D945494FF4AB70FCF7BDF90298BE
:10A06C00FFF7C6FB034683F00103DBB2002B03D0E2
:10A07C0010230793079B73E0039800F079F80346CD
:10A08C00002B03D011230793079B69E0059B019AD2
:10A09C005A61059B029A9A6000230793039B1B68E5
:10A0AC004FF490711846FFF701FC039B1B684FF4AB
:10A0BC00AC711846FFF7FAFB039B1868059B99686F
:10A0CC00059B5B691A46FFF7E2FC039B1B680821A2
:10A0DC001846FFF7AFFC059B5B68002B3FD1039B39
:10A0EC001B684FF490711846FFF7F5FB03468DF88B
:10A0FC001B30039B1B684FF4AC711846FFF7EBFB4E
:10A10C0003468DF81A309DF81B3083F00103DBB247
:10A11C00002B06D09DF81A3083F00103DBB2002B24
:10A12C00DDD19DF81A30002B02D00F23079313E0DA
:10A13C00039B1B680C211846FFF77CFC00BF039B9C
:10A14C001B684FF4AC711846FFF7C5FB034683F050
:10A15C000103DBB2002BF2D1059B00225A61079B55
:10A16C00184609B05DF804FB801A0020DCEB0200F5
:10A17C0082B00190019B1B791946084A0B46DB0003
:10A18C000B449B00134414331B68002B14BF012396
:10A19C000023DBB2184602B0704700BF801A0020C3
:10A1AC0000B589B003900291019201238DF8103013
:10A1BC00029B0693019B0593039B5B68039A1168B2
:10A1CC0004AA1046984700BF09B05DF804FB00B51F
:10A1DC0087B00190009100238DF80830009B049308
:10A1EC00019B9B680393019B00225A61019B5B6856
:10A1FC00019A116802AA1046984700BF07B05DF893
:10A20C0004FB00B589B0019000914FF49271019854
:10A21C00FFF761FB0346002B22D04FF4927101989B
:10A22C00FFF744FB02238DF808300198FFF788FBF9
:10A23C00034605930198FFF741FC03460493009BEA
:10A24C00DB680393009B00229A61009B0022DA6179
:10A25C00009B5B68009A116802AA104698473BE085
:10A26C004FF488710198FFF736FB0346002B33D06F
:10A27C004FF488710198FFF719FB0198FFF71EFC4A
:10A28C000790009B9B69079A9A4225D1009BDB693A
:10A29C00002B17D0009BDB68069320210198FFF759
:10A2AC002CFB009BDA69009B9A61009B1A69009B4E
:10A2BC00DA60009B0022DA61069A07990098FFF792
:10A2CC006FFF09E0009B00229A61009BDB681A4635
:10A2DC0007990098FFF764FF4FF4A2710198FFF7FC
:10A2EC00FAFA0346002B18D04FF4A2710198FFF72D
:10A2FC00DDFA009B9B69002B0FD0009B00229A611A
:10A30C00009B0022DA610198FFF7D8FB0146009B05
:10A31C00DB681A460098FFF743FF4FF490710198E1
:10A32C00FFF7D9FA0346002B14D04FF49071019823
:10A33C00FFF7BCFA0C210198FFF77CFB009B5B69D3
:10A34C00002B07D00198FFF7B1FB03461946009884
:10A35C00FFF73DFF4FF4AC710198FFF7BCFA0346D1
:10A36C00002B10D04FF4AC710198FFF79FFA009BB3
:10A37C005B69002B07D00198FFF798FB0346194641
:10A38C000098FFF724FF00BF09B05DF804FB000044
:10A39C0008B503490348FFF734FF00BF08BD00BFF1
:10A3AC00801A00200020004086B003900291019298
:10A3BC0001238DF817309DF81730204A039B13604A
:10A3CC001E4A029B53601D4A019B9360039B44F2FF
:10A3DC000102934212D0039B44F20202934220D119
:10A3EC00019B164AD360154BDB681B68134A9361BB
:10A3FC00124BDB685B68114AD36112E0019B0F4A78
:10A40C0013610E4B1B699B680C4A53610B4B1B6908
:10A41C001B680A4A9361094B1B695B68074AD36145
:10A42C0000BF72B600BF00BF9DF81730DBB2002B27
:10A43C00FAD162B600BF00BF06B07047A41A002064
:10A44C0000B583B002900091019244F20100714674
:10A45C006A4600F003F803B000BD00BF30B58BB006
:10A46C0007900691059272B600BF03F0C3FA03F091
:10A47C007FF80346002BFAD1079B44F20202934269
:10A48C002FD0079B44F20202934269D8079B44F2F7
:10A49C000102934237D0079B44F2010293425FD8EA
:10A4AC00079B012B05D0079B41F2010293420CD074
:10A4BC0056E0394A394BD31ADB081B0443F001032D
:10A4CC003749184602F0F8FF57E0334A334BD31A9A
:10A4DC00DB081B0443F001033249184602F0ECFF81
:10A4EC004BE0059B09932C4A2C4BD31ADB081B041D
:10A4FC0043F00100099B5B681A46099B1B682A49BB
:10A50C0002F0F9FF39E0059B0893234A234BD31A39
:10A51C00DB081B0443F00104089B9D68089B9B68A7
:10A52C00184602F093FA03461846089B5B681946D6
:10A53C00089B1B68069A02920193009103462A46D7
:10A54C001A49204602F0EBFF134A144BD31ADB08CE
:10A55C001B0443F001031649184602F0ADFF0CE052
:10A56C000D4A0E4BD31ADB081B0443F00103069A69
:10A57C001049184602F0AEFF00BF0F4B1B6803F0EA
:10A58C000103002B00D000BE059A06990798FFF72F
:10A59C000BFF00BF0BB030BDECE70200C4E70200BC
:10A5AC009CEC0200BCEC0200E0EC0200FCEC0200B3
:10A5BC0024ED020038ED0200F0ED00E02DE9F0434F
:10A5CC0083B0144801F057F8034600221C46154688
:10A5DC00114BD3E9002314EB020845EB0309CDE939
:10A5EC0000890E4BD3E90023DDE90001904271EBA9
:10A5FC00030307D2DDE9002312F1807643F1000753
:10A60C00CDE90067DDE900231046194603B0BDE82B
:10A61C00F08300BF18190020D01A0020D81A00208F
:10A62C0088B001900091019B0793009B0693079BB8
:10A63C00D3E90223CDE90423069BD3E90223CDE918
:10A64C000223DDE90423DDE90201904271EB0303EF
:10A65C002CBF01230023DBB2184608B07047000062
:10A66C00F0B585B00190019B5B69002B03D1434988
:10A67C00A520FBF7B1FE00238DF80F30404B1B7863
:10A68C00002B75D0019B002B72D0FFF797FF019B1D
:10A69C00D3E90223904271EB030358D300238DF8C6
:10A6AC000D300DF10D03184600F0D4FB019B1B6916
:10A6BC00002B06D101994FF0FF324FF0FF33C1E967
:10A6CC0002239DF80D30184600F0DAFB019B5B6904
:10A6DC00019A92691046984700238DF80C3003AB11
:10A6EC00184600F0B7FB019B1B69002B1AD0019B8D
:10A6FC00D3E90223B3F1FF3F08BFB2F1FF3F11D002
:10A70C00019BD3E902230199096900200C460546F7
:10A71C00161943EB0507019BC3E9026701238DF86A
:10A72C000E3002E000238DF80E309DF80C301846E8
:10A73C0000F0A6FB9DF80E30002B19D0019B19469A
:10A74C00104802F0DDF801238DF80F3010E0019B6A
:10A75C00D3E90223B3F1FF3F08BFB2F1FF3F07D0AB
:10A76C00019B1946074802F0CBF801238DF80F30F6
:10A77C009DF80F30184605B0F0BD00BF5CED02002F
:10A78C00C81A0020B8ED020030B58BB001900091D2
:10A79C000D230993009B00221A70019BD3E902231D
:10A7AC00CDE90623FFF70AFFDDE90623141A63EB54
:10A7BC000105CDE90445DDE90423012A73F1000309
:10A7CC0018DB049BB3F5350F05D300F0C5FA024630
:10A7DC00144B134400E0069B03934FF49603039A27
:10A7EC000021114800F03AFE0990099B002B05D17D
:10A7FC00012314E000210C4800F008FF099B0D2BED
:10A80C0007D10198FFF72CFF03461A46009B1A70DC
:10A81C0004E006494FF48670FBF7DEFD0023184672
:10A82C000BB030BDFFFFB400181900205CED020026
:10A83C0000B583B0044802F09DF80190019B1846C6
:10A84C0003B05DF804FB00BFB8ED020000B583B0A7
:10A85C00044802F0B1F80190019B184603B05DF872
:10A86C0004FB00BFB8ED020000B583B0FFF7E0FFBA
:10A87C000190019B002B06D001994FF0FF324FF055
:10A88C00FF33C1E90223019B002BEFD100BF00BFB6
:10A89C0003B05DF804FB0000054BD3E9002312F173
:10A8AC00807043F10001024BC3E9000100BF704707
:10A8BC00D01A002010B582B00190124B1B68002BEF
:10A8CC001DD0019800F0D7FE04460021019800F03D
:10A8DC00C3FE03461946204600F032FA0346B3F590
:10A8EC00960F04D3084940F24110FBF775FD054B58
:10A8FC001B681846FFF7B4FE024B00221A6000BF1B
:10A90C0002B010BDC41A00205CED020000B583B08B
:10A91C000190FFF753FE02460B460349C1E90023A1
:10A92C0000BF03B05DF804FBD81A002000B587B057
:10A93C000190FFF78BFF049000238DF81730049BD8
:10A94C00002B58D0049BD3E90223B3F1FF3F08BF7F
:10A95C00B2F1FF3F02D1FFF76BFF54E02E4B1B68A7
:10A96C00002B03D101238DF817301DE0049BD3E994
:10A97C000201294B1B68D3E90223904271EB0303BC
:10A98C0012D201238DF81730234B1B68D3E9022315
:10A99C00B3F1FF3F08BFB2F1FF3F05D01E4B1B6860
:10A9AC0019461E4801F0ACFF9DF81730002B2BD038
:10A9BC00FFF73EFF04900DF10F0319460498FFF7C3
:10A9CC00E3FE0346002B12D0134B1B68002B02D165
:10A9DC00019800F04FFC104A049B13609DF80F3057
:10A9EC0083F00103DBB2002BA3D000BF0FE00A4BB6
:10A9FC0000221A609DE7084B1B68002B06D10198BA
:10AA0C0000F04EFC02E094E700BF00E000BF00BF86
:10AA1C0007B05DF804FB00BFC41A0020B8ED0200BB
:10AA2C0000B587B001902B4A03AB1946104600F0D5
:10AA3C0020FF049045E0049B1B78022B2BD0022BAB
:10AA4C002FDC002B02D0012B11D02AE0049B5B6879
:10AA5C00D3E90223B3F1FF3F08BFB2F1FF3F22D08D
:10AA6C00049B5B6819461C4801F04AFF1BE0049BE1
:10AA7C005A681A4B1B689A4203D1184B00221A6071
:10AA8C0012E0049B5B681946134801F0A9FF0346CA
:10AA9C008DF8173008E0FFF7E7FE114B01221A7012
:10AAAC0002E000BF00E000BF0A4A03AB19461046A3
:10AABC0000F0F8FE074A03AB1946104600F0D9FE29
:10AACC000490049B002BB6D100BF00BF07B05DF80B
:10AADC0004FB00BF381B0020B8ED0200C41A002094
:10AAEC00C81A002000B583B00190019800F081FDD8
:10AAFC000346002B01D0FFF7CFFE0021019800F098
:10AB0C0096FD0346002B02D00198FFF7D3FE0121DE
:10AB1C00019800F08CFD0346002B02D00198FFF742
:10AB2C00F5FE0198FFF77CFF0198FFF7FFFE00BFD1
:10AB3C0003B05DF804FB000008B5024800F0A8FD66
:10AB4C0000BF08BD1819002000B585B00346009160
:10AB5C008DF80730114A02AB1946104600F05CFE26
:10AB6C000390039B002B13D0039B9DF807201A70B6
:10AB7C00039B009A5A60094A02AB1946104600F032
:10AB8C0064FE0346002B01D0FFF7D6FF002300E044
:10AB9C000423184605B05DF804FB00BF381B0020E9
:10ABAC0000B583B0164B1B68009316480823582237
:10ABBC00154900F0FEFD0190019B002B01D0019B7B
:10ABCC0019E06B46114A1946114800F0D5FA01906C
:10ABDC00019B002B01D0019B0DE001210C4800F0E2
:10ABEC00F7FC01230B4A0121094800F06FFB0A4BCB
:10ABFC0001221A70019B184603B05DF804FB00BFDC
:10AC0C00B4ED0200381B0020E01A0020F1AA02006B
:10AC1C0018190020FFFF7F00C81A002000B587B06C
:10AC2C0003900B4601928DF80B30039B002B04D143
:10AC3C00164940F25A20FBF7CFFB019B002B04D1A5
:10AC4C00124940F25B20FBF7C7FB019B002B01D1A3
:10AC5C00072317E0039B1B68059305994FF0FF3200
:10AC6C004FF0FF33C1E90223059B019A5A619DF80D
:10AC7C000B30012B0CBF01230023DBB21A46059BC2
:10AC8C001A610023184607B05DF804FB5CED020066
:10AC9C00F0B589B0039002910192039B002B04D173
:10ACAC00264940F26B20FBF797FB039B069300238E
:10ACBC008DF817300DF11703184600F0CBF8069BF2
:10ACCC00D3E90223B3F1FF3F08BFB2F1FF3F11D12B
:10ACDC00FFF774FC02460B46029900200C46054611
:10ACEC00161943EB0507069BC3E9026701238DF890
:10ACFC001F3002E000238DF81F309DF817301846E6
:10AD0C0000F0BEF89DF81F3083F00103DBB2002B7E
:10AD1C0001D000230EE0069B019A9A61069B1B69E9
:10AD2C00002B02D0069B029A1A6106990020FFF7AD
:10AD3C000BFF0346184609B0F0BD00BF5CED0200E6
:10AD4C0082B001900091019A009BD31A23F07F43AB
:10AD5C00184602B07047000008B5034800F08BFCA1
:10AD6C000346184608BD00BF1819002082B0EFF347
:10AD7C0010830093009B019372B600BF019B184691
:10AD8C0002B0704762B600BF00BF704700B585B017
:10AD9C000190FFF7EBFF0390164B9B68002B1BD128
:10ADAC00144B01229A60144BD3F88020134B1340A0
:10ADBC00104A1360104B114AC3F880200E4BD3F885
:10ADCC0084300C4A53600C4B4FF0FF32C3F8842094
:10ADDC00019B00221A7002E0019B01221A70039B56
:10ADEC00002B01D1FFF7CEFF0023184605B05DF80C
:10ADFC0004FB00BF4C1B002000E100E0FC06FFBD83
:10AE0C0000B585B003468DF80730104B9B68002BBE
:10AE1C0016D09DF80730002B12D1FFF7A7FF039037
:10AE2C000B4A0A4B1B681360094A084B5B6853605A
:10AE3C00064B00229A60039B002B01D1FFF7A2FF67
:10AE4C000023184605B05DF804FB00BF4C1B002026
:10AE5C0000E100E000B583B0019000F02BF8034650
:10AE6C00012B03D005494320FBF7B6FA0198FFF7F5
:10AE7C008DFF00BF03B05DF804FB00BFC4ED020002
:10AE8C0000B583B003468DF8073000F013F8034685
:10AE9C00012B03D006495120FBF79EFA9DF8073091
:10AEAC001846FFF7ADFF00BF03B05DF804FB00BF11
:10AEBC00C4ED020084B0EFF305830193019BC3F34F
:10AECC0008030393039B002B0DD1EFF31483009322
:10AEDC00009B0293029B03F00103002B0CBF012388
:10AEEC000023DBB200E00123184604B070470000D9
:10AEFC0082B003468DF807309DF90730002B0CDB30
:10AF0C009DF8073003F01F0205499DF907305B09D6
:10AF1C00012000FA02F241F8232000BF02B0704772
:10AF2C0000E100E082B003468DF807309DF9073050
:10AF3C00002B0DDB9DF8073003F01F0206499DF92D
:10AF4C0007305B09012000FA02F2403341F823205C
:10AF5C0000BF02B0704700BF00E100E082B00346C2
:10AF6C0000918DF807309DF90730002B0ADB009B10
:10AF7C00DAB20C499DF907305201D2B20B4483F876
:10AF8C0000230BE0009BDAB207499DF8073003F071
:10AF9C000F03043B5201D2B20B441A7600BF02B02D
:10AFAC00704700BF00E100E000ED00E000B583B0A9
:10AFBC0003460A468DF8073013468DF806309DF887
:10AFCC000630012B03D99DF80630032B0BD99DF8C5
:10AFDC000630042B03D99DF80630072B03D90849FA
:10AFEC006B20FBF7F9F99DF806209DF90730114607
:10AFFC001846FFF7B3FF00BF03B05DF804FB00BFBA
:10B00C0024EE020000B583B003468DF807309DF99D
:10B01C0007301846FFF76CFF00BF03B05DF804FB68
:10B02C0000B585B00190019B002B0AD0074B43F073
:10B03C0001030393019B9B010293039B0298984786
:10B04C0000E000BF05B05DF804FB00BF30EF02006C
:10B05C0084B0039002910192039B029A02F5A872AC
:10B06C00019943F8221000BF04B0704782B00190E0
:10B07C000091019B009A02F5A87253F822301846F1
:10B08C0002B0704782B001900091019B009AC3F806
:10B09C00042300BF02B0704782B001900091019B65
:10B0AC00009AC3F8082300BF02B0704782B0019029
:10B0BC000B46ADF80230BDF80230019A13441B6800
:10B0CC00184602B0704784B001900B46ADF80230C0
:10B0DC00BDF80230019A134400221A60BDF8023008
:10B0EC00019A13441B680393039B00BF04B0704781
:10B0FC0082B00190019BD3F80435184602B070471A
:10B10C0000B583B001900091009BB3F5805F04D330
:10B11C0006494FF4BE70FBF75FF9019B009AC3F828
:10B12C00082500BF03B05DF804FB00BF54EE02001D
:10B13C0082B001900B468DF803309DF80320019BE3
:10B14C0013441A460123136000BF02B0704782B04B
:10B15C0001900091019B009AC3F8442300BF02B0F8
:10B16C00704782B001900091019B009AC3F848236C
:10B17C0000BF02B07047000000B587B00390029189
:10B18C000192039B002B03D133495520FBF724F983
:10B19C00029B002B03D130495620FBF71DF9019B74
:10B1AC00002B03D12C495720FBF716F9039B5B7935
:10B1BC0019462A4A019B42F82130039B5B79284AA5
:10B1CC00DB0013441B79002B0ED008230593254A72
:10B1DC00254BD31ADB081B0443F002032349184602
:10B1EC0002F06AF9059B32E0039B1A68029B1B88EC
:10B1FC0019461046FFF784FF039B93F90420029B2A
:10B20C009B7819461046FFF7D1FE039B93F9043047
:10B21C001846FFF7F7FE039B5B79114ADB001344DA
:10B22C0001221A71039B5B7919460D4A039B42F864
:10B23C003130002305930B4A0B4BD31ADB081B044C
:10B24C0043F003030A49184602F036F9059B1846E9
:10B25C0007B05DF804FB00BF84EE0200581B002011
:10B26C005C1B0020FCE70200C4E70200D8EE0200E1
:10B27C00FCEE020000B583B00190019B002B03D1C2
:10B28C0006498720FBF7A8F8019B1B68002118468C
:10B29C00FFF74EFF00BF03B05DF804FB84EE020025
:10B2AC0000B583B00190019B002B03D106498D2082
:10B2BC00FBF792F8019B1B6804211846FFF738FF37
:10B2CC0000BF03B05DF804FB84EE020000B587B04C
:10B2DC000390029101928DF80330039B002B03D154
:10B2EC0021499620FBF778F84FF48032029B02FA42
:10B2FC0003F30593029B50339BB29B00ADF81230C5
:10B30C00019B23F07F430193039B1B68059918460F
:10B31C00FFF7C2FE039B1B6805991846FFF721FF38
:10B32C00039B1B68BDF8122011461846FFF7CBFE95
:10B33C00039B1B68019A02991846FFF789FE039B31
:10B34C001B6805991846FFF702FF9DF80330002B88
:10B35C0005D0039B1B6805991846FFF793FE00BFA9
:10B36C0007B05DF804FB00BF84EE020000B585B0A9
:10B37C000390029113468DF80730039B002B03D1E9
:10B38C000B49A920FBF728F8039B1B680299184668
:10B39C00FFF7DDFE9DF80730002B05D0039B1B68E3
:10B3AC0002991846FFF76EFE00BF05B05DF804FB6E
:10B3BC0084EE020000B583B001900091019B002B3C
:10B3CC0003D10A49B320FBF707F8019B1B680099CE
:10B3DC001846FFF7C6FE019B1B6800991846FFF73D
:10B3EC005BFE00BF03B05DF804FB00BF84EE0200FF
:10B3FC0000B583B001900B46ADF80230019B002BD9
:10B40C0003D10F49BA20FAF7E7FF019B1B68BDF87F
:10B41C00022011461846FFF749FE0346002B09D0BF
:10B42C00019B1B68BDF8022011461846FFF74BFE26
:10B43C00012300E00023184603B05DF804FB00BFB5
:10B44C0084EE020082B001900091019A009BD31A05
:10B45C0023F07F43184602B07047000000B58BB054
:10B46C000390029101920093039B002B03D1574947
:10B47C00CD20FAF7B1FF4FF48032029B02FA03F3AE
:10B48C000993029B50339BB29B00ADF82230019B79
:10B49C0023F07F43019309990398FFF78BFF039BDC
:10B4AC001B681846FFF724FE0790039B1B68029944
:10B4BC001846FFF7DBFD0690039B1B68079A029961
:10B4CC001846FFF7C5FD039B1B68BDF822201146EB
:10B4DC001846FFF7F8FD07990698FFF7B3FF0346E8
:10B4EC00012B0AD11020FFF79BFD039B1B68BDF8B5
:10B4FC00222011461846FFF7E6FD039B1B681846F1
:10B50C00FFF7F6FD079007990198FFF79BFF059051
:10B51C00039B1B6809991846FFF719FE059B012B25
:10B52C0015D1039B1868019B01331A460299FFF74A
:10B53C008FFD1020FFF774FD039B1B681846FFF767
:10B54C00D7FD0246079B934235D00D2339E0039B70
:10B55C001B68019A02991846FFF77AFD039B1B683A
:10B56C001846FFF7C5FD0790019B013B079918464C
:10B57C00FFF768FF0590009BC3F1FF1303F57F43B2
:10B58C00059A9A4201D90D231BE0059B002B12D181
:10B59C00039B1868019B01331A460299FFF758FD6B
:10B5AC00039B1B681846FFF7A3FD0246079B9342BB
:10B5BC0001D00D2305E0012209990398FFF7D6FE6F
:10B5CC00002318460BB05DF804FB00BF84EE0200AC
:10B5DC0000B583B001900B468DF803309DF8033015
:10B5EC001A4602210198FFF7C1FE00BF03B05DF8B7
:10B5FC0004FB00B583B001904FF482710198FFF702
:10B60C00F7FE0346184603B05DF804FB00B583B0A3
:10B61C00019000914FF48032009B02FA03F319461B
:10B62C000198FFF7C7FE00BF03B05DF804FB00B53F
:10B63C0085B001900091009B50339BB29B00ADF8FC
:10B64C000E30BDF80E3019460198FFF7D1FE0346B7
:10B65C00184605B05DF804FB00B583B0019000916D
:10B66C00019B1B6800991846FFF700FD034618461E
:10B67C0003B05DF804FB00B583B00190019B1B681F
:10B68C001846FFF735FD0346184603B05DF804FB7A
:10B69C0000B583B00190019B93F904301846FFF775
:10B6AC0041FC00BF03B05DF804FB000008B5044B7F
:10B6BC001B68044A12681046984700BF08BD00BFBB
:10B6CC00581B00205C1B002086B001900091019B50
:10B6DC0053E8011F8AB2D88902449889824228BF54
:10B6EC00121A1889824202BFBFF32F8F002307E082
:10B6FC00C2EA010243E801200028E9D14FF001031E
:10B70C008DF80F30059002910492029A009B1A60FA
:10B71C009DF80F30DBB2184606B0704784B001902C
:10B72C00019951E8013FC3EA034341E80132002A81
:10B73C00F7D10392029300BF04B0704786B001901A
:10B74C000091019B53E8021F1FFAA1F2D888824294
:10B75C0002BFBFF32F8F00230DE0D88902449889D4
:10B76C00824228BF121AC1EA024243E80220002892
:10B77C00E8D14FF001038DF80F300590029104923F
:10B78C00029A009B1A609DF80F30DBB2184606B087
:10B79C00704784B00190019951E8023FC3EA2343FA
:10B7AC0041E80232002AF7D10392029300BF04B0A1
:10B7BC00704784B00390029111461A460B46ADF8BF
:10B7CC0006301346ADF80430029B002B01D10E233A
:10B7DC001FE0BDF80630BDF80420B3FBF2F101FB0D
:10B7EC0002F29B1A9BB2002B01D0092311E0039BA0
:10B7FC00029A1A60039B00225A60039B00229A60F3
:10B80C00039BBDF806209A81039BBDF80420DA81C6
:10B81C000023184604B0704700B585B00190009124
:10B82C00009B19460198FFF74FFF0346002B07D0EA
:10B83C00019B1B68009A128813440393039B00E03E
:10B84C000023184605B05DF804FB00B583B00190E9
:10B85C000091009B1A88009B5B889A4204D1019846
:10B86C00FFF75CFF012300E00023184603B05DF8EE
:10B87C0004FB00B585B001900091009B194601981E
:10B88C00FFF75CFF0346002B07D0019B1B68009A57
:10B89C00528813440393039B00E00023184605B021
:10B8AC005DF804FB00B583B001900091009B1A88F1
:10B8BC00009B5B889A4204D10198FFF76AFF012331
:10B8CC0000E00023184603B05DF804FB10B487B009
:10B8DC0001900091019B009A53E8004F104643E8F9
:10B8EC00000191F0000FF7D1059404900391059B92
:10B8FC00184607B05DF8044B704710B487B0019040
:10B90C000091019B009A53E8004F44EA020043E87F
:10B91C00000191F0000FF6D1059404900391049B63
:10B92C00184607B05DF8044B704710B487B001900F
:10B93C000091019B009A53E8004F04EA020043E88F
:10B94C00000191F0000FF6D1059404900391059B32
:10B95C00184607B05DF8044B704710B487B00190DF
:10B96C000091019B009A53E8004F04EB020043E85E
:10B97C00000191F0000FF6D1059404900391049B03
:10B98C00184607B05DF8044B704710B487B00190AF
:10B99C000091019B009A53E8004FA4EB020043E88E
:10B9AC00000191F0000FF6D1059404900391049BD3
:10B9BC00184607B05DF8044B704700B583B0019092
:10B9CC0001210198FFF799FF0346184603B05DF873
:10B9DC0004FB00B583B0019000210198FFF7A5FF8F
:10B9EC000346184603B05DF804FB000000B583B0B5
:10B9FC0001900B468DF80330019B002B03D10849B5
:10BA0C00E820FAF7E9FC019BDA689DF8033001990C
:10BA1C00098A01FB03F31344184603B05DF804FBD9
:10BA2C0038EF020000B583B001900091019B002B10
:10BA3C0003D10849F520FAF7CFFC009B019AD26894
:10BA4C009B1A019A128AB3FBF2F3DBB2184603B0CD
:10BA5C005DF804FB38EF020000B585B00190019B46
:10BA6C00002B01D10E234CE0019B1B68002B03D152
:10BA7C002649FF20FAF7B0FC019B5B68002B04D130
:10BA8C0022494FF48070FAF7A7FC019B9B68002BAE
:10BA9C0004D11E4940F20110FAF79EFC019BDB68B1
:10BAAC00002B04D119494FF48170FAF795FC019BD6
:10BABC001B8A002B04D1154940F20310FAF78CFCB9
:10BACC00019B9A68019B5B68D31A8DF80F30019B20
