:020000022000DC
:106000000000012019620200016202000362020026
:10601000056202000762020009620200000000003F
:106020000000000000000000000000000B62020001
:106030000D620200000000000F6202001162020007
:10604000493C030013620200A949030013620200E5
:106050001362020013620200A548030013620200EB
:106060001362020013620200136202001362020054
:106070001362020013620200136202001362020044
:10608000136202000D7D030013620200136202001E
:10609000136202001362020099D803001362020027
:1060A0001362020013620200136202001362020014
:1060B00013620200136202000000000000000000F2
:1060C00013620200136202001362020013620200F4
:1060D000136202001362020013620200000000005B
:1060E00000000000000000000000000000000000B0
:1060F00000000000000000000000000000000000A0
:10610000000000000000000000000000000000008F
:10611000000000000000000000000000000000007F
:10612000000000000000000000000000000000006F
:10613000000000000000000000000000000000005F
:10614000000000000000000000000000000000004F
:10615000000000000000000000000000000000003F
:10616000000000000000000000000000000000002F
:10617000000000000000000000000000000000001F
:10618000000000000000000000000000000000000F
:1061900000000000000000000000000000000000FF
:1061A00000000000000000000000000000000000EF
:1061B00000000000000000000000000000000000DF
:1061C00000000000000000000000000000000000CF
:1061D00000000000000000000000000000000000BF
:1061E00000000000000000000000000000000000AF
:1061F000000000000000000000000000000000009F
:10620000FEE7FEE7FEE7FEE7FEE7FEE7FEE7FEE766
:10621000FEE7FEE700F002B8FFF7FCBF0F484FF0C3
:106220000701884385460E4880470E48016841F4BF
:1062300070010160BFF34F8FBFF36F8F00F01AB88A
:1062400009480A490A4A884207D0521A05D00378F9
:1062500001300B700131013AF9D170470000012083
:10626000A58B020088ED00E034E2030050220020FC
:1062700064220020344935480A1A02D0072291438B
:106280008D46334933480A1A06D00722914381F3D9
:106290000988022282F314882F483049304A00F0DE
:1062A00041F830483049314A00F03CF83048314933
:1062B000314A00F037F831483149324A00F032F8BB
:1062C00031483249324A00F02DF832483249334AD7
:1062D00000F028F832483349334A00F023F83348B5
:1062E0003349002200F029F832483349002200F0F7
:1062F00024F832483249091A17F0B4FE314A90475F
:106300001F482049884205D00268043003B49047F2
:1063100003BCF7E700208646EC46002000212A4A0D
:106320009047FEE7884207D0521A05D00378013023
:106330000B700131013AF9D17047884202D00270E6
:106340000130FAE7704700000000012000E0002063
:106350000000012000000120F02104006422002040
:10636000042A0020CC630200CC63020078E0030022
:10637000F0210400642200206422002048E203008F
:1063800048E2030048E2030048E2030048E2030059
:1063900048E2030048E2030048E20300ED21040064
:1063A00090290400042A0020042A0020042A002046
:1063B000343E0020343E0020343E0020343E002095
:0C63C000345E002041620200697402009B
:1063CC0076DF704700BF18467ADF704700BF18466B
:1063DC007CDF704700BF18468FDF704700BF184640
:1063EC0033DF704700BF184600B583B003460091F9
:1063FC00ADF80630BDF80630009A1946034810F087
:10640C0003FB00BF03B05DF804FB00BFEFBEADDEC5
:10641C0000B583B0019001980AF016FB01980AF0C0
:10642C00B5FE01980AF074FB019B1B780D2B03D170
:10643C00002000F0EFFF00E000BF00BF03B05DF8EC
:10644C0004FB000000B585B01D480CF0E3FE039082
:10645C00039B0293029B002B04D01A4AD32102986F
:10646C0010F0D2FA184B01221A70184A184BD31A92
:10647C00DB081B0443F003031649184616F0D4FA44
:10648C000F480CF0EFFE0390039B0193019B002B34
:10649C0004D00C4AD921019810F0B6FA0E4B012207
:1064AC001A700A4A0A4BD31ADB081B0443F0030385
:1064BC000A49184616F0B8FA00BF05B05DF804FB9F
:1064CC00042A0020E0E20300563000206CE10300B7
:1064DC0044E103004CE303005730002068E3030061
:1064EC0000B587B00190019B9B8842F648229342ED
:1064FC0007D101238DF80C30019B1B7A8DF80D30E0
:10650C000CE0019B9B8842F64722934218D1002352
:10651C008DF80C30019B1B7A8DF80D3003AB1946AE
:10652C0009480CF0C7FE0590059B0493049B002BB7
:10653C0007D0064A4FF48071049810F065FA00E019
:10654C0000BF07B05DF804FB042A0020E0E2030062
:10655C0000B585B010480CF0E5FE0390039B029348
:10656C00029B002B05D00D4A40F20F11029810F03F
:10657C004BFA09480CF0FCFE0390039B0193019B22
:10658C00002B05D0054A4FF48971019810F03CFAA4
:10659C0000BF05B05DF804FB042A0020E0E2030014
:1065AC0000B583B000230193274B1B78022B12D12B
:1065BC00254B01221A70112001F0D0FD0190234AC5
:1065CC00234BD31ADB081B0443F003032149184661
:1065DC0016F02AFA28E01C4B1B78012B12D11A4B0F
:1065EC0000221A701C480CF02DFE0190174A184B13
:1065FC00D31ADB081B0443F003031849184616F0A2
:10660C0013FA11E0104B01221A7013480CF002FE21
:10661C0001900E4A0E4BD31ADB081B0443F0030304
:10662C000F49184616F000FA019B002B08D0019B6D
:10663C00082B05D00B4A40F23711019810F0E4F901
:10664C0000BF03B05DF804FB563000206CE1030082
:10665C0044E1030088E30300042A0020A0E30300C4
:10666C004CE30300E0E2030000B583B00023019388
:10667C00274B1B78022B12D1254B01221A701120AB
:10668C0001F06CFD0190234A234BD31ADB081B0449
:10669C0043F003032149184616F0C6F928E01C4BB9
:1066AC001B78012B12D11A4B00221A701C480CF0CB
:1066BC00F1FD0190174A184BD31ADB081B0443F069
:1066CC0003031849184616F0AFF911E0104B0122DC
:1066DC001A7013480CF0C6FD01900E4A0E4BD31ADB
:1066EC00DB081B0443F003030F49184616F09CF912
:1066FC00019B002B08D0019B082B05D00B4A4FF4B3
:10670C00AE71019810F080F900BF03B05DF804FB86
:10671C00573000206CE1030044E10300BCE30300AC
:10672C00042A0020D8E3030068E30300E0E203003E
:10673C0000B583B000230193254B1B78022B03D0AB
:10674C00234B1B78012B1BD1FF2122480CF04DFE53
:10675C000190019B002B08D0019B082B05D01E4AF1
:10676C004FF4B971019810F04FF91C4A1C4BD31A15
:10677C00DB081B0443F003031A49184616F054F9BE
:10678C00194B1B78022B03D0174B1B78012B1BD1F9
:10679C00FF2110480CF012FE0190019B002B08D039
:1067AC00019B082B05D00C4A40F27F11019810F088
:1067BC002BF90A4A0A4BD31ADB081B0443F00303D8
:1067CC000A49184616F030F900BF03B05DF804FB17
:1067DC0057300020042A0020E0E203006CE10300A3
:1067EC0044E10300F8E303005630002034E40300D6
:1067FC0000B587B00190019B9B8842F645229342DD
:10680C0040D14B4B1B78012B40F08E800E2001F0B9
:10681C00A5FC0590059B0393039B002B05D0454AD3
:10682C0040F29311039810F0EFF8414B02221A70CA
:10683C00414A424BD31ADB081B0443F00303404983
:10684C00184616F0F1F83C4A3C4BD31ADB081B04F3
:10685C0043F00300019B1B7A1A463A4B53F8223043
:10686C001A46394916F0EEF8334A344BD31ADB0882
:10687C001B0443F00300019B5B7A1A46334916F064
:10688C00E1F851E0019B9B8842F6462293424BD1A2
:10689C002F4B1B78012B47D10D2001F05FFC05908D
:1068AC00059B0493049B002B05D0224A40F2A111B6
:1068BC00049810F0A9F8264B02221A701E4A1F4B9E
:1068CC00D31ADB081B0443F003032249184616F0C5
:1068DC00ABF8194A194BD31ADB081B0443F003001D
:1068EC00019B1B7A1A46174B53F822301A4616494D
:1068FC0016F0A8F8104A114BD31ADB081B0443F00E
:10690C000300019B5B7A1A46134916F09BF80A4A5E
:10691C000A4BD31ADB081B0443F00300019B1B69D1
:10692C001A460E4916F08EF800BF07B05DF804FB4E
:10693C0057300020E0E203006CE1030044E1030067
:10694C006CE403005028002084E40300A4E403005A
:10695C0056300020C4E40300DCE40300FCE4030034
:10696C0000B583B010F000FC0190019B0093009BDC
:10697C00002B05D0044A40F2B911009810F044F8ED
:10698C0000BF03B05DF804FBE0E2030000B587B084
:10699C000190019B1B78042B43D801A252F823F0E1
:1069AC00C96902002F6A0200036A0200C169020071
:1069BC00FB6902000198FFF71BFF35E0019B59882A
:1069CC00019B08331A461A480CF026FD0590059BCE
:1069DC000493049B002B05D0164A4FF4EA710498DB
:1069EC0010F012F8FFF7B4FDFFF72CFD1CE0019836
:1069FC00FFF776FD18E0104B00221A700F4B0022A7
:106A0C001A70112001F0AAFB0590059B0393039BC0
:106A1C00002B08D0074A40F2E31103980FF0F4FF63
:106A2C0001E000BF00E000BF00BF07B05DF804FB51
:106A3C00042A0020E0E203005630002057300020EA
:106A4C0000B587B09DF80030012262F303038DF886
:106A5C0000309DF80030012262F307138DF80030EE
:106A6C006B4613221C491846FFF7B2FC0590059B98
:106A7C000493049B002B05D0184A40F2FD11049896
:106A8C000FF0C2FF01AB08220021184617F090FA54
:106A9C004FF4C873ADF804304FF44873ADF80630BA
:106AAC000023ADF808304FF4C873ADF80A3001ABD1
:106ABC001846FFF789FC0590059B0393039B002B5D
:106ACC0005D0064A40F2072103980FF09DFF00BF46
:106ADC0007B05DF804FB00BF1CE50300E0E2030017
:106AEC0000B583B00021094807F08EF80190019B96
:106AFC000093009B002B05D0054A4FF404710098BD
:106B0C000FF082FF00BF03B05DF804FB642A002085
:106B1C00E0E2030000B583B00190054A40F21D216C
:106B2C0001980FF071FF00BF03B05DF804FB00BFCC
:106B3C00E0E2030000B583B00190054A40F2272142
:106B4C0001980FF061FF00BF03B05DF804FB00BFBC
:106B5C00E0E2030000B58BB0002301931E4B0193C0
:106B6C0001AB19461D4807F04CFD0990099B089391
:106B7C00089B002B05D01A4A40F2372108980FF0D9
:106B8C0043FF02AB14220021184617F011FA12220F
:106B9C000021144817F00CFA134B029312230493A0
:106BAC00104B0593114B0393114B069302AB1946F3
:106BBC0010480CF069FA0990099B0793079B002B6E
:106BCC0005D0074A4FF4117107980FF01DFF00BF55
:106BDC000BB05DF804FB00BF216B0200782A00208B
:106BEC00E0E203004430002099690200416B02008E
:106BFC0038280020042A002000B583B001900199A8
:106C0C0003480CF0A7F800BF03B05DF804FB00BF0D
:106C1C00042A002000B585B06B46082200211846D6
:106C2C0017F0C6F90B4B00930B4B01936B461846B0
:106C3C0004F022FF0390039B0293029B002B05D0D0
:106C4C00064A40F2632102980FF0DEFE00BF05B049
:106C5C005DF804FB056C020038280020E0E203001C
:106C6C0000B583B00190054A40F26D2101980FF0F8
:106C7C00CBFE00BF03B05DF804FB00BFE0E20300F5
:106C8C0000B58BB001AB1C220021184617F090F90F
:106C9C00002301934FF4A03302934FF4F02303939A
:106CAC0003238DF810300023ADF8123001238DF83A
:106CBC001430002306930B4B079301AB184603F0DB
:106CCC006DFC0990099B0893089B002B05D0064A84
:106CDC004FF4217108980FF097FE00BF0BB05DF8D0
:106CEC0004FB00BF6D6C0200E0E2030000B585B050
:106CFC00002001F033FA0390039B0293029B002BBC
:106D0C0005D0134A4FF4247102980FF07DFE01F068
:106D1C00AEFB0390039B0193019B002B05D00C4A07
:106D2C004FF4257101980FF06FFEFFF759FB03909C
:106D3C00039B0093009B002B05D0054A4FF4267152
:106D4C0000980FF061FE00BF05B05DF804FB00BFBA
:106D5C00E0E2030000B587B003468DF807309DF8DC
:106D6C000730042B60D801A252F823F02F6E0200DA
:106D7C008D6D0200356E0200C36D0200F96D0200CC
:106D8C002F4A304BD31ADB081B0443F003032E4964
:106D9C00184615F049FE052001F0E0F90590059B19
:106DAC000293029B002B41D0284A40F2AB2102985F
:106DBC000FF02AFE3AE0224A224BD31ADB081B04BE
:106DCC0043F003032249184615F02EFE022001F071
:106DDC00C5F90590059B0393039B002B28D01B4AF8
:106DEC0040F2B12103980FF00FFE21E0144A154B2D
:106DFC00D31ADB081B0443F003031649184615F09D
:106E0C0013FE042001F0AAF90590059B0493049B42
:106E1C00002B0FD00D4A40F2B72104980FF0F4FD6F
:106E2C0008E0FFF763FF06E000BF04E000BF02E0EC
:106E3C0000BF00E000BF00BF07B05DF804FB00BF5F
:106E4C006CE1030044E1030030E50300E0E20300E1
:106E5C0048E503005CE5030000B58BB001900091A0
:106E6C0000230893019B1B88562B00F09280562B15
:106E7C0000F3A2803B2B75D03B2B00F39D80212B84
:106E8C0056D0212B00F39880102B0ED0112B40F0F4
:106E9C009380504A504BD31ADB081B0443F0030376
:106EAC004E49184615F0C0FD8FE04A4A4A4BD31A9A
:106EBC00DB081B0443F003034949184615F0B4FDE5
:106ECC00072001F04BF90890089B0593059B002BBC
:106EDC0005D0444A40F2D72105980FF095FD019B4F
:106EEC009A88414B1A80404B1B8819463F4804F046
:106EFC0087FE0890089B0493049B002B05D0394A0D
:106F0C0040F2DA2104980FF07FFD374B1B881946AD
:106F1C00374807F098FB0890089B0393039B002BC2
:106F2C004CD0304A4FF4377103980FF06DFD45E0AB
:106F3C0000238DF8083000238DF80930019B9B88C5
:106F4C0002AA11461846FFF747FA0890089B0693C9
:106F5C00069B002B34D0234A4FF43A7106980FF05D
:106F6C0053FD2DE0204B4FF6FF721A80019B9B883E
:106F7C0013211846FFF724FA0890089B0793079BE8
:106F8C00002B1FD0174A40F2F12107980FF03CFD5F
:106F9C0018E0019B9B8813211846FFF711FA089003
:106FAC00089B0993099B002B0ED00E4A40F2F92145
:106FBC0009980FF029FD07E000BF06E000BF04E0D0
:106FCC0000BF02E000BF00E000BF00BF0BB05DF8E7
:106FDC0004FB00BF6CE1030044E1030070E5030017
:106FEC0080E50300E0E203004C280020642200202E
:106FFC00782A002000B585B003468DF807309DF83F
:10700C000730043B0C2B51D801A252F823F000BFDF
:10701C0057700200B9700200B9700200B97002001A
:10702C00B9700200B970020051700200B970020010
:10703C00B9700200B97002008370020095700200F2
:10704C00A7700200FFF752FE39E01F4B1B8813217B
:10705C001846FFF7B5F90390039B082B28D0039B28
:10706C000293029B002B23D0184A40F2163102984F
:10707C000FF0CAFC1CE0164B1B894FF6FF729342B3
:10708C0018D0FFF78DFA15E0114B1B894FF6FF72E4
:10709C00934211D0FFF7E8FA0EE00D4B1B894FF627
:1070AC00FF7293420AD0FFF743FB07E000BF06E0F4
:1070BC0000BF04E000BF02E000BF00E000BF00BF63
:1070CC0005B05DF804FB00BF4C280020E0E2030093
:1070DC00042A002000B587B016F0F8FA0590059B3D
:1070EC000493049B002B05D0164A40F242310498BD
:1070FC000FF08AFC0023019301AB1946012016F016
:10710C00FBFB0590059B0393039B002B05D00D4ABD
:10711C004FF4527103980FF077FC01AB184616F040
:10712C00DFFC0590059B0293029B002B05D0054AC2
:10713C004FF4537102980FF067FC00BF07B05DF875
:10714C0004FB00BFE0E2030000B587B009F014F8BF
:10715C000590059B0493049B002B05D0384A40F204
:10716C005B3104980FF050FC6B4605220021184649
:10717C0016F01EFF9DF8003043F001038DF800302F
:10718C009DF800306FF341038DF800309DF800300E
:10719C006FF382038DF800309DF800306FF3C3035A
:1071AC008DF800309DF80030032262F306138DF841
:1071BC0000309DF800306FF3C7138DF800300723B3
:1071CC008DF8013010238DF802309DF8033043F018
:1071DC0001038DF803309DF8033043F002038DF862
:1071EC0003309DF8043043F001038DF804309DF812
:1071FC00043043F002038DF804306B46184609F056
:10720C00A5F80590059B0393039B002B05D00C4A16
:10721C0040F26E3103980FF0F7FB0A4809F06EF854
:10722C000590059B0293029B002B05D0044A40F26B
:10723C00713102980FF0E8FB00BF07B05DF804FB5A
:10724C00E0E203001D64020000B583B00E4A0F4B50
:10725C00D31ADB081B0443F003030D49184615F041
:10726C00E3FB09F0E9F80190019B0093009B002BD4
:10727C0005D0084A40F27E3100980FF0C5FB00BFE4
:10728C0003B05DF804FB00BF6CE1030044E10300B4
:10729C008CE50300E0E2030000B5AFB001ABAC221B
:1072AC000021184616F084FE02238DF804300123C9
:1072BC008DF8063006238DF807300023ADF8143016
:1072CC000023069301238DF880302823239340F666
:1072DC00B833249301238DF881304FF44863259300
:1072EC0044F2506326930D4B2A9301AB19460C487C
:1072FC0002F0F2FD2D902D9B2C932C9B002B05D096
:10730C00084A40F29B312C980FF07EFB0121044877
:10731C0002F0D5FD00BF2FB05DF804FB616D0200DB
:10732C00842A0020E0E2030000B587B001901749E1
:10733C00032000F02DFF0590059B0493049B002B6C
:10734C0005D0134A4FF46B7104980FF05DFB0DF1EF
:10735C000B031946002001F0EDF80590059B0393F3
:10736C00039B002B05D00A4A40F2AF3103980FF073
:10737C004BFB9DF80B30022B0CBF01230023DAB220
:10738C00019B1A7000BF07B05DF804FB017002008E
:10739C00E0E2030000B583B04FF48041002015F00B
:1073AC006DF80190019B0093009B002B05D0064AC1
:1073BC0040F2BA3100980FF027FB14F0F5FF00BF34
:1073CC0003B05DF804FB00BFE0E2030000B583B03E
:1073DC0014F0C0FA0190019B0093009B002B05D088
:1073EC00044A40F2C63100980FF00EFB00BF03B008
:1073FC005DF804FBE0E2030008B515F09FFB0346C3
:10740C0083F00103DBB2002B01D014F0B9FA00BFFA
:10741C0008BD000000B585B003468DF807309DF817
:10742C000730002B02D0FFF70FFF0FE003210948B4
:10743C0002F02AFE0390039B0293029B002B05D0C3
:10744C00054A40F2E33102980FF0DEFA00BF05B0B6
:10745C005DF804FB842A0020E0E2030000B583B051
:10746C00FFF798FFFFF77CFA0DF107031846FFF7BB
:10747C005BFFFFF7ABFFFFF72DFEFFF7E1FAFFF71E
:10748C002FFBFFF709FFFFF7C5FBFFF763FBFFF7C8
:10749C00F7FBFFF759FE094A094BD31ADB081B040B
:1074AC0043F003030749184615F0BEFA9DF8073060
:1074BC001846FFF7AFFFFFF79FFFFCE76CE10300F7
:1074CC0044E103009CE5030000B583B00190019BEF
:1074DC001B68184600F011F90346002B04D105492E
:1074EC004FF4F670FEF780FF4FF0A043184603B040
:1074FC005DF804FBC8E5030000B585B001900846B3
:10750C0011461A4603468DF803300B468DF80230AF
:10751C0013468DF8013001AB1846FFF7D5FF0390E9
:10752C009DF803209DF802305B001A439DF8013052
:10753C009B001A439DF818301B0242EA03019DF888
:10754C001C301B04019A1943039B02F5E07243F8AB
:10755C00221000BF05B05DF804FB00B585B00390A8
:10756C00002301930023009300230122012103989F
:10757C00FFF7C2FF00BF05B05DF804FB00B585B096
:10758C0003900B468DF80B309DF80B3000220192C6
:10759C0000220092002200210398FFF7ADFF00BFEC
:1075AC0005B05DF804FB00B585B0019001AB184641
:1075BC00FFF78AFF0390019B012202FA03F319469D
:1075CC00039800F086F800BF05B05DF804FB00B529
:1075DC0085B0019001AB1846FFF776FF0390019B35
:1075EC00012202FA03F31946039800F07CF800BF5D
:1075FC0005B05DF804FB00B585B0019001AB1846F1
:10760C00FFF762FF0390039BD3F804350293029BB0
:10761C00DA43019B012101FA03F31A40039BC3F8DF
:10762C000825019B01229A40029B1A40039BC3F838
:10763C000C2500BF05B05DF804FB00B583B00190CC
:10764C000091009B002B03D10198FFF7C0FF02E0D3
:10765C000198FFF7A8FF00BF03B05DF804FB00B56D
:10766C0085B0019001AB1846FFF72EFF03900398ED
:10767C0000F01FF80246019B22FA03F303F001030A
:10768C00184605B05DF804FB00B585B0019001AB60
:10769C001846FFF719FF0390039800F012F8024602
:1076AC00019B22FA03F303F00103184605B05DF8C1
:1076BC0004FB82B00190019BD3F81035184602B040
:1076CC00704782B00190019BD3F80435184602B084
:1076DC00704782B001900091019B009AC3F8082575
:1076EC0000BF02B0704782B001900091019B009ADC
:1076FC00C3F80C2500BF02B0704784B00190019B09
:10770C005B09029300230393029B002B03D14FF0E0
:10771C00FF33039300BF019B03F01F030193039AF4
:10772C00019B22FA03F303F00103002B14BF012386
:10773C000023DBB2184604B07047000000B585B0DA
:10774C000190019B032B03D911493A20FEF74CFE03
:10775C00104A019B13441B781846FFF795FF03460C
:10776C00002B14BF012300238DF80F309DF80F3030
:10777C00002B14BF01230023DBB283F00103DBB227
:10778C0003F00103DBB2184605B05DF804FB00BF43
:10779C00F8E5030044E6030000B583B00190019BBB
:1077AC00032B03D907494120FEF71EFE064A019B15
:1077BC0013441B7800211846FFF73FFF00BF03B0AE
:1077CC005DF804FBF8E5030044E6030000B583B064
:1077DC000190019B032B03D907494720FEF704FEB8
:1077EC00064A019B13441B7801211846FFF725FF1D
:1077FC0000BF03B05DF804FBF8E5030044E60300AA
:10780C0000B583B00023019305E00198FFF7DEFF7C
:10781C00019B01330193019B032BF6D900BF00BFE1
:10782C0003B05DF804FB00B583B00023019305E0C1
:10783C000198FFF7B1FF019B01330193019B032BCF
:10784C00F6D900BF00BF03B05DF804FB00B583B0F0
:10785C000190019B032B03D907495F20FEF7C4FD60
:10786C00064A019B13441B781846FFF7C4FE00BF61
:10787C0003B05DF804FB00BFF8E5030044E6030029
:10788C0000B583B00023019309E0094A019B13441E
:10789C001B781846FFF761FE019B01330193019B96
:1078AC00032BF2D9FFF7ACFF00BF03B05DF804FB6C
:1078BC0044E6030000B585B00190019B032B03D96E
:1078CC001149AC20FEF790FD104A019B13441B7824
:1078DC001846FFF7C4FE0346002B14BF01230023F8
:1078EC008DF80F309DF80F30002B14BF01230023AF
:1078FC00DBB283F00103DBB203F00103DBB2184609
:10790C0005B05DF804FB00BFF8E5030048E6030092
:10791C0000B583B0002301930AE0094A019B13448C
:10792C001B7803211846FFF729FE019B01330193B5
:10793C00019B032BF1D900BF00BF03B05DF804FB22
:10794C0048E6030084B001904FF0FF33029300230C
:10795C0003930DE00A4A039B13441B781A46019BC0
:10796C00934202D1039B029305E0039B01330393E3
:10797C00039B032BEED9029B184604B0704700BF43
:10798C0048E6030000B583B00190019B032B03D99B
:10799C000549CB20FEF728FD044A019B13441B78B4
:1079AC00184603B05DF804FBF8E5030048E6030055
:1079BC0000B583B00190019B03F00103002B01D0B3
:1079CC00FFF75EFF019B03F00203002B01D0FFF7D2
:1079DC009FFF00BF03B05DF804FB000000B583B04F
:1079EC000190019B1B68184600F03DF80346002BE4
:1079FC0004D105494FF4F670FEF7F6FC4FF0A043A6
:107A0C00184603B05DF804FB4CE6030000B585B0E6
:107A1C0001900B468DF8033001AB1846FFF7DEFFE3
:107A2C000390019A039B02F5E07253F82230019AFD
:107A3C0023F44031039B02F5E07243F82210019AC3
:107A4C00039B02F5E07253F822109DF803301B04DF
:107A5C00019A1943039B02F5E07243F8221000BF10
:107A6C0005B05DF804FB84B00190019B5B090293A7
:107A7C0000230393029B002B03D14FF0FF3303939E
:107A8C0000BF019B03F01F030193039A019B22FA91
:107A9C0003F303F00103002B14BF01230023DBB21B
:107AAC00184604B0704700B583B00190019B032BBE
:107ABC0004D80198FFF7FEFE034600E000231846A9
:107ACC0003B05DF804FB000000B587B003460A461E
:107ADC008DF8073013468DF8063000238DF81730DB
:107AEC00002304939DF807301846FFF72BFF0490F2
:107AFC00049B032B62D89DF80630022B52D0022B2C
:107B0C005CDC002B31D0012B58D13549049A13463B
:107B1C005B0013440B441B788DF817303049049AE2
:107B2C0013465B0013440B4401331B78002B0ED01F
:107B3C002C4B2D4A4FF4804118460FF08DFB0390CF
:107B4C00039B002B03D1284A9DF80730137024495E
:107B5C00049A13465B0013440B4402331978234AEE
:107B6C00049B13440A461A7028E01E4B18460FF06B
:107B7C00CBFB1E4A049B134419781948049A1346EC
:107B8C005B001344034402331B78994215D114490A
:107B9C00049A13465B0013440B4402331B788DF894
:107BAC0017300AE00E49049A13465B0013440B4449
:107BBC0001331B788DF8173000E000BF9DF81730AB
:107BCC00002B09D00A4B1B68002B05D0084B1B68F7
:107BDC009DF817201046984700BF07B05DF804FBCE
:107BEC0068300020B8280020743000207830002045
:107BFC006430002000B583B00190019B1B780221FA
:107C0C001846FFF761FF00BF03B05DF804FB0000EE
:107C1C0000B583B00C4B1B78002B0FD000230193C5
:107C2C0008E0019B022B02D00198FFF7CFFD019BCE
:107C3C0001330193019B032BF3D901E0FFF7E0FD26
:107C4C0000BF03B05DF804FB603000202DE9D04F7D
:107C5C0092B003468DF83F3000231193002310930C
:107C6C00CC4B1B78002B04D0CA4A00231370FFF7AF
:107C7C00CFFF9DF83F30172B00F23F8201A252F844
:107C8C0023F000BFF17C0200097D0200097D020097
:107C9C00A57D0200417E0200BD7E0200517F0200E4
:107CAC00717F0200817F0200AD7F0200CB7F02005A
:107CBC00E97F020007800200158002001580020097
:107CCC00158002001580020015800200A9800200B8
:107CDC00B7800200CB800200DF800200F980020036
:107CEC00F9800200FFF794FFAB4B18460FF00CFB2A
:107CFC001190AA4A9DF83F301370FFE10020FFF766
:107D0C001DFD0346002B0DD00020FFF75FFD9DF8F5
:107D1C003F30022B02D14FF4E16301E04FF47A6360
:107D2C0010930BE00020FFF737FD9DF83F30022B3E
:107D3C0001D1C82301E04FF4C8731093974A9DF802
:107D4C003F301370944C109B0022009301924FF023
:107D5C0000024FF00003DDE900673946CB033146E2
:107D6C0043EA51433146CA0312F57A71029143F149
:107D7C00000303934FF4FA624FF00003DDE90201B4
:107D8C0015F0B2FF02460B46134600221946204658
:107D9C000FF062FA1190B1E10020FFF7CFFC03461F
:107DAC00002B0DD00020FFF711FD9DF83F30032B69
:107DBC0002D14FF4487301E04FF47A6310930BE057
:107DCC000020FFF7E9FC9DF83F30032B01D1C823BD
:107DDC0001E04FF4C8731093704A9DF83F30137054
:107DEC006D4C109B0022049305924FF000024FF053
:107DFC000003DDE904673946CB03314643EA5143BE
:107E0C003146CA0312F57A71069143F100030793C8
:107E1C004FF4FA624FF00003DDE9060115F064FF40
:107E2C0002460B4613460022194620460FF014FA60
:107E3C00119063E10020FFF781FC0346002B06D074
:107E4C000020FFF7C3FC4FF47A63109305E0002089
:107E5C00FFF7A2FC4FF4C8731093504A9DF83F30C3
:107E6C0013704D4C109B00229A4693464FF0000223
:107E7C004FF000034FEACB3343EA5A434FEACA327E
:107E8C0012F57A71089143F1000309934FF4FA62E9
:107E9C004FF00003DDE9080115F026FF02460B4602
:107EAC0013460022194620460FF0D6F9119025E111
:107EBC000020FFF743FC0346002B0CD00020FFF7FB
:107ECC0085FC9DF83F30052B01D1C82301E04FF410
:107EDC007A6310930BE00020FFF75EFC9DF83F30B7
:107EEC00052B01D1C82301E04FF4C87310932B4A22
:107EFC009DF83F301370284C109B002298469146F9
:107F0C004FF000024FF000034FEAC93343EA5843E5
:107F1C004FEAC83212F57A710A9143F100030B93C0
:107F2C004FF4FA624FF00003DDE90A0115F0DCFEB4
:107F3C0002460B4613460022194620460FF08CF9D8
:107F4C001190DBE00020FFF781FC144A9DF83F30D4
:107F5C001370114B002240F2666118460FF07CF949
:107F6C001190CBE00020FFF717FC0C4A9DF83F3036
:107F7C001370C3E0074B01221A700120FFF766FC57
:107F8C00054B002240F2666118460FF065F911901E
:107F9C00B4E000BF59300020782800205830002071
:107FAC00594B01221A700120FFF750FC574B00224D
:107FBC004FF4005118460FF04FF911909EE0524BC0
:107FCC0001221A700120FFF741FC504B002240F2B5
:107FDC00666118460FF040F911908FE04A4B012270
:107FEC001A700120FFF732FC484B00224FF400516D
:107FFC0018460FF031F9119080E0FFF714FC444A59
:10800C009DF83F30137079E0424B18460FF07CF925
:10801C0011909DF83F30C3F111031093109B002B6E
:10802C0035D0119B002B32D1109B012B28D9394C08
:10803C00109B9BB21A46C82302FB03F3DA171E46A9
:10804C0017464FF000024FF00003FB0343EA564380
:10805C00F20312F57A710C9143F100030D934FF476
:10806C00FA624FF00003DDE90C0115F03DFE02460B
:10807C000B4613460022194620460FF0EDF81190DE
:10808C000220FFF789FB244B01221A7036E00220F4
:10809C00FFF79CFB204B00221A702FE0FFF7B8FD76
:1080AC001B4A9DF83F30137028E0FFF7B1FD00200C
:1080BC00FFF772FB164A9DF83F3013701EE0FFF776
:1080CC00A7FD0120FFF768FB114A9DF83F301370A4
:1080DC0014E0FFF79DFD0020FFF75EFB0120FFF78A
:1080EC005BFB0B4A9DF83F30137007E0FFF79BFBDF
:1080FC00074A9DF83F30137000E000BF119B1846F3
:10810C0012B0BDE8D08F00BF593000207828002075
:10811C0058300020982800206030002000B583B033
:10812C000190074B1B6803F00103002B04D0054B97
:10813C001B781846FFF78AFD00BF03B05DF804FBFF
:10814C005C3000205830002000B583B00190022034
:10815C00FFF77CFB00BF03B05DF804FB00B585B0F6
:10816C0003468DF8073000230393084B1B6803F07C
:10817C000103002B05D09DF807301846FFF766FD6C
:10818C000390039B184605B05DF804FB5C3000209F
:10819C0000B585B001900091002303932A4A019BFE
:1081AC0013602A4A009B1360019B03F00203002B0F
:1081BC002AD00023029308E001220121029800F04A
:1081CC0055F80390029B01330293029B032B02D8B8
:1081DC00039B002BF0D0039B002B06D140F23332D3
:1081EC0004211B480EF010FB0390039B002B02D1C3
:1081FC000EF092FB0390039B002B05D1154A002136
:10820C0015480EF0EFFF0390019B03F00103002BC8
:10821C0014D00120FFF7CCFB039B002B05D10F4A98
:10822C0000210F480EF0DEFF0390039B002B05D1BD
:10823C000C4A01210C480EF0D5FF0390039B184605
:10824C0005B05DF804FB00BF5C30002064300020FA
:10825C0088E60300017C020084E603002981020009
:10826C007CE603005581020080E6030084B0019097
:10827C000B468DF8033013468DF802300023039320
:10828C00019B032B3CD89DF80230012B0BD19DF8A0
:10829C000330012B04D1019BDBB20E33DBB200E0C7
:1082AC0000238DF802309DF80330022B0FD0022BE7
:1082BC0023DC002B16D0012B1FD11449019A134635
:1082CC005B0013440B449DF802201A701AE00F490E
:1082DC00019A13465B0013440B4401339DF80220B2
:1082EC001A700FE00949019A13465B0013440B44C2
:1082FC0002339DF802201A7004E00723039301E077
:10830C0007230393039B184604B070476830002082
:10831C0000B585B001900B468DF80330019B032B03
:10832C0014D89DF80330002B01D0032300E0002368
:10833C008DF80F300198FFF725FB02469DF80F30A2
:10834C0019461046FFF762FB002300E0062318468F
:10835C0005B05DF804FB00B583B0019001210198D4
:10836C00FFF7D6FF0346184603B05DF804FB00B5D3
:10837C0083B0012200210020FFF778FF0190019BC0
:10838C00002B04D0019B072B01D0019B1CE0072282
:10839C0002210120FFF76AFF0190019B002B04D002
:1083AC00019B072B01D0019B0EE00422022100202F
:1083BC00FFF75CFF0190019B002B04D0019B072B66
:1083CC0001D0019B00E00023184603B05DF804FBCC
:1083DC0000B583B0012202210020FFF747FF019076
:1083EC00019B002B04D0019B072B01D0019B1CE0AF
:1083FC00072202210120FFF739FF0190019B002B7E
:10840C0004D0019B072B01D0019B0EE00A22002116
:10841C000020FFF72BFF0190019B002B04D0019B48
:10842C00072B01D0019B00E00023184603B05DF838
:10843C0004FB00B583B001900120FFF734FB034629
:10844C00002B03D0019B02221A700CE00020FFF7D6
:10845C002AFB0346002B03D0019B0B221A7002E06F
:10846C00019B00221A7000BF03B05DF804FB00B53D
:10847C0083B00020FFF76FFF0190019B002B04D00D
:10848C00019B062B01D0019B0CE00120FFF763FF41
:10849C000190019B002B04D0019B062B01D0019B6A
:1084AC0000E00023184603B05DF804FB00B585B06E
:1084BC0001900091019B1B88102B02D0112B18D01E
:1084CC002FE01A4B1B68002B0DD1FFF750FF0390C8
:1084DC00039B002B07D0164B1B68002B03D0144BAF
:1084EC001B6803989847114B1B6801330F4A1360A4
:1084FC0017E00E4B1B68013B0C4A13600B4B1B68BF
:10850C00002B0DD1FFF764FF0390039B002B07D0CA
:10851C00074B1B68002B03D0054B1B68039898472F
:10852C0000BF00BF05B05DF804FB00BF8030002029
:10853C007C30002000B585B001900091002303939E
:10854C000A4A019B1360009B002B02D00098FFF796
:10855C0070FF074B1B68002B02D1FFF739FF03900C
:10856C00039B184605B05DF804FB00BF7C3000206F
:10857C0080300020BFF34F8F00BF064BDB6803F445
:10858C00E0620449044B1343CB60BFF34F8F00BF31
:10859C0000BFFDE700ED00E00400FA0582B01D4BC2
:1085AC001B68B3F1FF3F0AD11B4B1B68DBB2019375
:1085BC001A4B1B681B0903F00F03009305E0154BC6
:1085CC001B680193164B1B680093019B062B1DD156
:1085DC00009B033B042B17D801A252F823F000BFD9
:1085EC000186020005860200098602000D86020043
:1085FC001186020001230AE0012308E0012306E0B2
:10860C00012304E0012302E0012300E000231846CB
:10861C0002B0704730010010E00F00F0E80F00F0DE
:10862C003401001082B0174B1B68DBB20193164B60
:10863C001B681B0903F00F030093019B062B1DD134
:10864C00009B033B042B17D801A252F823F000BF68
:10865C007186020075860200798602007D86020012
:10866C008186020001230AE0002308E0002306E0D3
:10867C00002304E0002302E0002300E0002318465E
:10868C0002B07047E00F00F0E80F00F082B01D4B15
:10869C001B68B3F1FF3F0AD11B4B1B68DBB2019384
:1086AC001A4B1B681B0903F00F03009305E0154BD5
:1086BC001B680193164B1B680093019B062B1DD165
:1086CC00009B033B042B17D801A252F823F000BFE8
:1086DC00F1860200F5860200F9860200FD86020092
:1086EC000187020001230AE0012308E0012306E0D0
:1086FC00012304E0012302E0012300E000231846DB
:10870C0002B0704730010010E00F00F0E80F00F0ED
:10871C003401001082B0174B1B68DBB20193164B6F
:10872C001B681B0903F00F030093019B062B1DD143
:10873C00009B033B042B17D801A252F823F000BF77
:10874C006187020065870200698702006D8702005D
:10875C007187020001230AE0002308E0002306E0F1
:10876C00002304E0002302E0002300E0002318466D
:10877C0002B07047E00F00F0E80F00F082B01D4B24
:10878C001B68B3F1FF3F0AD11B4B1B68DBB2019393
:10879C001A4B1B681B0903F00F03009305E0154BE4
:1087AC001B680193164B1B680093019B062B1DD174
:1087BC00009B033B042B17D801A252F823F000BFF7
:1087CC00E1870200E5870200E9870200ED870200DD
:1087DC00F187020001230AE0012308E0012306E0EF
:1087EC00012304E0012302E0012300E000231846EA
:1087FC0002B0704730010010E00F00F0E80F00F0FD
:10880C003401001082B0174B1B68DBB20193164B7E
:10881C001B681B0903F00F030093019B062B1DD152
:10882C00009B033B042B17D801A252F823F000BF86
:10883C005188020055880200598802005D880200A8
:10884C006188020001230AE0002308E0002306E00F
:10885C00002304E0002302E0002300E0002318467C
:10886C0002B07047E00F00F0E80F00F082B0174B39
:10887C001B68DBB20193164B1B681B0903F00F033B
:10888C000093019B062B1DD1009B033B042B17D897
:10889C0001A252F823F000BFB9880200BD88020083
:1088AC00C1880200C5880200C988020001230AE0C1
:1088BC00002308E0002306E0002304E0002302E08C
:1088CC00002300E00023184602B07047E00F00F0D0
:1088DC00E80F00F082B01D4B1B68B3F1FF3F0AD1CB
:1088EC001B4B1B68DBB201931A4B1B681B0903F073
:1088FC000F03009305E0154B1B680193164B1B6887
:10890C000093019B062B1DD1009B033B042B17D816
:10891C0001A252F823F000BF398902003D89020000
:10892C0041890200458902004989020000230AE0BE
:10893C00002308E0012306E0012304E0012302E008
:10894C00012300E00023184602B0704730010010EC
:10895C00E00F00F0E80F00F03401001082B01D4B66
:10896C001B68B3F1FF3F0AD11B4B1B68DBB20193B1
:10897C001A4B1B681B0903F00F03009305E0154B02
:10898C001B680193164B1B680093019B062B1DD192
:10899C00009B033B042B17D801A252F823F000BF15
:1089AC00C1890200C5890200C9890200CD89020073
:1089BC00D189020001230AE0012308E0012306E02B
:1089CC00012304E0012302E0012300E00023184608
:1089DC0002B0704730010010E00F00F0E80F00F01B
:1089EC003401001082B01D4B1B68B3F1FF3F0AD15C
:1089FC001B4B1B68DBB201931A4B1B681B0903F062
:108A0C000F03009305E0154B1B680193164B1B6875
:108A1C000093019B062B1DD1009B033B042B17D805
:108A2C0001A252F823F000BF498A02004D8A0200CD
:108A3C00518A0200558A0200598A020001230AE079
:108A4C00012308E0012306E0012304E0012302E0F6
:108A5C00012300E00023184602B0704730010010DB
:108A6C00E00F00F0E80F00F03401001082B0154B5D
:108A7C001B680193144B1B680093019B062B1DD1A3
:108A8C00009B033B042B17D801A252F823F000BF24
:108A9C00B18A0200B58A0200B98A0200BD8A0200BE
:108AAC00C18A020000230AE0002308E0002306E04C
:108ABC00012304E0012302E0012300E00023184617
:108ACC0002B07047300100103401001082B0154B19
:108ADC001B680193144B1B680093019B062B1DD143
:108AEC00009B033B042B17D801A252F823F000BFC4
:108AFC00118B0200158B0200198B02001D8B0200DA
:108B0C00218B020000230AE0002308E0002306E08A
:108B1C00002304E0012302E0012300E000231846B7
:108B2C0002B07047300100103401001008B5FFF797
:108B3C00CDFF0346002B07D04FF010234FF080429F
:108B4C00D3F80832C2F8583500BF08BD00BF044B3B
:108B5C00D3F80034002BFAD000BF00BF704700BF21
:108B6C0000E0014000B583B00190054A019BC2F8BA
:108B7C000435FFF7EBFF00BF03B05DF804FB00BF4B
:108B8C0000E00140024B034A1A6000BF704700BF6F
:108B9C00D82800200090D00308B5FFF7FFFC03464F
:108BAC00002B06D0964B1B681B0A964A03F01F033A
:108BBC001360FFF737FD0346002B02D0924B934A0C
:108BCC001A60FFF763FD0346002B06D0904B1B6821
:108BDC005B0B904A03F007031360FFF79BFD034602
:108BEC00002B05D08C4BDB688B4A23F08073D36051
:108BFC00FFF7C4FD0346002B0ED04FF0804300223C
:108C0C00C3F80C214FF080430022C3F810214FF021
:108C1C0080430022C3F83825FFF7F4FD0346002BF0
:108C2C0002D07E4B03221A60FFF720FE0346002B76
:108C3C000BD07B4B05221A607A4B01221A607A4BBF
:108C4C0000221A60794B3F221A60FFF743FE03465D
:108C5C00002B76D04FF08053754AD3F80434C2F809
:108C6C0020354FF08053724AD3F80834C2F82435BB
:108C7C004FF080536E4AD3F80C34C2F828354FF0BD
:108C8C0080536B4AD3F81034C2F82C354FF0805314
:108C9C00674AD3F81434C2F830354FF08053644A25
:108CAC00D3F81834C2F834354FF08053604AD3F8F7
:108CBC001C34C2F840354FF080535D4AD3F8203451
:108CCC00C2F844354FF08053594AD3F82434C2F8D3
:108CDC0048354FF08053564AD3F82834C2F84C35F7
:108CEC004FF08053524AD3F82C34C2F850354FF021
:108CFC0080534F4AD3F83034C2F854354FF0805378
:108D0C004B4AD3F83434C2F860354FF08053484A9C
:108D1C00D3F83834C2F864354FF08053444AD3F852
:108D2C003C34C2F868354FF08053414AD3F8403494
:108D3C00C2F86C354FF080533D4AD3F84434C2F836
:108D4C007035FFF70BFE0346002B05D0394B1B6823
:108D5C00394A03F04F031360FFF744FE0346002B20
:108D6C000DD04FF08043D3F8003403F00103002BF7
:108D7C0005D04FF080436FF00102C3F80024FFF7D9
:108D8C0075FE0346002B05D02C4B1B682B4A43F475
:108D9C00806313602A4BD3F88830294A43F470035C
:108DAC00C2F88830BFF34F8F00BFBFF36F8F00BF87
:108DBC00FFF7BCFE4FF01023D3F80032002B05DB7D
:108DCC004FF01023D3F80432002B15DA0120FFF7F3
:108DDC00C9FE4FF010231522C3F80022FFF7B6FE90
:108DEC004FF010231522C3F80422FFF7AFFE00202A
:108DFC00FFF7B8FEFFF7BEFBFFF7C4FE00BF08BDD0
:108E0C00240300104035014074C007400DF0ADBA8A
:108E1C00440200103C050040F0ED00E0A0050040CD
:108E2C00105600408856004018560040145600401A
:108E3C0000C0004058020010E40E00403C170040F7
:108E4C0000ED00E06DDF704700BF184679DF70471A
:108E5C0000BF18467DDF704700BF184664DF7047BF
:108E6C0000BF184682B003460091ADF80630BDF83D
:108E7C000630DAB2009B1A70BDF806301B0A9AB2A3
:108E8C00009B0133D2B21A700223184602B070470D
:108E9C0000B589B0039002911346ADF80630029BE1
:108EAC001B8803F10902BDF806309A4201D90C2344
:108EBC0053E004AB1846FFF7C5FF0790079B0693DA
:108ECC00069B002B01D0069B47E0029B1B881A4691
:108EDC00039B134408221A70029B1B8801339AB21D
:108EEC00029B1A80029B1B881A46039B13441B226D
:108EFC001A70029B1B8801339AB2029B1A80029B48
:108F0C001B881A46039B981804AB0133062219469A
:108F1C0015F01CF8029B1B8806339AB2029B1A8030
:108F2C009DF8103023F00103DBB2002B07D1029B1C
:108F3C001B881A46039B134400221A7006E0029BFE
:108F4C001B881A46039B134401221A70029B1B8830
:108F5C0001339AB2029B1A800023184609B05DF8BF
:108F6C0004FB00B589B0039002910192ADF8023078
:108F7C00039B1B78012B05D1039B5B78002B01D144
:108F8C00072391E0019B1B889A1CBDF802309A4282
:108F9C000ED8039B1B78012B0CD1019B1B881A4606
:108FAC00039B5B7813449A1CBDF802309A4201D99A
:108FBC000C2379E0019B1B88BDF80220D31A9BB2CD
:108FCC00023BADF81C30BDF81C30ADF81230019BE3
:108FDC001B880233029A13440DF1120211461846F3
:108FEC00FFF738FF0690069B0593059B002B01D0DD
:108FFC00059B59E0039B1B78022B06D0039B5B78E7
:10900C001A46BDF812309A4209D3BDF81230BDF899
:10901C001C209A4203D309238DF81F3016E0082335
:10902C008DF81F30039B1B78012B0BD1039B5B78B6
:10903C001A46BDF81C30934204D3039B5B78ADF801
:10904C00123003E0BDF81C30ADF81230BDF8123010
:10905C00FE2B01D90C2327E0BDF81230DAB2019BAC
:10906C001B881946029B0B440132D2B21A70019B29
:10907C001B8801339AB2019B1A80019B1B881A46EC
:10908C00029B13449DF81F201A70019B1B8801330F
:10909C009AB2019B1A80019B1A88BDF812301344B6
:1090AC009AB2019B1A800023184609B05DF804FBA4
:1090BC0000B589B0039002911346ADF80630029BBF
:1090CC001B881A1DBDF806309A4201D90C233AE0D0
:1090DC000DF116031846FFF7B9FE0790079B069390
:1090EC00069B002B01D0069B2DE0029B1B881A4689
:1090FC00039B134403221A70029B1B8801339AB200
:10910C00029B1A80029B1B881A46039B134419224C
:10911C001A70029B1B8801339AB2029B1A80BDF80D
:10912C001620029B1B881946039B0B4419461046BC
:10913C00FFF798FE03461A46029B1B8813449AB20B
:10914C00029B1A800023184609B05DF804FB84B01A
:10915C00029101921A4603468DF80F301346ADF872
:10916C000C30019B1B88DA1CBDF80C309A4201D9DB
:10917C000C2328E0019B1B881A46029B13440222F5
:10918C001A70019B1B8801339AB2019B1A80019BB8
:10919C001B881A46029B134401221A70019B1B88E0
:1091AC0001339AB2019B1A80019B1B881A46029BC1
:1091BC0013449DF80F201A70019B1B8801339AB23F
:1091CC00019B1A800023184604B0704784B00291AA
:1091DC0001921A4603468DF80F301346ADF80C3049
:1091EC00019B1B88DA1CBDF80C309A4201D90C2368
:1091FC0028E0019B1B881A46029B134402221A701A
:10920C00019B1B8801339AB2019B1A80019B1B881E
:10921C001A46029B13440A221A70019B1B880133C5
:10922C009AB2019B1A80019B1B881A46029B13441D
:10923C009DF80F201A70019B1B8801339AB2019B79
:10924C001A800023184604B0704700B58FB0039005
:10925C0001930B468DF80B3013468DF80A30002322
:10926C008DF83330109B1B88ADF8303000230D93F4
:10927C0070E0039B5A680D9B9B001A4405AB106869
:10928C0018600DF11B0105AB00221846FFF7E6FD37
:10929C000A900A9B0993099B002B01D0099B7BE048
:1092AC009DF81B309DF80A209A4250D19DF833301E
:1092BC00002B01D0002300E002238DF82330109BFB
:1092CC001B881A469DF81B301A449DF823301A440B
:1092DC00BDF844309A4201DD0C235DE09DF833303B
:1092EC0083F00103DBB2002B16D0109B1B880133DB
:1092FC009AB2109B1A80109B1B881A46019B134430
:10930C009DF80B201A70109B1B8801339AB2109B8E
:10931C001A8001238DF83330109B1B881A46019B51
:10932C001A440DF11B0105AB1846FFF797FD0A9087
:10933C000A9B0793079B002B01D0079B2CE0109BEB
:10934C001B889DF81B2013449AB2109B1A800D9B0E
:10935C0001330D93039B1B881A460D9B934288DBAC
:10936C009DF83330002B16D0109B1A88BDF8303086
:10937C00D31A9BB2013BADF82E30BDF82E30FF2B2B
:10938C0001D90C2308E0BDF83030019A1344BDF824
:10939C002E20D2B21A70002318460FB05DF804FBD1
:1093AC0000B58BB0059003930B468DF81330134624
:1093BC008DF812309DF81310BDF8343001930C9BCE
:1093CC000093039B02220598FFF73FFF0990099B2E
:1093DC000893089B002B01D0089B14E09DF81210F9
:1093EC00BDF8343001930C9B0093039B102205981D
:1093FC00FFF72BFF0990099B0793079B002B01D0CC
:10940C00079B00E0002318460BB05DF804FB82B00C
:10941C000190019B1B88052B0AD9019B1B88B3F576
:10942C00486F07D9019B1B884FF6FF72934201D0FE
:10943C00072325E0019B5B88052B0AD9019B5B88E0
:10944C00B3F5486F07D9019B5B884FF6FF729342C7
:10945C0001D0072314E0019B1B884FF6FF72934247
:10946C000DD0019B5B884FF6FF72934207D0019B96
:10947C001A88019B5B889A4201D9072300E00023DC
:10948C00184602B0704700B587B003900291019264
:10949C00ADF80230019B1B889A1DBDF802309A4230
:1094AC0001D90C234BE00398FFF7B1FF0590059B06
:1094BC000493049B002B01D0049B40E0019B1B8870
:1094CC001A46029B134405221A70019B1B88013318
:1094DC009AB2019B1A80019B1B881A46029B13446B
:1094EC0012221A70019B1B8801339AB2019B1A80BD
:1094FC00039B1A88019B1B881946029B0B44194637
:10950C001046FFF7AFFC03461A46019B1B88134419
:10951C009AB2019B1A80039B5A88019B1B8819469F
:10952C00029B0B4419461046FFF79CFC03461A4657
:10953C00019B1B8813449AB2019B1A800023184686
:10954C0007B05DF804FB00B587B00390029101925F
:10955C00ADF80230039B9B8802330593019B1B885B
:10956C001A46059B13449A1CBDF802309A4201D945
:10957C000C2353E0059BFE2B01D90C234EE0059BDD
:10958C00DAB2019B1B881946029B0B440132D2B202
:10959C001A70019B1B8801339AB2019B1A80019BA4
:1095AC001B881A46029B1344FF221A70019B1B88CE
:1095BC0001339AB2019B1A80039B1A88019B1B886A
:1095CC001946029B0B4419461046FFF74BFC034609
:1095DC001A46019B1B8813449AB2019B1A80039B69
:1095EC009B88002B19D0039B9B68002B01D1072370
:1095FC0014E0019B1B881A46029B9818039B9968E0
:10960C00039B9B881A4614F0A1FC019B1A88039BB0
:10961C009B8813449AB2019B1A800023184607B00A
:10962C005DF804FB00B589B0039002910192ADF88E
:10963C000230039B9B6A002B01D1072371E00023AE
:10964C008DF81F3065E0039B996A9DF81F20134627
:10965C005B0013449B000B440693069B9B880233D0
:10966C000593059BFE2B01D90C235AE0059BDAB21E
:10967C00019B1B881946029B0B440132D2B21A7013
:10968C00019B1B8801339AB2019B1A80019B1B889A
:10969C001A46029B134416221A70019B1B88013335
:1096AC009AB2019B1A80069B1A88019B1B8819464B
:1096BC00029B0B4419461046FFF7D4FB03461A468F
:1096CC00019B1B8813449AB2019B1A80069B9B88B2
:1096DC00002B19D0069B9B68002B01D1072320E09F
:1096EC00019B1B881A46029B9818069B9968069B3F
:1096FC009B881A4614F02AFC019B1A88069B9B88AF
:10970C0013449AB2019B1A809DF81F3001338DF8D7
:10971C001F30039B93F82C309DF81F209A4292D354
:10972C000023184609B05DF804FB00B595B0059010
:10973C000491039200231393039B1B88ADF84A30CA
:10974C00039B00221A80059B93F82D30002B0ED022
:10975C00BDF84A301A4603990498FFF799FB139009
:10976C00139B1193119B002B01D0119BD8E0059BEF
:10977C009B78002B0ED0BDF84A301A4603990498FA
:10978C00FFF796FC1390139B1093109B002B01D0AA
:10979C00109BC5E0059BDB78002B10D0059BDB787C
:1097AC0058B2BDF84A30039A0499FFF7D0FC1390D5
:1097BC00139B0F930F9B002B01D00F9BB0E0059BCD
:1097CC005B68002B11D0059B5B6893F90000BDF81A
:1097DC004A30039A0499FFF7F9FC1390139B0E93EC
:1097EC000E9B002B01D00E9B9AE0059B1B89002B36
:1097FC0014D0059B03F10800BDF84A300193039B7C
:10980C000093049B06220221FFF7CAFD1390139BC1
:10981C000D930D9B002B01D00D9B81E0059B1B8AAA
:10982C00002B14D0059B03F11000BDF84A300193B6
:10983C00039B0093049B07220321FFF7B1FD1390B8
:10984C00139B0C930C9B002B01D00C9B68E0059B8D
:10985C001B8B002B14D0059B03F11800BDF84A306C
:10986C000193039B0093049B15221421FFF798FD91
:10987C001390139B0B930B9B002B01D00B9B4FE076
:10988C00059B1B6A002B0FD0059B186ABDF84A304C
:10989C00039A0499FFF7F7FD1390139B0A930A9B05
:1098AC00002B01D00A9B3BE0059B5B6A002B0FD081
:1098BC00059B586ABDF84A30039A0499FFF743FE9A
:1098CC001390139B0993099B002B01D0099B27E054
:1098DC00059B93F82C30002B0ED0BDF84A30039A20
:1098EC0004990598FFF79EFE1390139B0893089B11
:1098FC00002B01D0089B13E0059B1B78002B0ED08E
:10990C00BDF84A30039A04990598FFF72AFB139087
:10991C00139B0793079B002B01D0079B00E0139B25
:10992C00184615B05DF804FB86B0039001921A46F8
:10993C000B46ADF80A3013468DF80930039B002B0B
:10994C0002D0019B002B01D100235BE00023ADF87A
:10995C0016300CE0BDF81630039A13441B781A46E7
:10996C00BDF8163013449BB20133ADF81630BDF878
:10997C0016305A1CBDF80A309A420FDA019B1B882C
:10998C00BDF816209A42E5D3BDF816300133039A80
:10999C0013441B789DF809209A42DBD1BDF81620A0
:1099AC00BDF80A309A4201D300232BE0BDF81630E3
:1099BC000233ADF81430BDF81630039A13441B78FB
:1099CC00002B07D0BDF81630039A13441B78013BCB
:1099DC009BB200E00023ADF81230BDF81230002B22
:1099EC0008D0BDF81420BDF812301A44BDF80A3066
:1099FC009A4201DD002305E0019BBDF814201A807A
:109A0C00BDF81230184606B0704700B585B001900D
:109A1C000B46ADF8023013468DF801300023ADF83B
:109A2C000C309DF8013003AABDF802100198FFF725
:109A3C007BFF0346ADF80E30BDF80E30002B01D184
:109A4C00002304E0BDF80C301A46019B1344184661
:109A5C0005B05DF804FB72DF704700BF184673DF7A
:109A6C00704700BF184682B00190019B93F83034C8
:109A7C00184602B0704784B00190002303930AE0AB
:109A8C00019A039B13441B78002B01D0012306E0A1
:109A9C00039B01330393039B052BF1D90023184639
:109AAC0004B0704782B003468DF807309DF807303C
:109ABC005A1C074B83FB02135910D317C91A0B46B8
:109ACC009B000B44D11ACBB2184602B0704700BFB2
:109ADC006766666682B001900091009BDB7B012B70
:109AEC0004D1009B9A88019BA3F8242400BF02B0E8
:109AFC00704700B585B001900091019B002283F85E
:109B0C002E24009B9A88019BB3F824349A4216D1D8
:109B1C00019B1B7983F00103DBB2002B0FD00121D9
:109B2C00019800F0B1FA0390039B002B07D0019B26
:109B3C009B6B002B03D0019B9B6B0398984700BF3A
:109B4C0005B05DF804FB00B585B001900091009B59
:109B5C001B88262B1ED1009B1B7A012B03D0009B4C
:109B6C001B7A022B17D1019B9B781846FFF79AFFA3
:109B7C0003461946019800F087FA0390039B002BCB
:109B8C0009D0019B9B6B002B05D0019B9B6B039811
:109B9C00984700E000BF05B05DF804FB00B585B048
:109BAC0001900B468DF80330019B03F227431846B6
:109BBC00FFF761FF03468DF80F309DF80330013B32
:109BCC00032B33D801A252F823F000BFE99B02000B
:109BDC000D9C0200219C02002D9C0200019B9B7994
:109BEC00002B0DD0019B93F8243083F00103DBB2E2
:109BFC00002B05D09DF80F30002B01D0012316E06F
:109C0C00019BDB79002B05D09DF80F30002B01D088
:109C1C0002230CE0019B1B7A002B01D0032306E0EE
:109C2C00019B5B7A002B01D0042300E00023184633
:109C3C0005B05DF804FB00BF82B001900091019B60
:109C4C00012283F83120019B0022C3F82024019BC0
:109C5C0003F22642009B5A60009B00229A60009BF4
:109C6C0002221A70009B80229A810023184602B0AF
:109C7C00704782B001900091019B022283F8312041
:109C8C00019B93F82430002B03D0009B07221A7001
:109C9C0002E0009B03221A70019B1B699AB2009B85
:109CAC009A81019B0022C3F82024019B03F22642D7
:109CBC00009B5A60019BDA68009B9A60002318464F
:109CCC0002B0704700B583B00190019B5B79002B0B
:109CDC000FD0019B93F82E3483F00103DBB2002BE1
:109CEC0007D00198FFF7BFFE0346002B01D00123DC
:109CFC0000E0002303F00103DBB2184603B05DF86B
:109D0C0004FB00B585B001900B468DF80330019B28
:109D1C00D3F81004019BB3F8143401221946FFF751
:109D2C0074FE0390039B002B03D0039B9DF8032030
:109D3C001A70019B03F15400019B03F58261019B96
:109D4C003C331A46FFF787FE0346184605B05DF80C
:109D5C0004FB00B585B001900091019B5A69009BF2
:109D6C009A60019B9B699AB2009B9A81019B93F824
:109D7C002430002B04D0019B062283F83C2003E006
:109D8C00019B012283F83C200198FFF79BFF0346BF
:109D9C00002B13D0009B02221A7504210198FFF7A7
:109DAC00B0FF0390039B0293029B002B01D0029BFC
:109DBC000FE0019B052283F8312003E0019B032275
:109DCC0083F83120019B03F58262019BC3F82024A8
:109DDC000023184605B05DF804FB00B585B0019072
:109DEC000091019BDA69009B9A60019B1B6A9AB2F5
:109DFC00009B9A81019B93F82430002B04D0019B8B
:109E0C00062283F83C2003E0019B012283F83C20CE
:109E1C000198FFF757FF0346002B13D0009B02223B
:109E2C001A7504210198FFF76CFF0390039B0293B2
:109E3C00029B002B01D0029B0FE0019B062283F8B2
:109E4C00312003E0019B042283F83120019B03F5B0
:109E5C008262019BC3F820240023184605B05DF8EC
:109E6C0004FB82B00190019B9B78002B06D0019BD8
:109E7C0093F82030002B01D000230AE0019B9B6A51
:109E8C00042B03D0019B5B6A042B01D1002300E05F
:109E9C000123184602B0704784B00190019B93F8DF
:109EAC002430002B03D0EE23ADF80E3002E01F233C
:109EBC00ADF80E30BDF80E30184604B0704782B0C5
:109ECC0001900B468DF80330019B9DF8032083F81D
:109EDC00302000BF02B0704730B587B001900091C0
:109EEC00009B002B02D0019B002B01D10E23B8E06C
:109EFC00009B78331846FFF7B4FF034683F0010349
:109F0C00DBB2002B01D00723ABE0019B00229A703F
:109F1C00019A009B141D03F178050FCD0FC40FCDD2
:109F2C000FC495E8070084E80700019B002283F822
:109F3C003020009BD3F8A420019B5A63009BD3F8DC
:109F4C00A820019B9A63019B4FF6FF72A3F824246F
:109F5C00019B03F58262019BC3F82024019B03F251
:109F6C00264307220021184614F022F8019B1B7887
:109F7C0083F00103DBB2002B03D0019BFF2283F89B
:109F8C005420019B03F15502019BC3F81024019846
:109F9C00FFF782FF03461A46019BA3F8142400988E
:109FAC00019B03F15501019B03F214431A46FFF781
:109FBC00BCFB0590059B0493049B002B01D0049BD8
:109FCC004FE0019B03F23122019BC3F81824019846
:109FDC00FFF762FF03461A46019BA3F81C24009B63
:109FEC0003F13C00019BD3F81814019B03F21C43B2
:109FFC001A46FFF79AFB0590059B0393039B002BD6
:10A00C0001D0039B2DE0019B012283F85120019B81
:10A01C009B699AB2019BA3F84820019B012283F80B
:10A02C003C20019B00221A64019B002283F85020E3
:10A03C00019B5A69019B5A64019B03F15400019BDB
:10A04C003C331A460021FFF706FD0590059B029351
:10A05C00029B002B01D0029B03E0019B01221A7092
:10A06C00059B184607B030BD82B00190019B1B6860
:10A07C00012B03D0019B1B68022B01D1012300E0B3
:10A08C000023184602B0704700B585B001900B460E
:10A09C008DF80330019B1B7883F00103DBB2002B9E
:10A0AC0001D0082309E1019B9DF803209A70019BC4
:10A0BC0003F2264307220021184613F079FF019B77
:10A0CC009B79002B03D0019B9B78012B0FD0019B1C
:10A0DC00DB79002B03D0019B9B78012B07D0019BD4
:10A0EC00DB79002B14D0019B9B78022B10D1019BA8
:10A0FC005B6B002B08D0019B012283F82D24019B64
:10A10C005B6B0820984703E0019B002283F82D2409
:10A11C009DF8033019460198FFF740FD03461A4697
:10A12C00019B9A70019B5B6B002B20D0019B9B7851
:10A13C00032B03D0019B9B78042B18D1019B5B79DB
:10A14C00002B14D0019B93F82E3483F00103DBB267
:10A15C00002B0CD0019B002283F83024019B0122A0
:10A16C0083F82F24019B5B6B0720984703E0019B2E
:10A17C00002283F82F24019B3C331822002118461F
:10A18C0013F016FF019B012283F83C20019B2C331A
:10A19C001846FFF769FF0346002B06D0019BDB6ACC
:10A1AC00DAB2019B83F8512003E0019B012283F872
:10A1BC005120019B93F82430002B12D0019B2833A3
:10A1CC001846FFF751FF0346002B06D0019B9B6AF4
:10A1DC00DAB2019B83F8522003E0019B012283F841
:10A1EC005220019B002283F85020019B9B78042B6A
:10A1FC0031D801A252F823F059A2020019A2020090
:10A20C0029A2020039A2020049A20200019B3C33A0
:10A21C0019460198FFF710FD03901DE0019B3C339C
:10A22C0019460198FFF725FD039015E0019B3C337F
:10A23C0019460198FFF78DFD03900DE0019B3C330F
:10A24C0019460198FFF7C9FD039005E0019B002218
:10A25C0083F8312000E000BF019B9B78002B20D0BD
:10A26C00019B03F15400019BD3F82014019B3C3358
:10A27C001A46FFF7F0FB0390039B002B01D0039BC6
:10A28C001BE0019B93F85420019B93F83030194646
:10A29C001046FFF7E4FB0390039B002B01D0039BBC
:10A2AC000BE0019B5B6B002B06D0019B5B6B019A57
:10A2BC0092F83120104698470023184605B05DF8F7
:10A2CC0004FB00BF00B585B001900091009B039387
:10A2DC00019B1B88262B10D0262B13DC102B02D0B5
:10A2EC00112B05D00EE001990398FFF7F3FB0AE060
:10A2FC0001990398FFF7FDFB05E001990398FFF71F
:10A30C0022FC00E000BF00BF05B05DF804FB75DF68
:10A31C00704700BF184676DF704700BF18467ADFDB
:10A32C00704700BF18467BDF704700BF184600001F
:10A33C0084B00346ADF806300023039316E00F49B2
:10A34C00039A13469B0013449B000B441B88BDF8D7
:10A35C0006209A4207D1039A13469B0013449B0094
:10A36C00064A134406E0039B01330393039B002B23
:10A37C00E5D00023184604B0704700BFA830002079
:10A38C0082B001900B46ADF80230019BBDF8022063
:10A39C001A80019B00221A72019B054903F10A02E3
:10A3AC000B4603CB1060516000BF02B0704700BF7A
:10A3BC00D830002082B00190019B4FF6FF721A80BA
:10A3CC0000BF02B0704788B00390029111461A4644
:10A3DC000B46ADF806301346ADF80430039B9B8852
:10A3EC001A46BDF8063013440793039B9B88194605
:10A3FC00039B9B88BDF80620934228BF13469BB253
:10A40C00CB1A0693039BDB881A46BDF80430134421
:10A41C000593039BDB881946039BDB88BDF804205E
:10A42C00934228BF13469BB2CB1A0493029B5A88C3
:10A43C00039B1B889A4205D3029B5A88039B5B881B
:10A44C009A4201D900231CE0029B9B881A46069B6A
:10A45C00934205D8029B9B881A46079B934201D2D4
:10A46C0000230EE0029BDB881A46049B934205D81E
:10A47C00029BDB881A46059B934201D2002300E025
:10A48C000123184608B0704700B583B00190064B05
:10A49C009B69002B03D0044B9B690198984700BF24
:10A4AC0003B05DF804FB00BFBC30002000B585B0E4
:10A4BC0003460091ADF80630BDF8063000991846F9
:10A4CC00FFF725FF0390039B002B05D0039B112B5B
:10A4DC0002D00398FFF7D8FF039B002B0CBF01237E
:10A4EC000023DBB2184605B05DF804FB00B589B05B
:10A4FC000190019B0793079B9BB21846FFF718FF2F
:10A50C000690069B002B42D0069B1A7A224B1B7B93
:10A51C009A4215D2079B9AB2069B0A3319461046EB
:10A52C00FFF7C4FF03468DF813309DF81330002B52
:10A53C002DD0069B1B7A0133DAB2069B1A7226E0E9
:10A54C00069B00221A72144B1B7C002B0FD0079B0E
:10A55C009BB23B211846FFF7DEFE0590059B002BB6
:10A56C0005D0059B082B02D00598FFF78DFF0A4BF1
:10A57C005B69002B0BD000238DF80C30079B9BB232
:10A58C00ADF80E30044B5B6903AA1046984700BF28
:10A59C0009B05DF804FB00BFBC30002030B587B0BB
:10A5AC000190019B002B01D10E2353E02B4A019B00
:10A5BC0014461D460FCD0FC495E8070084E807002C
:10A5CC00264B274A1A60019B1B68002B11D0019B5C
:10A5DC001B681846FFF7A3FE0490049B002B01D0C8
:10A5EC00049B37E0019B1A681D4B1068516803C32C
:10A5FC0008E01B48FFF797FE0490049B002B01D04A
:10A60C00049B27E00023059320E0059A13469B004A
:10A61C0013449B00134A134403930398FFF7CAFE99
:10A62C00059B5B01104A1A44039B5A60039B04333D
:10A63C000E4A002118460CF0D5FD0490049B002B0B
:10A64C0001D0032306E0059B01330593059B002BEA
:10A65C00DBD00023184607B030BD00BFBC30002053
:10A66C00D8300020A830002088300020F9A4020047
:10A67C0000B587B003460091ADF80630009B5B7ABD
:10A68C00002B1AD1009B1B7A002B03D1164B5B6855
:10A69C00059302E0144B9B680593009B5B68BDF827
:10A6AC000620059918460CF0D7FD0490049B002B4E
:10A6BC0016D00498FFF7E8FE12E0009B00221A72F5
:10A6CC00094B5B69002B0BD001238DF80C30BDF8C6
:10A6DC000630ADF80E30044B5B6903AA1046984760
:10A6EC0000BF07B05DF804FBBC30002000B585B09E
:10A6FC000190019BDB7B8DF80F30019B9B88ADF8A3
:10A70C000C309DF80F30012B2CD14FF6FF70FFF75A
:10A71C000FFE0290029B002B03D10420FFF7B4FE26
:10A72C0021E0BDF80C3019460298FFF729FE029B78
:10A73C0003F10A00019B03F110014FF6FF7340F285
:10A74C00F312FFF740FE03461A46029B5A72074B60
:10A75C00DB89002B07D1BDF80C3002991846FFF7A6
:10A76C0087FF00E000BF05B05DF804FBBC300020A3
:10A77C0000B587B00190019B9B88ADF81630BDF8F1
:10A78C0016301846FFF7D4FD0490049B002B0ED016
:10A79C00049B5B6818460CF0B7FD0390039B002BE1
:10A7AC0002D00398FFF770FE0498FFF703FE00BF7A
:10A7BC0007B05DF804FB000000B587B00190019B69
:10A7CC0006330593059B1A88194BDB899A422BD1CA
:10A7DC00059B5B89022B27D1019B9B88ADF812301E
:10A7EC00BDF812301846FFF7A3FD0390039B002B16
:10A7FC001AD0059B0C33184601F09CFA0346002B2B
:10A80C0006D0BDF8123003991846FFF731FF0BE064
:10A81C00039B5B6818460CF077FD0290029B002BA3
:10A82C0002D00298FFF730FE00BF07B05DF804FBC2
:10A83C00BC30002000B585B00190019B9B88ADF821
:10A84C000E30BDF80E301846FFF772FD0290029BD9
:10A85C00002B15D0029B03F10A00019B03F10801A8
:10A86C004FF6FF7340F2F312FFF7ADFD03461A46A5
:10A87C00029B5A72BDF80E3002991846FFF7F8FE8B
:10A88C0000BF05B05DF804FB00B583B001900091EA
:10A89C00019B1B88502B12D0502B18DC122B12D082
:10A8AC00122B14DC102B02D0112B04D00FE00198CA
:10A8BC00FFF71CFF0CE00198FFF75AFF08E0019826
:10A8CC00FFF77AFF04E00198FFF7B4FF00E000BF48
:10A8DC0000BF03B05DF804FB30B58FB00190009160
:10A8EC0000230293009B002B1AD000230D9314E03D
:10A8FC006B460D9918460FF020FB0346002B09D030
:10A90C00029B5A1C02920D9A92B25B0038336B4434
:10A91C0023F82C2C0D9B01330D930D9B132BE7D996
:10A92C00019B1D4602AC0FCC0FC50FCC0FC594E894
:10A93C00070085E8070001980FB030BD00B583B063
:10A94C000346ADF80630BDF80630132B01D90023B1
:10A95C000CE0BDF80630194606480FF099FABDF820
:10A96C000630194604480FF093FA0123184603B039
:10A97C005DF804FBE8300020E430002000B585B021
:10A98C000346ADF80630002303930DE0039B9B00B8
:10A99C00094A13440433BDF80620114618460FF03B
:10A9AC00B3FA039B01330393039B1D2BEED900BF1A
:10A9BC0000BF05B05DF804FBE030002000B583B0AB
:10A9CC000346ADF80630BDF80630194603480FF0C3
:10A9DC009BFA00BF03B05DF804FB00BFE830002019
:10A9EC0030B59BB0184B9B68DB431893164B5A68D9
:10A9FC0018AB114618460FF076FB189A6B461146A9
:10AA0C001846FFF769FF0DAC6D460FCD0FC40FCD87
:10AA1C000FC495E8070084E80700002319930BE0A6
:10AA2C00199B5B0068336B4433F8303C1846FFF7D6
:10AA3C00A5FF199B013319930D9B199A9A42EFD3D9
:10AA4C0000BF00BF1BB030BDE030002000B583B0AC
:10AA5C0003468DF807309DF80730194603480FF070
:10AA6C006CFA0346184603B05DF804FBE030002096
:10AA7C0000B583B001900B46ADF8023013468DF84B
:10AA8C0001309DF80130002B06D0BDF8023019467C
:10AA9C0001980FF0FDF905E0BDF802301946019858
:10AAAC000FF032FA00BF03B05DF804FB00B585B0BF
:10AABC0001900091019B9B88ADF80E30019B1B8887
:10AACC00103B0A2B00F2888001A252F823F000BF41
:10AADC0009AB020045AB0200E5AB0200E5AB02009E
:10AAEC00E5AB0200E5AB0200E5AB0200E5AB020012
:10AAFC00E5AB0200AFAB020051AB0200FFF770FFF9
:10AB0C00BDF80E301846FFF719FF034683F001031A
:10AB1C00DBB2002B05D0324AF02104200BF074FF7D
:10AB2C0057E0019BDB7B022B53D1BDF80E3019464D
:10AB3C002C480FF0ADF94CE0BDF80E301846FFF77D
:10AB4C003DFF49E0019B1B7AC3F30313DBB28DF885
:10AB5C000D309DF80D30032B8CBF01230023DAB28E
:10AB6C00BDF80E3019462048FFF782FF9DF80D30D6
:10AB7C00022B8CBF01230023DAB2BDF80E3019462C
:10AB8C001A48FFF775FF9DF80D30012B8CBF012380
:10AB9C000023DAB2BDF80E3019461548FFF768FFEE
:10ABAC001AE0019B1B7A002B15D1019B5B7AC3F336
:10ABBC00C003DBB2002B14BF012300238DF80C3033
:10ABCC009DF80C20BDF80E3019460748FFF750FFD2
:10ABDC0001E000BF00E000BF00BF05B05DF804FB62
:10ABEC00A8E60300EC300020F8300020F430002000
:10ABFC00F030002000B583B00346ADF80630BDF848
:10AC0C000630132B01D9002306E0BDF80630194697
:10AC1C0003480FF092F90346184603B05DF804FBA5
:10AC2C00E430002000B585B00346ADF806300023B3
:10AC3C008DF80F30BDF806301846FFF7DBFF0346E2
:10AC4C00002B11D0BDF8063019460A480FF075F9E3
:10AC5C0003468DF80E309DF80E30002B01D00223E8
:10AC6C0000E001238DF80F309DF80F30184605B029
:10AC7C005DF804FBEC30002000B585B00346ADF860
:10AC8C00063000238DF80F30BDF806301846FFF75C
:10AC9C00B1FF0346002B11D0BDF8063019460A4807
:10ACAC000FF04BF903468DF80E309DF80E30002B4B
:10ACBC0001D0022300E001238DF80F309DF80F30F6
:10ACCC00184605B05DF804FBE830002000B583B0F1
:10ACDC000346ADF80630BDF806301846FFF78AFF7C
:10ACEC000346002B07D0BDF80630194604480FF078
:10ACFC0024F9034600E00023184603B05DF804FB7A
:10AD0C00F030002000B583B00346ADF80630BDF836
:10AD1C0006301846FFF76EFF0346002B07D0BDF830
:10AD2C000630194604480FF008F9034600E00023EA
:10AD3C00184603B05DF804FBF430002000B583B076
:10AD4C000346ADF80630BDF806301846FFF752FF43
:10AD5C000346002B07D0BDF80630194604480FF007
:10AD6C00ECF8034600E00023184603B05DF804FB42
:10AD7C00F830002000B583B0182107480FF0F5F823
:10AD8C000190019B182B01D1182301E0019BDBB230
:10AD9C00184603B05DF804FBE030002000B583B02A
:10ADAC0003460A46ADF8063013468DF805309DF87B
:10ADBC0005301846FFF74AFE0346002B16D0BDF8A7
:10ADCC0006301846FFF716FF0346002B0ED09DF8F1
:10ADDC00053006339B00084A13440433BDF80620A3
:10ADEC00114618460FF0A9F8034600E00023184658
:10ADFC0003B05DF804FB00BFE030002000B583B069
:10AE0C000346ADF806300B468DF8053013468DF829
:10AE1C0004309DF805301846FFF718FE0346002B4A
:10AE2C0015D0BDF806301846FFF7E4FE0346002B9C
:10AE3C000DD09DF8053006339B00074A13440433AC
:10AE4C009DF80420BDF806101846FFF711FE00BF50
:10AE5C0003B05DF804FB00BFE030002000B587B004
:10AE6C00039002910192029B002B01D100231FE061
:10AE7C0000230593039B002B19D00023049313E0AC
:10AE8C0003AB049918460FF058F80346002B08D072
:10AE9C00049B9AB2029B019910469847059B01337B
:10AEAC000593049B01330493049B132BE8D9059B56
:10AEBC00184607B05DF804FB00B585B00346029157
:10AECC0001928DF80F309DF80F301846FFF7BEFD3C
:10AEDC00034683F00103DBB2002B01D000230CE00E
:10AEEC009DF80F30074A06339B0013445B68019AA8
:10AEFC0002991846FFF7B2FF0346184605B05DF8F5
:10AF0C0004FB00BFE030002084B0019000230393C9
:10AF1C0016E0104A039B9B0013449A78019B9B7884
:10AF2C009A420AD10B4A039B32F82320019B1B88BF
:10AF3C009A4202D1084B1B6808E0039B0133039330
:10AF4C00064B1B68039A9A42E3D30023184604B0BD
:10AF5C00704700BF5C310020743100207C31002030
:10AF6C0000B583B0019000910198FFF7CDFF034627
:10AF7C00002B01D0002314E00C4B1B68052B0FD8C1
:10AF8C000A4B1B680A4A01999B0013440A46106835
:10AF9C001860064B1B680133044A1360002300E061
:10AFAC000423184603B05DF804FB00BF7C3100207D
:10AFBC005C31002000B585B001900023039311E0B3
:10AFCC00019A039BDB01134403F553731B68039A2B
:10AFDC00D20102F5347201990A4410469847039B3A
:10AFEC0001330393064B1B68039A9A42E8D3019BE7
:10AFFC000022C3F8CC2200BF05B05DF804FB00BFF3
:10B00C007C31002000B5A3B001900B46ADF80230A6
:10B01C0003AB7C220021184612F0CAFFBDF80230A7
:10B02C00ADF80E3003238DF80C30019B0493064BC6
:10B03C001B68002B04D0044B1B6803AA10469847CE
:10B04C0000BF23B05DF804FB7431002000B5A7B03D
:10B05C00039002911346ADF80630039B93F8C63269
:10B06C001A46762302FB03F3039A13442593259B7C
:10B07C001846FFF749FF2490249B002B12D005ABF8
:10B08C007C220021184612F093FF01238DF8143016
:10B09C00BDF80630ADF81630029B069305AA249B2A
:10B0AC001046984700BF27B05DF804FB00B587B089
:10B0BC00039002911346ADF80630029B0593059B55
:10B0CC00002283F8C822BDF806301A460399059869
:10B0DC00FFF7BCFFBDF8063019460598FFF792FF45
:10B0EC0000BF07B05DF804FB00B585B001900B46BE
:10B0FC008DF803301346ADF80030019B93F8C6323F
:10B10C001A46762302FB03F3019A13440393039B21
:10B11C001846FFF7F9FE0290029B002B52D0019BC0
:10B12C00D3F8CC32052B4DD8019BD3F8CC32019AF5
:10B13C00DB01134403F2D223BDF800201A80019BDB
:10B14C00D3F8CC32019ADB01134403F53473039A20
:10B15C00043311467622184612F0F8FE9DF803309F
:10B16C00002B0AD0019BD3F8CC32019ADB0113449B
:10B17C0003F5347300221A7009E0019BD3F8CC322A
:10B18C00019ADB01134403F5347302221A70019BFC
:10B19C00D3F8CC32019ADB01134403F55373029AB2
:10B1AC001A60019BD3F8CC325A1C019BC3F8CC22F9
:10B1BC00019BD3F8CC22054B1B689A4202D1019813
:10B1CC00FFF7F8FE00BF05B05DF804FB7C310020F2
:10B1DC0000B58DB001900B46ADF8023002AB2022C9
:10B1EC000021184612F0E4FE019B93F8C73201339C
:10B1FC00DAB2019B83F8C722019B93F8C7321A4637
:10B20C002A4B1B689A4244D2019B002283F8C52228
:10B21C00019B93F8C6320133DAB2019B83F8C62244
:10B22C00019B93F8C6321A46762302FB03F3019A6C
:10B23C0013440B93019B93F8C6320B991C4A9B0049
:10B24C001344186808600B9B00221A7102238DF8B6
:10B25C0008300123ADF818300B9A0DF11A0312685F
:10B26C001A60019B0593134B0493134B1B68BDF899
:10B27C00022002A9184603F071F80A900A9B002BD1
:10B28C0011D0BDF802301A4601990A98FFF70EFF4B
:10B29C0009E0019B002283F8C822BDF80230194650
:10B2AC000198FFF7AFFE0DB05DF804FB7C31002078
:10B2BC005C310020B9B002007831002082B00190DE
:10B2CC000091009B1A89019B93F8C632184601998C
:10B2DC00762300FB03F30B4408331B889A4201D2FC
:10B2EC00012300E00023184602B0704784B003909D
:10B2FC00029101920093019B002B25D1029B1A898C
:10B30C00039B93F8C63218460399762300FB03F38C
:10B31C000B4408331B889A4201D100232AE0029B7C
:10B32C001B8901339AB2009B1A80039B93F8C63297
:10B33C001946039A762301FB03F3134408331A8846
:10B34C00009B5A80012315E0029B1B890133019A53
:10B35C00D288934201D100230CE0029B1B8901335C
:10B36C009AB2009B1A80019BDB88013B9AB2009B2E
:10B37C005A800123184604B07047000000B58FB006
:10B38C0001900B46ADF8023002AB2022002118468A
:10B39C0012F00EFE0AAB04220021184612F008FE31
:10B3AC00019B93F8C6321A46762302FB03F3019AEB
:10B3BC0013440D93019B93F8C532002B21D0019BB4
:10B3CC0093F8C532013B8DF83330019B93F8C632AC
:10B3DC001A46762302FB03F3019A13440D939DF84E
:10B3EC0033201346DB0013445B0008330D9A1344DF
:10B3FC0002330B930B9B1B8901339BB2ADF82830A6
:10B40C0003E00D9BDB88ADF828300D9B1B89ADF854
:10B41C002A3003238DF808300A9B0693019B059371
:10B42C00074B0493074B1B68BDF8022002A9184672
:10B43C0002F094FF034618460FB05DF804FB00BF02
:10B44C00B9B002007831002000B593B0039002919E
:10B45C001346ADF8063000238DF8433005AB20229F
:10B46C000021184612F0A4FD039B93F8C6321A462D
:10B47C00762302FB03F3039A13440E93039B93F876
:10B48C00C5321A461346DB0013445B0008330E9A90
:10B49C00134402331193039B93F8C53201330E9A74
:10B4AC001279934209D10DAB002211990398FFF741
:10B4BC001DFF03468DF843303DE0039B93F8C532E6
:10B4CC008DF8423031E09DF842200E9B1B79013BF8
:10B4DC009A4202D100230F930BE09DF842305A1C84
:10B4EC001346DB0013445B0008330E9A13440233FB
:10B4FC000F930DAB0F9A11990398FFF7F7FE0346C4
:10B50C00002B03D001238DF8433014E00F9B1193D3
:10B51C00039B93F8C5320133DAB2039B83F8C5223F
:10B52C009DF8423001338DF842300E9B1B799DF80B
:10B53C0042209A42C7D39DF8433083F00103DBB21B
:10B54C00002B04D0029B01221A70002314E0029BF2
:10B55C0000221A7004238DF814300D9B0993039B61
:10B56C000893074B0793074B1B68BDF8062005A9EA
:10B57C00184602F0F3FE0346184613B05DF804FBC0
:10B58C00B9B002007831002000B587B0019000916D
:10B59C00019B93F8C6321A46762302FB03F3019AF9
:10B5AC0013440393009B1A88019BB3F8CA329A4246
:10B5BC0061D1009B5B88002B4FD1009B0633059318
:10B5CC00039B059A0633063212681A60019B93F8A6
:10B5DC00C4328DF81330059B1B888DF812309DF802
:10B5EC0013209DF812301344062B0ADC019B93F8B0
:10B5FC00C4229DF812301344DAB2019B83F8C422A2
:10B60C0019E0019B062283F8C4221D4A1D4BD31A54
:10B61C00DB081B0443F002031B49184611F004FA23
:10B62C00174A184BD31ADB081B0443F002031749C3
:10B63C00184611F0F9F9009B1B8819460198FFF781
:10B64C009DFE0290029B002B16D0009B1B881A4675
:10B65C0001990298FFF72AFD0EE0009B1B881A4601
:10B66C0000210198FFF740FD009B1B8819460198AB
:10B67C00FFF7AEFD00E000BF07B05DF804FB00BFB4
:10B68C008CE1030044E103000CE703002CE703000A
:10B69C0000B58DB00190009100238DF82F30009BE8
:10B6AC001A88019BB3F8CA329A4240F0FC80019B85
:10B6BC0093F8C6321A46762302FB03F3019A13441D
:10B6CC000893009B5B88002B40F0BC80009B0633EA
:10B6DC000793089B1B798DF81B30079B1B888DF8F3
:10B6EC001A309DF81B209DF81A301344062B08DCE9
:10B6FC00089B1A799DF81A301344DAB2089B1A7118
:10B70C001AE0089B06221A71694A6A4BD31ADB08A5
:10B71C001B0443F00200089B1B881A46664911F073
:10B72C0091F9634A634BD31ADB081B0443F0020301
:10B73C006249184611F078F99DF81B300A930023E2
:10B74C00099345E008990A9A1346DB0013445B0001
:10B75C000B4403F108010798099A13469B00134404
:10B76C005B00C2188B1C023210685168186059605B
:10B77C0012891A8108990A9A1346DB0013445B005C
:10B78C000B44143300221A8008990A9A1346DB00E2
:10B79C0013445B000B44163300221A8008990A9A52
:10B7AC001346DB0013445B000B44183300221A8051
:10B7BC0008990A9A1346DB0013445B000B441A33B6
:10B7CC0000221A800A9B01330A93099B01330993C7
:10B7DC00089B1B791A460A9B9342B3D30A9B5A1EA9
:10B7EC001346DB0013445B000833089A13440233FE
:10B7FC00059305990198FFF761FD034683F001035A
:10B80C00DBB2002B03D1089B1B79062B03D1012340
:10B81C008DF82F3019E0089B1A79019B83F8C5220B
:10B82C00009B1B8819460198FFF7A8FD0490049B08
:10B83C00002B0AD0009B1B881A4601990498FFF72D
:10B84C0035FC31E001238DF82F309DF82F30002B83
:10B85C002AD0019B002283F8C522009B1A880DF187
:10B86C000F0319460198FFF7EFFD0490049B002B82
:10B87C0007D0009B1B881A4601990498FFF716FC09
:10B88C0012E09DF80F30002B0ED0009B1B881A463F
:10B89C0001210198FFF728FC009B1B881946019891
:10B8AC00FFF796FC00E000BF0DB05DF804FB00BF95
:10B8BC008CE1030044E1030074E70300BCE70300E0
:10B8CC0000B589B001900091009B1A88019BB3F8D8
:10B8DC00CA329A4240F0CC80019B93F8C6321A4689
:10B8EC00762302FB03F3019A13440693009B063361
:10B8FC000593019B93F8C5321A461346DB0013449B
:10B90C005B000833069A134402330493009B5B8854
:10B91C00002B70D10023079365E00599079A134615
:10B92C005B0013445B000B4404331B88A3F52453C6
:10B93C00082B45D801A252F823F000BF85B90200AC
:10B94C009DB902006DB90200CDB90200CDB902005B
:10B95C00CDB90200CDB90200CDB90200B5B90200D3
:10B96C000599079A13465B0013445B000B440233A2
:10B97C001A88049B5A8123E00599079A13465B00A9
:10B98C0013445B000B4402331A88049B9A8117E022
:10B99C000599079A13465B0013445B000B44023372
:10B9AC001A88049BDA810BE00599079A13465B0011
:10B9BC0013445B000B4402331A88049B1A8200BFA9
:10B9CC00049B5B89002B0BD0049B9B89002B07D01D
:10B9DC00049BDB89002B03D0049B1B8A002B09D111
:10B9EC00079B01330793059B1B881A46079B9342C1
:10B9FC0093D300E000BF00238DF80B30019B93F82C
:10BA0C00C5320133069A1279934203D101238DF882
:10BA1C000B301BE0019B93F8C5320133DAB2019B6A
:10BA2C0083F8C522009B1A880DF10B031946019867
:10BA3C00FFF70AFD0390039B002B07D0009B1B888C
:10BA4C001A4601990398FFF731FB12E09DF80B3071
:10BA5C00002B0ED0009B1B881A4601210198FFF782
:10BA6C0043FB009B1B8819460198FFF7B1FB00E0D4
:10BA7C0000BF09B05DF804FB84B001900023039370
:10BA8C00019B002B01D10E231AE0019B1B68002B9C
:10BA9C0001D10E2314E0019B5B68002B01D10E2316
:10BAAC000EE0094B00221A60084B01221A70019B10
:10BABC001B68074A1360019B5B68064A1360039B73
:10BACC00184604B0704700BF7C3100208031002044
